{
  "_format": "hh-sol-artifact-1",
  "contractName": "GameManager",
  "sourceName": "contracts/implementations/GameManager.sol",
  "abi": [
    {
      "inputs": [],
      "name": "InadequateMATIC",
      "type": "error"
    },
    {
      "inputs": [],
      "name": "InadequateMBLOX",
      "type": "error"
    },
    {
      "inputs": [],
      "name": "InvalidDigitalKey",
      "type": "error"
    },
    {
      "inputs": [],
      "name": "InvalidTokenID",
      "type": "error"
    },
    {
      "inputs": [],
      "name": "NoMETRToClaim",
      "type": "error"
    },
    {
      "inputs": [],
      "name": "NotPositiveValue",
      "type": "error"
    },
    {
      "inputs": [],
      "name": "ZeroAddress",
      "type": "error"
    },
    {
      "anonymous": false,
      "inputs": [
        {
          "indexed": false,
          "internalType": "address",
          "name": "to",
          "type": "address"
        },
        {
          "indexed": false,
          "internalType": "uint256",
          "name": "id",
          "type": "uint256"
        },
        {
          "indexed": false,
          "internalType": "uint256",
          "name": "amount",
          "type": "uint256"
        }
      ],
      "name": "BlocksPurchased",
      "type": "event"
    },
    {
      "anonymous": false,
      "inputs": [
        {
          "indexed": false,
          "internalType": "uint8",
          "name": "version",
          "type": "uint8"
        }
      ],
      "name": "Initialized",
      "type": "event"
    },
    {
      "anonymous": false,
      "inputs": [
        {
          "indexed": false,
          "internalType": "address",
          "name": "to",
          "type": "address"
        },
        {
          "indexed": false,
          "internalType": "uint256",
          "name": "amount",
          "type": "uint256"
        }
      ],
      "name": "MBLOXPurchased",
      "type": "event"
    },
    {
      "anonymous": false,
      "inputs": [
        {
          "indexed": false,
          "internalType": "address",
          "name": "to",
          "type": "address"
        },
        {
          "indexed": false,
          "internalType": "uint256",
          "name": "amount",
          "type": "uint256"
        }
      ],
      "name": "METRBalanceClaimed",
      "type": "event"
    },
    {
      "anonymous": false,
      "inputs": [
        {
          "indexed": false,
          "internalType": "uint256",
          "name": "amount",
          "type": "uint256"
        }
      ],
      "name": "PaymentDistributed",
      "type": "event"
    },
    {
      "anonymous": false,
      "inputs": [
        {
          "indexed": false,
          "internalType": "address",
          "name": "player",
          "type": "address"
        },
        {
          "indexed": false,
          "internalType": "uint256",
          "name": "id",
          "type": "uint256"
        },
        {
          "indexed": false,
          "internalType": "uint256",
          "name": "prevAmount",
          "type": "uint256"
        },
        {
          "indexed": false,
          "internalType": "uint256",
          "name": "newAmount",
          "type": "uint256"
        }
      ],
      "name": "UpdatedBlockBalance",
      "type": "event"
    },
    {
      "anonymous": false,
      "inputs": [
        {
          "indexed": false,
          "internalType": "address",
          "name": "to",
          "type": "address"
        },
        {
          "indexed": false,
          "internalType": "uint256",
          "name": "x",
          "type": "uint256"
        },
        {
          "indexed": false,
          "internalType": "uint256",
          "name": "y",
          "type": "uint256"
        }
      ],
      "name": "WorldPurchased",
      "type": "event"
    },
    {
      "inputs": [],
      "name": "_metrContract",
      "outputs": [
        {
          "internalType": "contract ERC20",
          "name": "",
          "type": "address"
        }
      ],
      "stateMutability": "view",
      "type": "function"
    },
    {
      "inputs": [
        {
          "internalType": "string",
          "name": "digitalKey",
          "type": "string"
        },
        {
          "internalType": "address",
          "name": "claimant",
          "type": "address"
        }
      ],
      "name": "claimMETRBalance",
      "outputs": [],
      "stateMutability": "nonpayable",
      "type": "function"
    },
    {
      "inputs": [
        {
          "internalType": "string",
          "name": "digitalKey",
          "type": "string"
        },
        {
          "internalType": "address",
          "name": "receiver",
          "type": "address"
        }
      ],
      "name": "convertMATICtoMBLOX",
      "outputs": [],
      "stateMutability": "payable",
      "type": "function"
    },
    {
      "inputs": [],
      "name": "getGridData",
      "outputs": [
        {
          "components": [
            {
              "internalType": "uint256",
              "name": "id",
              "type": "uint256"
            },
            {
              "internalType": "string",
              "name": "colour",
              "type": "string"
            },
            {
              "internalType": "uint256",
              "name": "x",
              "type": "uint256"
            },
            {
              "internalType": "uint256",
              "name": "y",
              "type": "uint256"
            }
          ],
          "internalType": "struct IGameManager.GridData[]",
          "name": "",
          "type": "tuple[]"
        }
      ],
      "stateMutability": "view",
      "type": "function"
    },
    {
      "inputs": [
        {
          "internalType": "address",
          "name": "player",
          "type": "address"
        }
      ],
      "name": "getPlayerColour",
      "outputs": [
        {
          "internalType": "string",
          "name": "",
          "type": "string"
        }
      ],
      "stateMutability": "view",
      "type": "function"
    },
    {
      "inputs": [
        {
          "internalType": "address",
          "name": "player",
          "type": "address"
        }
      ],
      "name": "getPlayerMETRBalance",
      "outputs": [
        {
          "internalType": "uint256",
          "name": "",
          "type": "uint256"
        }
      ],
      "stateMutability": "view",
      "type": "function"
    },
    {
      "inputs": [],
      "name": "getUsedColours",
      "outputs": [
        {
          "internalType": "string[]",
          "name": "",
          "type": "string[]"
        }
      ],
      "stateMutability": "view",
      "type": "function"
    },
    {
      "inputs": [
        {
          "internalType": "string",
          "name": "digitalKey",
          "type": "string"
        },
        {
          "internalType": "address",
          "name": "metrContract",
          "type": "address"
        },
        {
          "internalType": "address",
          "name": "mbloxAddress",
          "type": "address"
        },
        {
          "internalType": "address",
          "name": "metaBloxAddress",
          "type": "address"
        },
        {
          "internalType": "address",
          "name": "worldAddress",
          "type": "address"
        },
        {
          "internalType": "address",
          "name": "recipient",
          "type": "address"
        }
      ],
      "name": "initialize",
      "outputs": [],
      "stateMutability": "nonpayable",
      "type": "function"
    },
    {
      "inputs": [
        {
          "internalType": "string",
          "name": "digitalKey",
          "type": "string"
        },
        {
          "internalType": "uint256",
          "name": "id",
          "type": "uint256"
        },
        {
          "internalType": "uint256",
          "name": "amount",
          "type": "uint256"
        },
        {
          "internalType": "address",
          "name": "purchaser",
          "type": "address"
        }
      ],
      "name": "purchaseBlocks",
      "outputs": [],
      "stateMutability": "nonpayable",
      "type": "function"
    },
    {
      "inputs": [
        {
          "internalType": "string",
          "name": "digitalKey",
          "type": "string"
        },
        {
          "components": [
            {
              "components": [
                {
                  "internalType": "address",
                  "name": "owner",
                  "type": "address"
                },
                {
                  "components": [
                    {
                      "internalType": "uint256",
                      "name": "x",
                      "type": "uint256"
                    },
                    {
                      "internalType": "uint256",
                      "name": "y",
                      "type": "uint256"
                    }
                  ],
                  "internalType": "struct IUtilities.Coordinates",
                  "name": "coords",
                  "type": "tuple"
                }
              ],
              "internalType": "struct IUtilities.WorldGridData",
              "name": "worldGridData",
              "type": "tuple"
            },
            {
              "components": [
                {
                  "internalType": "uint256",
                  "name": "blockTotal",
                  "type": "uint256"
                },
                {
                  "internalType": "string",
                  "name": "worldLayout",
                  "type": "string"
                }
              ],
              "internalType": "struct IUtilities.WorldBlockDetails",
              "name": "worldBlockDetails",
              "type": "tuple"
            },
            {
              "internalType": "string",
              "name": "colour",
              "type": "string"
            },
            {
              "internalType": "uint256",
              "name": "id",
              "type": "uint256"
            },
            {
              "internalType": "string",
              "name": "tokenURI",
              "type": "string"
            }
          ],
          "internalType": "struct IUtilities.WorldMetadata",
          "name": "worldData",
          "type": "tuple"
        },
        {
          "internalType": "address",
          "name": "purchaser",
          "type": "address"
        }
      ],
      "name": "purchaseWorld",
      "outputs": [],
      "stateMutability": "nonpayable",
      "type": "function"
    },
    {
      "inputs": [
        {
          "internalType": "string",
          "name": "digitalKey",
          "type": "string"
        },
        {
          "internalType": "address",
          "name": "player",
          "type": "address"
        },
        {
          "internalType": "uint256",
          "name": "worldID",
          "type": "uint256"
        },
        {
          "components": [
            {
              "internalType": "uint256",
              "name": "blockTotal",
              "type": "uint256"
            },
            {
              "internalType": "string",
              "name": "worldLayout",
              "type": "string"
            }
          ],
          "internalType": "struct IUtilities.WorldBlockDetails",
          "name": "worldBlockDetails",
          "type": "tuple"
        },
        {
          "components": [
            {
              "internalType": "uint256[]",
              "name": "increaseIds",
              "type": "uint256[]"
            },
            {
              "internalType": "uint256[]",
              "name": "increases",
              "type": "uint256[]"
            },
            {
              "internalType": "uint256[]",
              "name": "decreaseIds",
              "type": "uint256[]"
            },
            {
              "internalType": "uint256[]",
              "name": "decreases",
              "type": "uint256[]"
            }
          ],
          "internalType": "struct IGameManager.BlockUpdates",
          "name": "blockUpdates",
          "type": "tuple"
        }
      ],
      "name": "saveWorldChanges",
      "outputs": [],
      "stateMutability": "nonpayable",
      "type": "function"
    }
  ],
  "bytecode": "0x608060405234801561001057600080fd5b506132f1806100206000396000f3fe60806040526004361061009c5760003560e01c80638182e707116100645780638182e707146101865780639f68bbd4146101af578063b564b733146101da578063b5f346a214610217578063c242a1b814610240578063d31752461461025c5761009c565b80631ebaee93146100a1578063372cf749146100ca57806340942b5f146100f35780635f32693e1461013057806371ec98361461015b575b600080fd5b3480156100ad57600080fd5b506100c860048036038101906100c39190611f8e565b610285565b005b3480156100d657600080fd5b506100f160048036038101906100ec9190612081565b6104c1565b005b3480156100ff57600080fd5b5061011a6004803603810190610115919061210c565b6109f6565b60405161012791906121b8565b60405180910390f35b34801561013c57600080fd5b50610145610aca565b60405161015291906122e6565b60405180910390f35b34801561016757600080fd5b50610170610ba3565b60405161017d919061243c565b60405180910390f35b34801561019257600080fd5b506101ad60048036038101906101a8919061245e565b610cb2565b005b3480156101bb57600080fd5b506101c4611141565b6040516101d19190612566565b60405180910390f35b3480156101e657600080fd5b5061020160048036038101906101fc919061210c565b611167565b60405161020e9190612590565b60405180910390f35b34801561022357600080fd5b5061023e600480360381019061023991906125ab565b6111b3565b005b61025a600480360381019061025591906125ab565b6114ba565b005b34801561026857600080fd5b50610283600480360381019061027e9190612607565b611727565b005b6001604051610294919061278d565b60405180910390208580519060200120146102db576040517f656335e300000000000000000000000000000000000000000000000000000000815260040160405180910390fd5b600560009054906101000a900473ffffffffffffffffffffffffffffffffffffffff1673ffffffffffffffffffffffffffffffffffffffff166320800a2084846040518363ffffffff1660e01b81526004016103389291906127e1565b600060405180830381600087803b15801561035257600080fd5b505af1158015610366573d6000803e3d6000fd5b505050506000816020015151111561041257600460009054906101000a900473ffffffffffffffffffffffffffffffffffffffff1673ffffffffffffffffffffffffffffffffffffffff166387730d0185836000015184602001516040518463ffffffff1660e01b81526004016103df939291906128cf565b600060405180830381600087803b1580156103f957600080fd5b505af115801561040d573d6000803e3d6000fd5b505050505b600081606001515111156104ba57600460009054906101000a900473ffffffffffffffffffffffffffffffffffffffff1673ffffffffffffffffffffffffffffffffffffffff166334cda73485836040015184606001516040518463ffffffff1660e01b8152600401610487939291906128cf565b600060405180830381600087803b1580156104a157600080fd5b505af11580156104b5573d6000803e3d6000fd5b505050505b5050505050565b600073ffffffffffffffffffffffffffffffffffffffff168173ffffffffffffffffffffffffffffffffffffffff1603610527576040517fd92e233d00000000000000000000000000000000000000000000000000000000815260040160405180910390fd5b6001604051610536919061278d565b604051809103902083805190602001201461057d576040517f656335e300000000000000000000000000000000000000000000000000000000815260040160405180910390fd5b6064600360009054906101000a900473ffffffffffffffffffffffffffffffffffffffff1673ffffffffffffffffffffffffffffffffffffffff166370a08231836040518263ffffffff1660e01b81526004016105da9190612914565b602060405180830381865afa1580156105f7573d6000803e3d6000fd5b505050506040513d601f19601f8201168201806040525081019061061b9190612944565b1015610653576040517f871cfff500000000000000000000000000000000000000000000000000000000815260040160405180910390fd5b600360009054906101000a900473ffffffffffffffffffffffffffffffffffffffff1673ffffffffffffffffffffffffffffffffffffffff1663ec14210b8260646040518363ffffffff1660e01b81526004016106b19291906129ac565b600060405180830381600087803b1580156106cb57600080fd5b505af11580156106df573d6000803e3d6000fd5b50505050600560009054906101000a900473ffffffffffffffffffffffffffffffffffffffff1673ffffffffffffffffffffffffffffffffffffffff1663383ae75782846040518363ffffffff1660e01b8152600401610740929190612c6c565b600060405180830381600087803b15801561075a57600080fd5b505af115801561076e573d6000803e3d6000fd5b505050508180608001906107829190612cab565b600860008473ffffffffffffffffffffffffffffffffffffffff1673ffffffffffffffffffffffffffffffffffffffff16815260200190815260200160002060000191826107d1929190612ebb565b5060078280608001906107e49190612cab565b9091806001815401808255809150506001900390600052602060002001600090919290919290919290919250918261081d929190612ebb565b506000600560009054906101000a900473ffffffffffffffffffffffffffffffffffffffff1673ffffffffffffffffffffffffffffffffffffffff166384c4bd4b6040518163ffffffff1660e01b8152600401602060405180830381865afa15801561088d573d6000803e3d6000fd5b505050506040513d601f19601f820116820180604052508101906108b19190612944565b9050600060405180608001604052808381526020018580608001906108d69190612cab565b8080601f016020809104026020016040519081016040528093929190818152602001838380828437600081840152601f19601f820116905080830192505050505050508152602001856000016020016000013581526020018560000160200160200135815250905060098190806001815401808255809150506001900390600052602060002090600402016000909190919091506000820151816000015560208201518160010190816109899190612f8b565b50604082015181600201556060820151816003015550507f5775bad83cd49623fb4aab6cc05030b5f675dc6f01a8eac4c289475ae82b66f883856000016020016000013586600001602001602001356040516109e79392919061305d565b60405180910390a15050505050565b6060600860008373ffffffffffffffffffffffffffffffffffffffff1673ffffffffffffffffffffffffffffffffffffffff1681526020019081526020016000206000018054610a45906126b9565b80601f0160208091040260200160405190810160405280929190818152602001828054610a71906126b9565b8015610abe5780601f10610a9357610100808354040283529160200191610abe565b820191906000526020600020905b815481529060010190602001808311610aa157829003601f168201915b50505050509050919050565b60606007805480602002602001604051908101604052809291908181526020016000905b82821015610b9a578382906000526020600020018054610b0d906126b9565b80601f0160208091040260200160405190810160405280929190818152602001828054610b39906126b9565b8015610b865780601f10610b5b57610100808354040283529160200191610b86565b820191906000526020600020905b815481529060010190602001808311610b6957829003601f168201915b505050505081526020019060010190610aee565b50505050905090565b60606009805480602002602001604051908101604052809291908181526020016000905b82821015610ca9578382906000526020600020906004020160405180608001604052908160008201548152602001600182018054610c04906126b9565b80601f0160208091040260200160405190810160405280929190818152602001828054610c30906126b9565b8015610c7d5780601f10610c5257610100808354040283529160200191610c7d565b820191906000526020600020905b815481529060010190602001808311610c6057829003601f168201915b505050505081526020016002820154815260200160038201548152505081526020019060010190610bc7565b50505050905090565b60008060019054906101000a900460ff16159050808015610ce35750600160008054906101000a900460ff1660ff16105b80610d105750610cf230611a73565b158015610d0f5750600160008054906101000a900460ff1660ff16145b5b610d4f576040517f08c379a0000000000000000000000000000000000000000000000000000000008152600401610d4690613106565b60405180910390fd5b60016000806101000a81548160ff021916908360ff1602179055508015610d8c576001600060016101000a81548160ff0219169083151502179055505b600073ffffffffffffffffffffffffffffffffffffffff168673ffffffffffffffffffffffffffffffffffffffff1603610df2576040517fd92e233d00000000000000000000000000000000000000000000000000000000815260040160405180910390fd5b600073ffffffffffffffffffffffffffffffffffffffff168573ffffffffffffffffffffffffffffffffffffffff1603610e58576040517fd92e233d00000000000000000000000000000000000000000000000000000000815260040160405180910390fd5b600073ffffffffffffffffffffffffffffffffffffffff168473ffffffffffffffffffffffffffffffffffffffff1603610ebe576040517fd92e233d00000000000000000000000000000000000000000000000000000000815260040160405180910390fd5b600073ffffffffffffffffffffffffffffffffffffffff168373ffffffffffffffffffffffffffffffffffffffff1603610f24576040517fd92e233d00000000000000000000000000000000000000000000000000000000815260040160405180910390fd5b600073ffffffffffffffffffffffffffffffffffffffff168273ffffffffffffffffffffffffffffffffffffffff1603610f8a576040517fd92e233d00000000000000000000000000000000000000000000000000000000815260040160405180910390fd5b8660019081610f999190612f8b565b5085600260006101000a81548173ffffffffffffffffffffffffffffffffffffffff021916908373ffffffffffffffffffffffffffffffffffffffff16021790555084600360006101000a81548173ffffffffffffffffffffffffffffffffffffffff021916908373ffffffffffffffffffffffffffffffffffffffff16021790555083600460006101000a81548173ffffffffffffffffffffffffffffffffffffffff021916908373ffffffffffffffffffffffffffffffffffffffff16021790555082600560006101000a81548173ffffffffffffffffffffffffffffffffffffffff021916908373ffffffffffffffffffffffffffffffffffffffff16021790555081600660006101000a81548173ffffffffffffffffffffffffffffffffffffffff021916908373ffffffffffffffffffffffffffffffffffffffff16021790555080156111385760008060016101000a81548160ff0219169083151502179055507f7f26b83ff96e1f2b6a682f133852f6798a09c465da95921460cefb3847402498600160405161112f919061316e565b60405180910390a15b50505050505050565b600260009054906101000a900473ffffffffffffffffffffffffffffffffffffffff1681565b6000600860008373ffffffffffffffffffffffffffffffffffffffff1673ffffffffffffffffffffffffffffffffffffffff168152602001908152602001600020600101549050919050565b60016040516111c2919061278d565b6040518091039020828051906020012014611209576040517f656335e300000000000000000000000000000000000000000000000000000000815260040160405180910390fd5b600073ffffffffffffffffffffffffffffffffffffffff168173ffffffffffffffffffffffffffffffffffffffff160361126f576040517fd92e233d00000000000000000000000000000000000000000000000000000000815260040160405180910390fd5b6000600860008373ffffffffffffffffffffffffffffffffffffffff1673ffffffffffffffffffffffffffffffffffffffff1681526020019081526020016000206001015490506000600260009054906101000a900473ffffffffffffffffffffffffffffffffffffffff1673ffffffffffffffffffffffffffffffffffffffff166370a08231846040518263ffffffff1660e01b81526004016113139190612914565b602060405180830381865afa158015611330573d6000803e3d6000fd5b505050506040513d601f19601f820116820180604052508101906113549190612944565b905080821061138f576040517fe7785ee500000000000000000000000000000000000000000000000000000000815260040160405180910390fd5b80600860008573ffffffffffffffffffffffffffffffffffffffff1673ffffffffffffffffffffffffffffffffffffffff16815260200190815260200160002060010181905550600360009054906101000a900473ffffffffffffffffffffffffffffffffffffffff1673ffffffffffffffffffffffffffffffffffffffff1663690faf5b84848461142191906131b8565b6040518363ffffffff1660e01b815260040161143e9291906131ec565b600060405180830381600087803b15801561145857600080fd5b505af115801561146c573d6000803e3d6000fd5b505050507f98043d11e858f9a20a24f1cffcb307537332437a9afc6a2083c94c4a00c97b2283838361149e91906131b8565b6040516114ac9291906131ec565b60405180910390a150505050565b60016040516114c9919061278d565b6040518091039020828051906020012014611510576040517f656335e300000000000000000000000000000000000000000000000000000000815260040160405180910390fd5b600073ffffffffffffffffffffffffffffffffffffffff168173ffffffffffffffffffffffffffffffffffffffff1603611576576040517fd92e233d00000000000000000000000000000000000000000000000000000000815260040160405180910390fd5b67016345785d8a00003410156115b8576040517f781a138f00000000000000000000000000000000000000000000000000000000815260040160405180910390fd5b600360009054906101000a900473ffffffffffffffffffffffffffffffffffffffff1673ffffffffffffffffffffffffffffffffffffffff1663690faf5b826103e86040518363ffffffff1660e01b8152600401611617929190613250565b600060405180830381600087803b15801561163157600080fd5b505af1158015611645573d6000803e3d6000fd5b50505050600660009054906101000a900473ffffffffffffffffffffffffffffffffffffffff1673ffffffffffffffffffffffffffffffffffffffff166108fc349081150290604051600060405180830381858888f193505050501580156116b1573d6000803e3d6000fd5b507fc1490e91b41ba50405d1c55f8d8d9da6384bb9d5bd5ecb7771430def244759308160646040516116e49291906129ac565b60405180910390a17f811447d6056ff558a12372ce4223abc2dca6c6c013973ac0f7530bbd25221f803460405161171b9190612590565b60405180910390a15050565b600073ffffffffffffffffffffffffffffffffffffffff168173ffffffffffffffffffffffffffffffffffffffff160361178d576040517fd92e233d00000000000000000000000000000000000000000000000000000000815260040160405180910390fd5b600160405161179c919061278d565b60405180910390208480519060200120146117e3576040517f656335e300000000000000000000000000000000000000000000000000000000815260040160405180910390fd5b600182101561181e576040517f2258a01b00000000000000000000000000000000000000000000000000000000815260040160405180910390fd5b600061182984611a96565b9050600083826118399190613279565b9050600360009054906101000a900473ffffffffffffffffffffffffffffffffffffffff1673ffffffffffffffffffffffffffffffffffffffff166370a08231846040518263ffffffff1660e01b81526004016118969190612914565b602060405180830381865afa1580156118b3573d6000803e3d6000fd5b505050506040513d601f19601f820116820180604052508101906118d79190612944565b811115611910576040517f871cfff500000000000000000000000000000000000000000000000000000000815260040160405180910390fd5b600360009054906101000a900473ffffffffffffffffffffffffffffffffffffffff1673ffffffffffffffffffffffffffffffffffffffff1663ec14210b84836040518363ffffffff1660e01b815260040161196d9291906131ec565b600060405180830381600087803b15801561198757600080fd5b505af115801561199b573d6000803e3d6000fd5b50505050600460009054906101000a900473ffffffffffffffffffffffffffffffffffffffff1673ffffffffffffffffffffffffffffffffffffffff166301b791598487876040518463ffffffff1660e01b81526004016119fe9392919061305d565b600060405180830381600087803b158015611a1857600080fd5b505af1158015611a2c573d6000803e3d6000fd5b505050507f323fc4ccd660921fb956d269cd1d6f58b5e2e7d4e6f38cf4864d5b797e87126d838686604051611a639392919061305d565b60405180910390a1505050505050565b6000808273ffffffffffffffffffffffffffffffffffffffff163b119050919050565b600080600460009054906101000a900473ffffffffffffffffffffffffffffffffffffffff1673ffffffffffffffffffffffffffffffffffffffff1663bc31c1c1846040518263ffffffff1660e01b8152600401611af49190612590565b602060405180830381865afa158015611b11573d6000803e3d6000fd5b505050506040513d601f19601f82011682018060405250810190611b359190612944565b905060008103611b71576040517f6aa2a93700000000000000000000000000000000000000000000000000000000815260040160405180910390fd5b80915050919050565b6000604051905090565b600080fd5b600080fd5b600080fd5b600080fd5b6000601f19601f8301169050919050565b7f4e487b7100000000000000000000000000000000000000000000000000000000600052604160045260246000fd5b611be182611b98565b810181811067ffffffffffffffff82111715611c0057611bff611ba9565b5b80604052505050565b6000611c13611b7a565b9050611c1f8282611bd8565b919050565b600067ffffffffffffffff821115611c3f57611c3e611ba9565b5b611c4882611b98565b9050602081019050919050565b82818337600083830152505050565b6000611c77611c7284611c24565b611c09565b905082815260208101848484011115611c9357611c92611b93565b5b611c9e848285611c55565b509392505050565b600082601f830112611cbb57611cba611b8e565b5b8135611ccb848260208601611c64565b91505092915050565b600073ffffffffffffffffffffffffffffffffffffffff82169050919050565b6000611cff82611cd4565b9050919050565b611d0f81611cf4565b8114611d1a57600080fd5b50565b600081359050611d2c81611d06565b92915050565b6000819050919050565b611d4581611d32565b8114611d5057600080fd5b50565b600081359050611d6281611d3c565b92915050565b600080fd5b600080fd5b600060408284031215611d8857611d87611d68565b5b611d926040611c09565b90506000611da284828501611d53565b600083015250602082013567ffffffffffffffff811115611dc657611dc5611d6d565b5b611dd284828501611ca6565b60208301525092915050565b600067ffffffffffffffff821115611df957611df8611ba9565b5b602082029050602081019050919050565b600080fd5b6000611e22611e1d84611dde565b611c09565b90508083825260208201905060208402830185811115611e4557611e44611e0a565b5b835b81811015611e6e5780611e5a8882611d53565b845260208401935050602081019050611e47565b5050509392505050565b600082601f830112611e8d57611e8c611b8e565b5b8135611e9d848260208601611e0f565b91505092915050565b600060808284031215611ebc57611ebb611d68565b5b611ec66080611c09565b9050600082013567ffffffffffffffff811115611ee657611ee5611d6d565b5b611ef284828501611e78565b600083015250602082013567ffffffffffffffff811115611f1657611f15611d6d565b5b611f2284828501611e78565b602083015250604082013567ffffffffffffffff811115611f4657611f45611d6d565b5b611f5284828501611e78565b604083015250606082013567ffffffffffffffff811115611f7657611f75611d6d565b5b611f8284828501611e78565b60608301525092915050565b600080600080600060a08688031215611faa57611fa9611b84565b5b600086013567ffffffffffffffff811115611fc857611fc7611b89565b5b611fd488828901611ca6565b9550506020611fe588828901611d1d565b9450506040611ff688828901611d53565b935050606086013567ffffffffffffffff81111561201757612016611b89565b5b61202388828901611d72565b925050608086013567ffffffffffffffff81111561204457612043611b89565b5b61205088828901611ea6565b9150509295509295909350565b600080fd5b600060e082840312156120785761207761205d565b5b81905092915050565b60008060006060848603121561209a57612099611b84565b5b600084013567ffffffffffffffff8111156120b8576120b7611b89565b5b6120c486828701611ca6565b935050602084013567ffffffffffffffff8111156120e5576120e4611b89565b5b6120f186828701612062565b925050604061210286828701611d1d565b9150509250925092565b60006020828403121561212257612121611b84565b5b600061213084828501611d1d565b91505092915050565b600081519050919050565b600082825260208201905092915050565b60005b83811015612173578082015181840152602081019050612158565b60008484015250505050565b600061218a82612139565b6121948185612144565b93506121a4818560208601612155565b6121ad81611b98565b840191505092915050565b600060208201905081810360008301526121d2818461217f565b905092915050565b600081519050919050565b600082825260208201905092915050565b6000819050602082019050919050565b600082825260208201905092915050565b600061222282612139565b61222c8185612206565b935061223c818560208601612155565b61224581611b98565b840191505092915050565b600061225c8383612217565b905092915050565b6000602082019050919050565b600061227c826121da565b61228681856121e5565b935083602082028501612298856121f6565b8060005b858110156122d457848403895281516122b58582612250565b94506122c083612264565b925060208a0199505060018101905061229c565b50829750879550505050505092915050565b600060208201905081810360008301526123008184612271565b905092915050565b600081519050919050565b600082825260208201905092915050565b6000819050602082019050919050565b61233d81611d32565b82525050565b600060808301600083015161235b6000860182612334565b50602083015184820360208601526123738282612217565b91505060408301516123886040860182612334565b50606083015161239b6060860182612334565b508091505092915050565b60006123b28383612343565b905092915050565b6000602082019050919050565b60006123d282612308565b6123dc8185612313565b9350836020820285016123ee85612324565b8060005b8581101561242a578484038952815161240b85826123a6565b9450612416836123ba565b925060208a019950506001810190506123f2565b50829750879550505050505092915050565b6000602082019050818103600083015261245681846123c7565b905092915050565b60008060008060008060c0878903121561247b5761247a611b84565b5b600087013567ffffffffffffffff81111561249957612498611b89565b5b6124a589828a01611ca6565b96505060206124b689828a01611d1d565b95505060406124c789828a01611d1d565b94505060606124d889828a01611d1d565b93505060806124e989828a01611d1d565b92505060a06124fa89828a01611d1d565b9150509295509295509295565b6000819050919050565b600061252c61252761252284611cd4565b612507565b611cd4565b9050919050565b600061253e82612511565b9050919050565b600061255082612533565b9050919050565b61256081612545565b82525050565b600060208201905061257b6000830184612557565b92915050565b61258a81611d32565b82525050565b60006020820190506125a56000830184612581565b92915050565b600080604083850312156125c2576125c1611b84565b5b600083013567ffffffffffffffff8111156125e0576125df611b89565b5b6125ec85828601611ca6565b92505060206125fd85828601611d1d565b9150509250929050565b6000806000806080858703121561262157612620611b84565b5b600085013567ffffffffffffffff81111561263f5761263e611b89565b5b61264b87828801611ca6565b945050602061265c87828801611d53565b935050604061266d87828801611d53565b925050606061267e87828801611d1d565b91505092959194509250565b7f4e487b7100000000000000000000000000000000000000000000000000000000600052602260045260246000fd5b600060028204905060018216806126d157607f821691505b6020821081036126e4576126e361268a565b5b50919050565b600081905092915050565b60008190508160005260206000209050919050565b60008154612717816126b9565b61272181866126ea565b9450600182166000811461273c576001811461275157612784565b60ff1983168652811515820286019350612784565b61275a856126f5565b60005b8381101561277c5781548189015260018201915060208101905061275d565b838801955050505b50505092915050565b6000612799828461270a565b915081905092915050565b60006040830160008301516127bc6000860182612334565b50602083015184820360208601526127d48282612217565b9150508091505092915050565b60006040820190506127f66000830185612581565b818103602083015261280881846127a4565b90509392505050565b61281a81611cf4565b82525050565b600081519050919050565b600082825260208201905092915050565b6000819050602082019050919050565b60006128588383612334565b60208301905092915050565b6000602082019050919050565b600061287c82612820565b612886818561282b565b93506128918361283c565b8060005b838110156128c25781516128a9888261284c565b97506128b483612864565b925050600181019050612895565b5085935050505092915050565b60006060820190506128e46000830186612811565b81810360208301526128f68185612871565b9050818103604083015261290a8184612871565b9050949350505050565b60006020820190506129296000830184612811565b92915050565b60008151905061293e81611d3c565b92915050565b60006020828403121561295a57612959611b84565b5b60006129688482850161292f565b91505092915050565b6000819050919050565b600061299661299161298c84612971565b612507565b611d32565b9050919050565b6129a68161297b565b82525050565b60006040820190506129c16000830185612811565b6129ce602083018461299d565b9392505050565b600082905092915050565b60006129ef6020840184611d1d565b905092915050565b612a0081611cf4565b82525050565b600082905092915050565b6000612a206020840184611d53565b905092915050565b60408201612a396000830183612a11565b612a466000850182612334565b50612a546020830183612a11565b612a616020850182612334565b50505050565b60608201612a7860008301836129e0565b612a8560008501826129f7565b50612a936020830183612a06565b612aa06020850182612a28565b50505050565b600080fd5b600082356001604003833603038112612ac757612ac6612aa6565b5b82810191505092915050565b600080fd5b600080fd5b60008083356001602003843603038112612afa57612af9612aa6565b5b83810192508235915060208301925067ffffffffffffffff821115612b2257612b21612ad3565b5b600182023603831315612b3857612b37612ad8565b5b509250929050565b6000612b4c8385612206565b9350612b59838584611c55565b612b6283611b98565b840190509392505050565b600060408301612b806000840184612a11565b612b8d6000860182612334565b50612b9b6020840184612add565b8583036020870152612bae838284612b40565b925050508091505092915050565b600060e08301612bcf60008401846129d5565b612bdc6000860182612a67565b50612bea6060840184612aab565b8482036060860152612bfc8282612b6d565b915050612c0c6080840184612add565b8583036080870152612c1f838284612b40565b92505050612c3060a0840184612a11565b612c3d60a0860182612334565b50612c4b60c0840184612add565b85830360c0870152612c5e838284612b40565b925050508091505092915050565b6000604082019050612c816000830185612811565b8181036020830152612c938184612bbc565b90509392505050565b600080fd5b600080fd5b600080fd5b60008083356001602003843603038112612cc857612cc7612c9c565b5b80840192508235915067ffffffffffffffff821115612cea57612ce9612ca1565b5b602083019250600182023603831315612d0657612d05612ca6565b5b509250929050565b600082905092915050565b60008190508160005260206000209050919050565b60006020601f8301049050919050565b600082821b905092915050565b600060088302612d7b7fffffffffffffffffffffffffffffffffffffffffffffffffffffffffffffffff82612d3e565b612d858683612d3e565b95508019841693508086168417925050509392505050565b6000612db8612db3612dae84611d32565b612507565b611d32565b9050919050565b6000819050919050565b612dd283612d9d565b612de6612dde82612dbf565b848454612d4b565b825550505050565b600090565b612dfb612dee565b612e06818484612dc9565b505050565b5b81811015612e2a57612e1f600082612df3565b600181019050612e0c565b5050565b601f821115612e6f57612e4081612d19565b612e4984612d2e565b81016020851015612e58578190505b612e6c612e6485612d2e565b830182612e0b565b50505b505050565b600082821c905092915050565b6000612e9260001984600802612e74565b1980831691505092915050565b6000612eab8383612e81565b9150826002028217905092915050565b612ec58383612d0e565b67ffffffffffffffff811115612ede57612edd611ba9565b5b612ee882546126b9565b612ef3828285612e2e565b6000601f831160018114612f225760008415612f10578287013590505b612f1a8582612e9f565b865550612f82565b601f198416612f3086612d19565b60005b82811015612f5857848901358255600182019150602085019450602081019050612f33565b86831015612f755784890135612f71601f891682612e81565b8355505b6001600288020188555050505b50505050505050565b612f9482612139565b67ffffffffffffffff811115612fad57612fac611ba9565b5b612fb782546126b9565b612fc2828285612e2e565b600060209050601f831160018114612ff55760008415612fe3578287015190505b612fed8582612e9f565b865550613055565b601f19841661300386612d19565b60005b8281101561302b57848901518255600182019150602085019450602081019050613006565b868310156130485784890151613044601f891682612e81565b8355505b6001600288020188555050505b505050505050565b60006060820190506130726000830186612811565b61307f6020830185612581565b61308c6040830184612581565b949350505050565b7f496e697469616c697a61626c653a20636f6e747261637420697320616c72656160008201527f647920696e697469616c697a6564000000000000000000000000000000000000602082015250565b60006130f0602e83612144565b91506130fb82613094565b604082019050919050565b6000602082019050818103600083015261311f816130e3565b9050919050565b6000819050919050565b600060ff82169050919050565b600061315861315361314e84613126565b612507565b613130565b9050919050565b6131688161313d565b82525050565b6000602082019050613183600083018461315f565b92915050565b7f4e487b7100000000000000000000000000000000000000000000000000000000600052601160045260246000fd5b60006131c382611d32565b91506131ce83611d32565b92508282039050818111156131e6576131e5613189565b5b92915050565b60006040820190506132016000830185612811565b61320e6020830184612581565b9392505050565b6000819050919050565b600061323a61323561323084613215565b612507565b611d32565b9050919050565b61324a8161321f565b82525050565b60006040820190506132656000830185612811565b6132726020830184613241565b9392505050565b600061328482611d32565b915061328f83611d32565b925082820261329d81611d32565b915082820484148315176132b4576132b3613189565b5b509291505056fea2646970667358221220377d0108c0f10961160e1befb1931516c80198ba7a636e1c763d1134b920d1d364736f6c63430008110033",
  "linkReferences": {},
  "deployedLinkReferences": {}
}