{
  "_format": "hh-sol-artifact-1",
  "contractName": "MBlox",
  "sourceName": "contracts/implementations/MBlox.sol",
  "abi": [
    {
      "inputs": [],
      "name": "InvalidDigitalKey",
      "type": "error"
    },
    {
      "inputs": [],
      "name": "InvalidTokenID",
      "type": "error"
    },
    {
      "inputs": [],
      "name": "NotPositiveValue",
      "type": "error"
    },
    {
      "inputs": [],
      "name": "ZeroAddress",
      "type": "error"
    },
    {
      "anonymous": false,
      "inputs": [
        {
          "indexed": true,
          "internalType": "address",
          "name": "owner",
          "type": "address"
        },
        {
          "indexed": true,
          "internalType": "address",
          "name": "spender",
          "type": "address"
        },
        {
          "indexed": false,
          "internalType": "uint256",
          "name": "value",
          "type": "uint256"
        }
      ],
      "name": "Approval",
      "type": "event"
    },
    {
      "anonymous": false,
      "inputs": [
        {
          "indexed": false,
          "internalType": "uint8",
          "name": "version",
          "type": "uint8"
        }
      ],
      "name": "Initialized",
      "type": "event"
    },
    {
      "anonymous": false,
      "inputs": [
        {
          "indexed": true,
          "internalType": "uint256",
          "name": "amount",
          "type": "uint256"
        },
        {
          "indexed": false,
          "internalType": "address",
          "name": "from",
          "type": "address"
        }
      ],
      "name": "MBloxBurned",
      "type": "event"
    },
    {
      "anonymous": false,
      "inputs": [
        {
          "indexed": true,
          "internalType": "uint256",
          "name": "amount",
          "type": "uint256"
        },
        {
          "indexed": false,
          "internalType": "address",
          "name": "to",
          "type": "address"
        }
      ],
      "name": "MBloxMinted",
      "type": "event"
    },
    {
      "anonymous": false,
      "inputs": [
        {
          "indexed": true,
          "internalType": "bytes32",
          "name": "role",
          "type": "bytes32"
        },
        {
          "indexed": true,
          "internalType": "bytes32",
          "name": "previousAdminRole",
          "type": "bytes32"
        },
        {
          "indexed": true,
          "internalType": "bytes32",
          "name": "newAdminRole",
          "type": "bytes32"
        }
      ],
      "name": "RoleAdminChanged",
      "type": "event"
    },
    {
      "anonymous": false,
      "inputs": [
        {
          "indexed": true,
          "internalType": "bytes32",
          "name": "role",
          "type": "bytes32"
        },
        {
          "indexed": true,
          "internalType": "address",
          "name": "account",
          "type": "address"
        },
        {
          "indexed": true,
          "internalType": "address",
          "name": "sender",
          "type": "address"
        }
      ],
      "name": "RoleGranted",
      "type": "event"
    },
    {
      "anonymous": false,
      "inputs": [
        {
          "indexed": true,
          "internalType": "bytes32",
          "name": "role",
          "type": "bytes32"
        },
        {
          "indexed": true,
          "internalType": "address",
          "name": "account",
          "type": "address"
        },
        {
          "indexed": true,
          "internalType": "address",
          "name": "sender",
          "type": "address"
        }
      ],
      "name": "RoleRevoked",
      "type": "event"
    },
    {
      "anonymous": false,
      "inputs": [
        {
          "indexed": true,
          "internalType": "address",
          "name": "from",
          "type": "address"
        },
        {
          "indexed": true,
          "internalType": "address",
          "name": "to",
          "type": "address"
        },
        {
          "indexed": false,
          "internalType": "uint256",
          "name": "value",
          "type": "uint256"
        }
      ],
      "name": "Transfer",
      "type": "event"
    },
    {
      "inputs": [],
      "name": "BURNER_ROLE",
      "outputs": [
        {
          "internalType": "bytes32",
          "name": "",
          "type": "bytes32"
        }
      ],
      "stateMutability": "view",
      "type": "function"
    },
    {
      "inputs": [],
      "name": "DEFAULT_ADMIN_ROLE",
      "outputs": [
        {
          "internalType": "bytes32",
          "name": "",
          "type": "bytes32"
        }
      ],
      "stateMutability": "view",
      "type": "function"
    },
    {
      "inputs": [],
      "name": "MINTER_ROLE",
      "outputs": [
        {
          "internalType": "bytes32",
          "name": "",
          "type": "bytes32"
        }
      ],
      "stateMutability": "view",
      "type": "function"
    },
    {
      "inputs": [
        {
          "internalType": "address",
          "name": "owner",
          "type": "address"
        },
        {
          "internalType": "address",
          "name": "spender",
          "type": "address"
        }
      ],
      "name": "allowance",
      "outputs": [
        {
          "internalType": "uint256",
          "name": "",
          "type": "uint256"
        }
      ],
      "stateMutability": "view",
      "type": "function"
    },
    {
      "inputs": [
        {
          "internalType": "address",
          "name": "spender",
          "type": "address"
        },
        {
          "internalType": "uint256",
          "name": "amount",
          "type": "uint256"
        }
      ],
      "name": "approve",
      "outputs": [
        {
          "internalType": "bool",
          "name": "",
          "type": "bool"
        }
      ],
      "stateMutability": "nonpayable",
      "type": "function"
    },
    {
      "inputs": [
        {
          "internalType": "address",
          "name": "account",
          "type": "address"
        }
      ],
      "name": "balanceOf",
      "outputs": [
        {
          "internalType": "uint256",
          "name": "",
          "type": "uint256"
        }
      ],
      "stateMutability": "view",
      "type": "function"
    },
    {
      "inputs": [
        {
          "internalType": "uint256",
          "name": "amount",
          "type": "uint256"
        }
      ],
      "name": "burn",
      "outputs": [],
      "stateMutability": "nonpayable",
      "type": "function"
    },
    {
      "inputs": [
        {
          "internalType": "address",
          "name": "account",
          "type": "address"
        },
        {
          "internalType": "uint256",
          "name": "amount",
          "type": "uint256"
        }
      ],
      "name": "burnFrom",
      "outputs": [],
      "stateMutability": "nonpayable",
      "type": "function"
    },
    {
      "inputs": [
        {
          "internalType": "address",
          "name": "from",
          "type": "address"
        },
        {
          "internalType": "uint256",
          "name": "amount",
          "type": "uint256"
        }
      ],
      "name": "burnMBlox",
      "outputs": [],
      "stateMutability": "nonpayable",
      "type": "function"
    },
    {
      "inputs": [],
      "name": "decimals",
      "outputs": [
        {
          "internalType": "uint8",
          "name": "",
          "type": "uint8"
        }
      ],
      "stateMutability": "view",
      "type": "function"
    },
    {
      "inputs": [
        {
          "internalType": "address",
          "name": "spender",
          "type": "address"
        },
        {
          "internalType": "uint256",
          "name": "subtractedValue",
          "type": "uint256"
        }
      ],
      "name": "decreaseAllowance",
      "outputs": [
        {
          "internalType": "bool",
          "name": "",
          "type": "bool"
        }
      ],
      "stateMutability": "nonpayable",
      "type": "function"
    },
    {
      "inputs": [
        {
          "internalType": "bytes32",
          "name": "role",
          "type": "bytes32"
        }
      ],
      "name": "getRoleAdmin",
      "outputs": [
        {
          "internalType": "bytes32",
          "name": "",
          "type": "bytes32"
        }
      ],
      "stateMutability": "view",
      "type": "function"
    },
    {
      "inputs": [
        {
          "internalType": "bytes32",
          "name": "role",
          "type": "bytes32"
        },
        {
          "internalType": "address",
          "name": "account",
          "type": "address"
        }
      ],
      "name": "grantRole",
      "outputs": [],
      "stateMutability": "nonpayable",
      "type": "function"
    },
    {
      "inputs": [
        {
          "internalType": "address",
          "name": "account",
          "type": "address"
        },
        {
          "internalType": "string",
          "name": "digitalKey",
          "type": "string"
        }
      ],
      "name": "grantRoles",
      "outputs": [],
      "stateMutability": "nonpayable",
      "type": "function"
    },
    {
      "inputs": [
        {
          "internalType": "bytes32",
          "name": "role",
          "type": "bytes32"
        },
        {
          "internalType": "address",
          "name": "account",
          "type": "address"
        }
      ],
      "name": "hasRole",
      "outputs": [
        {
          "internalType": "bool",
          "name": "",
          "type": "bool"
        }
      ],
      "stateMutability": "view",
      "type": "function"
    },
    {
      "inputs": [
        {
          "internalType": "address",
          "name": "spender",
          "type": "address"
        },
        {
          "internalType": "uint256",
          "name": "addedValue",
          "type": "uint256"
        }
      ],
      "name": "increaseAllowance",
      "outputs": [
        {
          "internalType": "bool",
          "name": "",
          "type": "bool"
        }
      ],
      "stateMutability": "nonpayable",
      "type": "function"
    },
    {
      "inputs": [
        {
          "internalType": "string",
          "name": "digitalKey",
          "type": "string"
        }
      ],
      "name": "initialize",
      "outputs": [],
      "stateMutability": "nonpayable",
      "type": "function"
    },
    {
      "inputs": [
        {
          "internalType": "address",
          "name": "to",
          "type": "address"
        },
        {
          "internalType": "uint256",
          "name": "amount",
          "type": "uint256"
        }
      ],
      "name": "mintMBlox",
      "outputs": [],
      "stateMutability": "nonpayable",
      "type": "function"
    },
    {
      "inputs": [],
      "name": "name",
      "outputs": [
        {
          "internalType": "string",
          "name": "",
          "type": "string"
        }
      ],
      "stateMutability": "view",
      "type": "function"
    },
    {
      "inputs": [
        {
          "internalType": "bytes32",
          "name": "role",
          "type": "bytes32"
        },
        {
          "internalType": "address",
          "name": "account",
          "type": "address"
        }
      ],
      "name": "renounceRole",
      "outputs": [],
      "stateMutability": "nonpayable",
      "type": "function"
    },
    {
      "inputs": [
        {
          "internalType": "bytes32",
          "name": "role",
          "type": "bytes32"
        },
        {
          "internalType": "address",
          "name": "account",
          "type": "address"
        }
      ],
      "name": "revokeRole",
      "outputs": [],
      "stateMutability": "nonpayable",
      "type": "function"
    },
    {
      "inputs": [
        {
          "internalType": "bytes4",
          "name": "interfaceId",
          "type": "bytes4"
        }
      ],
      "name": "supportsInterface",
      "outputs": [
        {
          "internalType": "bool",
          "name": "",
          "type": "bool"
        }
      ],
      "stateMutability": "view",
      "type": "function"
    },
    {
      "inputs": [],
      "name": "symbol",
      "outputs": [
        {
          "internalType": "string",
          "name": "",
          "type": "string"
        }
      ],
      "stateMutability": "view",
      "type": "function"
    },
    {
      "inputs": [],
      "name": "totalSupply",
      "outputs": [
        {
          "internalType": "uint256",
          "name": "",
          "type": "uint256"
        }
      ],
      "stateMutability": "view",
      "type": "function"
    },
    {
      "inputs": [
        {
          "internalType": "address",
          "name": "to",
          "type": "address"
        },
        {
          "internalType": "uint256",
          "name": "amount",
          "type": "uint256"
        }
      ],
      "name": "transfer",
      "outputs": [
        {
          "internalType": "bool",
          "name": "",
          "type": "bool"
        }
      ],
      "stateMutability": "nonpayable",
      "type": "function"
    },
    {
      "inputs": [
        {
          "internalType": "address",
          "name": "from",
          "type": "address"
        },
        {
          "internalType": "address",
          "name": "to",
          "type": "address"
        },
        {
          "internalType": "uint256",
          "name": "amount",
          "type": "uint256"
        }
      ],
      "name": "transferFrom",
      "outputs": [
        {
          "internalType": "bool",
          "name": "",
          "type": "bool"
        }
      ],
      "stateMutability": "nonpayable",
      "type": "function"
    }
  ],
  "bytecode": "0x608060405234801561001057600080fd5b50613321806100206000396000f3fe608060405234801561001057600080fd5b506004361061018e5760003560e01c8063690faf5b116100de578063a457c2d711610097578063d547741f11610071578063d547741f146104bd578063dd62ed3e146104d9578063ec14210b14610509578063f62d1888146105255761018e565b8063a457c2d71461043f578063a9059cbb1461046f578063d53913931461049f5761018e565b8063690faf5b1461036b57806370a082311461038757806379cc6790146103b757806391d14854146103d357806395d89b4114610403578063a217fddf146104215761018e565b8063248a9ca31161014b578063313ce56711610125578063313ce567146102e557806336568abe14610303578063395093511461031f57806342966c681461034f5761018e565b8063248a9ca31461027b578063282c51f3146102ab5780632f2ff15d146102c95761018e565b806301ffc9a71461019357806306fdde03146101c3578063095ea7b3146101e157806318160ddd146102115780631a952a501461022f57806323b872dd1461024b575b600080fd5b6101ad60048036038101906101a89190611f60565b610541565b6040516101ba9190611fa8565b60405180910390f35b6101cb6105bb565b6040516101d89190612053565b60405180910390f35b6101fb60048036038101906101f69190612109565b61064d565b6040516102089190611fa8565b60405180910390f35b610219610670565b6040516102269190612158565b60405180910390f35b610249600480360381019061024491906122a8565b61067a565b005b61026560048036038101906102609190612304565b61078e565b6040516102729190611fa8565b60405180910390f35b6102956004803603810190610290919061238d565b6107bd565b6040516102a291906123c9565b60405180910390f35b6102b36107dd565b6040516102c091906123c9565b60405180910390f35b6102e360048036038101906102de91906123e4565b610801565b005b6102ed610822565b6040516102fa9190612440565b60405180910390f35b61031d600480360381019061031891906123e4565b61082b565b005b61033960048036038101906103349190612109565b6108ae565b6040516103469190611fa8565b60405180910390f35b6103696004803603810190610364919061245b565b6108e5565b005b61038560048036038101906103809190612109565b6108f9565b005b6103a1600480360381019061039c9190612488565b610a0b565b6040516103ae9190612158565b60405180910390f35b6103d160048036038101906103cc9190612109565b610a54565b005b6103ed60048036038101906103e891906123e4565b610a74565b6040516103fa9190611fa8565b60405180910390f35b61040b610adf565b6040516104189190612053565b60405180910390f35b610429610b71565b60405161043691906123c9565b60405180910390f35b61045960048036038101906104549190612109565b610b78565b6040516104669190611fa8565b60405180910390f35b61048960048036038101906104849190612109565b610bef565b6040516104969190611fa8565b60405180910390f35b6104a7610c12565b6040516104b491906123c9565b60405180910390f35b6104d760048036038101906104d291906123e4565b610c36565b005b6104f360048036038101906104ee91906124b5565b610c57565b6040516105009190612158565b60405180910390f35b610523600480360381019061051e9190612109565b610cde565b005b61053f600480360381019061053a91906124f5565b610df0565b005b60007f7965db0b000000000000000000000000000000000000000000000000000000007bffffffffffffffffffffffffffffffffffffffffffffffffffffffff1916827bffffffffffffffffffffffffffffffffffffffffffffffffffffffff191614806105b457506105b38261101c565b5b9050919050565b6060603680546105ca9061256d565b80601f01602080910402602001604051908101604052809291908181526020018280546105f69061256d565b80156106435780601f1061061857610100808354040283529160200191610643565b820191906000526020600020905b81548152906001019060200180831161062657829003601f168201915b5050505050905090565b600080610658611086565b905061066581858561108e565b600191505092915050565b6000603554905090565b600073ffffffffffffffffffffffffffffffffffffffff168273ffffffffffffffffffffffffffffffffffffffff16036106e0576040517fd92e233d00000000000000000000000000000000000000000000000000000000815260040160405180910390fd5b60fb6040516106ef9190612641565b6040518091039020818051906020012014610736576040517f656335e300000000000000000000000000000000000000000000000000000000815260040160405180910390fd5b6107607f9f2df0fed2c77648de5860a4cc508cd0818c85b8b8a1ab4ceeef8d981c8956a683611257565b61078a7f3c11d16cbaffd01df69ce1c404f6340ee057498f5f00246190ea54220576a84883611257565b5050565b600080610799611086565b90506107a6858285611265565b6107b18585856112f1565b60019150509392505050565b600060c96000838152602001908152602001600020600101549050919050565b7f3c11d16cbaffd01df69ce1c404f6340ee057498f5f00246190ea54220576a84881565b61080a826107bd565b6108138161156a565b61081d838361157e565b505050565b60006012905090565b610833611086565b73ffffffffffffffffffffffffffffffffffffffff168173ffffffffffffffffffffffffffffffffffffffff16146108a0576040517f08c379a0000000000000000000000000000000000000000000000000000000008152600401610897906126ca565b60405180910390fd5b6108aa828261165f565b5050565b6000806108b9611086565b90506108da8185856108cb8589610c57565b6108d59190612719565b61108e565b600191505092915050565b6108f66108f0611086565b82611741565b50565b7f9f2df0fed2c77648de5860a4cc508cd0818c85b8b8a1ab4ceeef8d981c8956a66109238161156a565b600073ffffffffffffffffffffffffffffffffffffffff168373ffffffffffffffffffffffffffffffffffffffff1603610989576040517fd92e233d00000000000000000000000000000000000000000000000000000000815260040160405180910390fd5b60018210156109c4576040517f2258a01b00000000000000000000000000000000000000000000000000000000815260040160405180910390fd5b6109ce8383611910565b817f74bc41c8c90c2bfabc17022a2cabc7101fd5cae91514cead64171fb205e9a3f9846040516109fe919061275c565b60405180910390a2505050565b6000603360008373ffffffffffffffffffffffffffffffffffffffff1673ffffffffffffffffffffffffffffffffffffffff168152602001908152602001600020549050919050565b610a6682610a60611086565b83611265565b610a708282611741565b5050565b600060c9600084815260200190815260200160002060000160008373ffffffffffffffffffffffffffffffffffffffff1673ffffffffffffffffffffffffffffffffffffffff16815260200190815260200160002060009054906101000a900460ff16905092915050565b606060378054610aee9061256d565b80601f0160208091040260200160405190810160405280929190818152602001828054610b1a9061256d565b8015610b675780601f10610b3c57610100808354040283529160200191610b67565b820191906000526020600020905b815481529060010190602001808311610b4a57829003601f168201915b5050505050905090565b6000801b81565b600080610b83611086565b90506000610b918286610c57565b905083811015610bd6576040517f08c379a0000000000000000000000000000000000000000000000000000000008152600401610bcd906127e9565b60405180910390fd5b610be3828686840361108e565b60019250505092915050565b600080610bfa611086565b9050610c078185856112f1565b600191505092915050565b7f9f2df0fed2c77648de5860a4cc508cd0818c85b8b8a1ab4ceeef8d981c8956a681565b610c3f826107bd565b610c488161156a565b610c52838361165f565b505050565b6000603460008473ffffffffffffffffffffffffffffffffffffffff1673ffffffffffffffffffffffffffffffffffffffff16815260200190815260200160002060008373ffffffffffffffffffffffffffffffffffffffff1673ffffffffffffffffffffffffffffffffffffffff16815260200190815260200160002054905092915050565b7f3c11d16cbaffd01df69ce1c404f6340ee057498f5f00246190ea54220576a848610d088161156a565b600073ffffffffffffffffffffffffffffffffffffffff168373ffffffffffffffffffffffffffffffffffffffff1603610d6e576040517fd92e233d00000000000000000000000000000000000000000000000000000000815260040160405180910390fd5b6001821015610da9576040517f2258a01b00000000000000000000000000000000000000000000000000000000815260040160405180910390fd5b610db38383611741565b817f200760f4e36dc8b2c508ba1ea85d38febfa8c9915b2a94f8102c3a7a8ce8905f84604051610de3919061275c565b60405180910390a2505050565b60008060019054906101000a900460ff16159050808015610e215750600160008054906101000a900460ff1660ff16105b80610e4e5750610e3030611a67565b158015610e4d5750600160008054906101000a900460ff1660ff16145b5b610e8d576040517f08c379a0000000000000000000000000000000000000000000000000000000008152600401610e849061287b565b60405180910390fd5b60016000806101000a81548160ff021916908360ff1602179055508015610eca576001600060016101000a81548160ff0219169083151502179055505b8160fb9081610ed99190612a47565b50610f4e6040518060400160405280600581526020017f4d426c6f780000000000000000000000000000000000000000000000000000008152506040518060400160405280600581526020017f4d424c4f58000000000000000000000000000000000000000000000000000000815250611a8a565b610f56611ae7565b610f5e611b38565b610f6b6000801b33611257565b610f957f9f2df0fed2c77648de5860a4cc508cd0818c85b8b8a1ab4ceeef8d981c8956a633611257565b610fbf7f3c11d16cbaffd01df69ce1c404f6340ee057498f5f00246190ea54220576a84833611257565b80156110185760008060016101000a81548160ff0219169083151502179055507f7f26b83ff96e1f2b6a682f133852f6798a09c465da95921460cefb3847402498600160405161100f9190612b54565b60405180910390a15b5050565b60007f01ffc9a7000000000000000000000000000000000000000000000000000000007bffffffffffffffffffffffffffffffffffffffffffffffffffffffff1916827bffffffffffffffffffffffffffffffffffffffffffffffffffffffff1916149050919050565b600033905090565b600073ffffffffffffffffffffffffffffffffffffffff168373ffffffffffffffffffffffffffffffffffffffff16036110fd576040517f08c379a00000000000000000000000000000000000000000000000000000000081526004016110f490612be1565b60405180910390fd5b600073ffffffffffffffffffffffffffffffffffffffff168273ffffffffffffffffffffffffffffffffffffffff160361116c576040517f08c379a000000000000000000000000000000000000000000000000000000000815260040161116390612c73565b60405180910390fd5b80603460008573ffffffffffffffffffffffffffffffffffffffff1673ffffffffffffffffffffffffffffffffffffffff16815260200190815260200160002060008473ffffffffffffffffffffffffffffffffffffffff1673ffffffffffffffffffffffffffffffffffffffff168152602001908152602001600020819055508173ffffffffffffffffffffffffffffffffffffffff168373ffffffffffffffffffffffffffffffffffffffff167f8c5be1e5ebec7d5bd14f71427d1e84f3dd0314c0f7b2291e5b200ac8c7c3b9258360405161124a9190612158565b60405180910390a3505050565b611261828261157e565b5050565b60006112718484610c57565b90507fffffffffffffffffffffffffffffffffffffffffffffffffffffffffffffffff81146112eb57818110156112dd576040517f08c379a00000000000000000000000000000000000000000000000000000000081526004016112d490612cdf565b60405180910390fd5b6112ea848484840361108e565b5b50505050565b600073ffffffffffffffffffffffffffffffffffffffff168373ffffffffffffffffffffffffffffffffffffffff1603611360576040517f08c379a000000000000000000000000000000000000000000000000000000000815260040161135790612d71565b60405180910390fd5b600073ffffffffffffffffffffffffffffffffffffffff168273ffffffffffffffffffffffffffffffffffffffff16036113cf576040517f08c379a00000000000000000000000000000000000000000000000000000000081526004016113c690612e03565b60405180910390fd5b6113da838383611b89565b6000603360008573ffffffffffffffffffffffffffffffffffffffff1673ffffffffffffffffffffffffffffffffffffffff16815260200190815260200160002054905081811015611461576040517f08c379a000000000000000000000000000000000000000000000000000000000815260040161145890612e95565b60405180910390fd5b818103603360008673ffffffffffffffffffffffffffffffffffffffff1673ffffffffffffffffffffffffffffffffffffffff1681526020019081526020016000208190555081603360008573ffffffffffffffffffffffffffffffffffffffff1673ffffffffffffffffffffffffffffffffffffffff168152602001908152602001600020600082825401925050819055508273ffffffffffffffffffffffffffffffffffffffff168473ffffffffffffffffffffffffffffffffffffffff167fddf252ad1be2c89b69c2b068fc378daa952ba7f163c4a11628f55a4df523b3ef846040516115519190612158565b60405180910390a3611564848484611b8e565b50505050565b61157b81611576611086565b611b93565b50565b6115888282610a74565b61165b57600160c9600084815260200190815260200160002060000160008373ffffffffffffffffffffffffffffffffffffffff1673ffffffffffffffffffffffffffffffffffffffff16815260200190815260200160002060006101000a81548160ff021916908315150217905550611600611086565b73ffffffffffffffffffffffffffffffffffffffff168173ffffffffffffffffffffffffffffffffffffffff16837f2f8788117e7eff1d82e926ec794901d17c78024a50270940304540a733656f0d60405160405180910390a45b5050565b6116698282610a74565b1561173d57600060c9600084815260200190815260200160002060000160008373ffffffffffffffffffffffffffffffffffffffff1673ffffffffffffffffffffffffffffffffffffffff16815260200190815260200160002060006101000a81548160ff0219169083151502179055506116e2611086565b73ffffffffffffffffffffffffffffffffffffffff168173ffffffffffffffffffffffffffffffffffffffff16837ff6391f5c32d9c69d2a47ea670b442974b53935d1edc7fd64eb21e047a839171b60405160405180910390a45b5050565b600073ffffffffffffffffffffffffffffffffffffffff168273ffffffffffffffffffffffffffffffffffffffff16036117b0576040517f08c379a00000000000000000000000000000000000000000000000000000000081526004016117a790612f27565b60405180910390fd5b6117bc82600083611b89565b6000603360008473ffffffffffffffffffffffffffffffffffffffff1673ffffffffffffffffffffffffffffffffffffffff16815260200190815260200160002054905081811015611843576040517f08c379a000000000000000000000000000000000000000000000000000000000815260040161183a90612fb9565b60405180910390fd5b818103603360008573ffffffffffffffffffffffffffffffffffffffff1673ffffffffffffffffffffffffffffffffffffffff1681526020019081526020016000208190555081603560008282540392505081905550600073ffffffffffffffffffffffffffffffffffffffff168373ffffffffffffffffffffffffffffffffffffffff167fddf252ad1be2c89b69c2b068fc378daa952ba7f163c4a11628f55a4df523b3ef846040516118f79190612158565b60405180910390a361190b83600084611b8e565b505050565b600073ffffffffffffffffffffffffffffffffffffffff168273ffffffffffffffffffffffffffffffffffffffff160361197f576040517f08c379a000000000000000000000000000000000000000000000000000000000815260040161197690613025565b60405180910390fd5b61198b60008383611b89565b806035600082825461199d9190612719565b9250508190555080603360008473ffffffffffffffffffffffffffffffffffffffff1673ffffffffffffffffffffffffffffffffffffffff168152602001908152602001600020600082825401925050819055508173ffffffffffffffffffffffffffffffffffffffff16600073ffffffffffffffffffffffffffffffffffffffff167fddf252ad1be2c89b69c2b068fc378daa952ba7f163c4a11628f55a4df523b3ef83604051611a4f9190612158565b60405180910390a3611a6360008383611b8e565b5050565b6000808273ffffffffffffffffffffffffffffffffffffffff163b119050919050565b600060019054906101000a900460ff16611ad9576040517f08c379a0000000000000000000000000000000000000000000000000000000008152600401611ad0906130b7565b60405180910390fd5b611ae38282611c18565b5050565b600060019054906101000a900460ff16611b36576040517f08c379a0000000000000000000000000000000000000000000000000000000008152600401611b2d906130b7565b60405180910390fd5b565b600060019054906101000a900460ff16611b87576040517f08c379a0000000000000000000000000000000000000000000000000000000008152600401611b7e906130b7565b60405180910390fd5b565b505050565b505050565b611b9d8282610a74565b611c1457611baa81611c8b565b611bb88360001c6020611cb8565b604051602001611bc99291906131ab565b6040516020818303038152906040526040517f08c379a0000000000000000000000000000000000000000000000000000000008152600401611c0b9190612053565b60405180910390fd5b5050565b600060019054906101000a900460ff16611c67576040517f08c379a0000000000000000000000000000000000000000000000000000000008152600401611c5e906130b7565b60405180910390fd5b8160369081611c769190612a47565b508060379081611c869190612a47565b505050565b6060611cb18273ffffffffffffffffffffffffffffffffffffffff16601460ff16611cb8565b9050919050565b606060006002836002611ccb91906131e5565b611cd59190612719565b67ffffffffffffffff811115611cee57611ced61217d565b5b6040519080825280601f01601f191660200182016040528015611d205781602001600182028036833780820191505090505b5090507f300000000000000000000000000000000000000000000000000000000000000081600081518110611d5857611d57613227565b5b60200101907effffffffffffffffffffffffffffffffffffffffffffffffffffffffffffff1916908160001a9053507f780000000000000000000000000000000000000000000000000000000000000081600181518110611dbc57611dbb613227565b5b60200101907effffffffffffffffffffffffffffffffffffffffffffffffffffffffffffff1916908160001a90535060006001846002611dfc91906131e5565b611e069190612719565b90505b6001811115611ea6577f3031323334353637383961626364656600000000000000000000000000000000600f861660108110611e4857611e47613227565b5b1a60f81b828281518110611e5f57611e5e613227565b5b60200101907effffffffffffffffffffffffffffffffffffffffffffffffffffffffffffff1916908160001a905350600485901c945080611e9f90613256565b9050611e09565b5060008414611eea576040517f08c379a0000000000000000000000000000000000000000000000000000000008152600401611ee1906132cb565b60405180910390fd5b8091505092915050565b6000604051905090565b600080fd5b600080fd5b60007fffffffff0000000000000000000000000000000000000000000000000000000082169050919050565b611f3d81611f08565b8114611f4857600080fd5b50565b600081359050611f5a81611f34565b92915050565b600060208284031215611f7657611f75611efe565b5b6000611f8484828501611f4b565b91505092915050565b60008115159050919050565b611fa281611f8d565b82525050565b6000602082019050611fbd6000830184611f99565b92915050565b600081519050919050565b600082825260208201905092915050565b60005b83811015611ffd578082015181840152602081019050611fe2565b60008484015250505050565b6000601f19601f8301169050919050565b600061202582611fc3565b61202f8185611fce565b935061203f818560208601611fdf565b61204881612009565b840191505092915050565b6000602082019050818103600083015261206d818461201a565b905092915050565b600073ffffffffffffffffffffffffffffffffffffffff82169050919050565b60006120a082612075565b9050919050565b6120b081612095565b81146120bb57600080fd5b50565b6000813590506120cd816120a7565b92915050565b6000819050919050565b6120e6816120d3565b81146120f157600080fd5b50565b600081359050612103816120dd565b92915050565b600080604083850312156121205761211f611efe565b5b600061212e858286016120be565b925050602061213f858286016120f4565b9150509250929050565b612152816120d3565b82525050565b600060208201905061216d6000830184612149565b92915050565b600080fd5b600080fd5b7f4e487b7100000000000000000000000000000000000000000000000000000000600052604160045260246000fd5b6121b582612009565b810181811067ffffffffffffffff821117156121d4576121d361217d565b5b80604052505050565b60006121e7611ef4565b90506121f382826121ac565b919050565b600067ffffffffffffffff8211156122135761221261217d565b5b61221c82612009565b9050602081019050919050565b82818337600083830152505050565b600061224b612246846121f8565b6121dd565b90508281526020810184848401111561226757612266612178565b5b612272848285612229565b509392505050565b600082601f83011261228f5761228e612173565b5b813561229f848260208601612238565b91505092915050565b600080604083850312156122bf576122be611efe565b5b60006122cd858286016120be565b925050602083013567ffffffffffffffff8111156122ee576122ed611f03565b5b6122fa8582860161227a565b9150509250929050565b60008060006060848603121561231d5761231c611efe565b5b600061232b868287016120be565b935050602061233c868287016120be565b925050604061234d868287016120f4565b9150509250925092565b6000819050919050565b61236a81612357565b811461237557600080fd5b50565b60008135905061238781612361565b92915050565b6000602082840312156123a3576123a2611efe565b5b60006123b184828501612378565b91505092915050565b6123c381612357565b82525050565b60006020820190506123de60008301846123ba565b92915050565b600080604083850312156123fb576123fa611efe565b5b600061240985828601612378565b925050602061241a858286016120be565b9150509250929050565b600060ff82169050919050565b61243a81612424565b82525050565b60006020820190506124556000830184612431565b92915050565b60006020828403121561247157612470611efe565b5b600061247f848285016120f4565b91505092915050565b60006020828403121561249e5761249d611efe565b5b60006124ac848285016120be565b91505092915050565b600080604083850312156124cc576124cb611efe565b5b60006124da858286016120be565b92505060206124eb858286016120be565b9150509250929050565b60006020828403121561250b5761250a611efe565b5b600082013567ffffffffffffffff81111561252957612528611f03565b5b6125358482850161227a565b91505092915050565b7f4e487b7100000000000000000000000000000000000000000000000000000000600052602260045260246000fd5b6000600282049050600182168061258557607f821691505b6020821081036125985761259761253e565b5b50919050565b600081905092915050565b60008190508160005260206000209050919050565b600081546125cb8161256d565b6125d5818661259e565b945060018216600081146125f0576001811461260557612638565b60ff1983168652811515820286019350612638565b61260e856125a9565b60005b8381101561263057815481890152600182019150602081019050612611565b838801955050505b50505092915050565b600061264d82846125be565b915081905092915050565b7f416363657373436f6e74726f6c3a2063616e206f6e6c792072656e6f756e636560008201527f20726f6c657320666f722073656c660000000000000000000000000000000000602082015250565b60006126b4602f83611fce565b91506126bf82612658565b604082019050919050565b600060208201905081810360008301526126e3816126a7565b9050919050565b7f4e487b7100000000000000000000000000000000000000000000000000000000600052601160045260246000fd5b6000612724826120d3565b915061272f836120d3565b9250828201905080821115612747576127466126ea565b5b92915050565b61275681612095565b82525050565b6000602082019050612771600083018461274d565b92915050565b7f45524332303a2064656372656173656420616c6c6f77616e63652062656c6f7760008201527f207a65726f000000000000000000000000000000000000000000000000000000602082015250565b60006127d3602583611fce565b91506127de82612777565b604082019050919050565b60006020820190508181036000830152612802816127c6565b9050919050565b7f496e697469616c697a61626c653a20636f6e747261637420697320616c72656160008201527f647920696e697469616c697a6564000000000000000000000000000000000000602082015250565b6000612865602e83611fce565b915061287082612809565b604082019050919050565b6000602082019050818103600083015261289481612858565b9050919050565b60008190508160005260206000209050919050565b60006020601f8301049050919050565b600082821b905092915050565b6000600883026128fd7fffffffffffffffffffffffffffffffffffffffffffffffffffffffffffffffff826128c0565b61290786836128c0565b95508019841693508086168417925050509392505050565b6000819050919050565b600061294461293f61293a846120d3565b61291f565b6120d3565b9050919050565b6000819050919050565b61295e83612929565b61297261296a8261294b565b8484546128cd565b825550505050565b600090565b61298761297a565b612992818484612955565b505050565b5b818110156129b6576129ab60008261297f565b600181019050612998565b5050565b601f8211156129fb576129cc8161289b565b6129d5846128b0565b810160208510156129e4578190505b6129f86129f0856128b0565b830182612997565b50505b505050565b600082821c905092915050565b6000612a1e60001984600802612a00565b1980831691505092915050565b6000612a378383612a0d565b9150826002028217905092915050565b612a5082611fc3565b67ffffffffffffffff811115612a6957612a6861217d565b5b612a73825461256d565b612a7e8282856129ba565b600060209050601f831160018114612ab15760008415612a9f578287015190505b612aa98582612a2b565b865550612b11565b601f198416612abf8661289b565b60005b82811015612ae757848901518255600182019150602085019450602081019050612ac2565b86831015612b045784890151612b00601f891682612a0d565b8355505b6001600288020188555050505b505050505050565b6000819050919050565b6000612b3e612b39612b3484612b19565b61291f565b612424565b9050919050565b612b4e81612b23565b82525050565b6000602082019050612b696000830184612b45565b92915050565b7f45524332303a20617070726f76652066726f6d20746865207a65726f2061646460008201527f7265737300000000000000000000000000000000000000000000000000000000602082015250565b6000612bcb602483611fce565b9150612bd682612b6f565b604082019050919050565b60006020820190508181036000830152612bfa81612bbe565b9050919050565b7f45524332303a20617070726f766520746f20746865207a65726f20616464726560008201527f7373000000000000000000000000000000000000000000000000000000000000602082015250565b6000612c5d602283611fce565b9150612c6882612c01565b604082019050919050565b60006020820190508181036000830152612c8c81612c50565b9050919050565b7f45524332303a20696e73756666696369656e7420616c6c6f77616e6365000000600082015250565b6000612cc9601d83611fce565b9150612cd482612c93565b602082019050919050565b60006020820190508181036000830152612cf881612cbc565b9050919050565b7f45524332303a207472616e736665722066726f6d20746865207a65726f20616460008201527f6472657373000000000000000000000000000000000000000000000000000000602082015250565b6000612d5b602583611fce565b9150612d6682612cff565b604082019050919050565b60006020820190508181036000830152612d8a81612d4e565b9050919050565b7f45524332303a207472616e7366657220746f20746865207a65726f206164647260008201527f6573730000000000000000000000000000000000000000000000000000000000602082015250565b6000612ded602383611fce565b9150612df882612d91565b604082019050919050565b60006020820190508181036000830152612e1c81612de0565b9050919050565b7f45524332303a207472616e7366657220616d6f756e742065786365656473206260008201527f616c616e63650000000000000000000000000000000000000000000000000000602082015250565b6000612e7f602683611fce565b9150612e8a82612e23565b604082019050919050565b60006020820190508181036000830152612eae81612e72565b9050919050565b7f45524332303a206275726e2066726f6d20746865207a65726f2061646472657360008201527f7300000000000000000000000000000000000000000000000000000000000000602082015250565b6000612f11602183611fce565b9150612f1c82612eb5565b604082019050919050565b60006020820190508181036000830152612f4081612f04565b9050919050565b7f45524332303a206275726e20616d6f756e7420657863656564732062616c616e60008201527f6365000000000000000000000000000000000000000000000000000000000000602082015250565b6000612fa3602283611fce565b9150612fae82612f47565b604082019050919050565b60006020820190508181036000830152612fd281612f96565b9050919050565b7f45524332303a206d696e7420746f20746865207a65726f206164647265737300600082015250565b600061300f601f83611fce565b915061301a82612fd9565b602082019050919050565b6000602082019050818103600083015261303e81613002565b9050919050565b7f496e697469616c697a61626c653a20636f6e7472616374206973206e6f74206960008201527f6e697469616c697a696e67000000000000000000000000000000000000000000602082015250565b60006130a1602b83611fce565b91506130ac82613045565b604082019050919050565b600060208201905081810360008301526130d081613094565b9050919050565b600081905092915050565b7f416363657373436f6e74726f6c3a206163636f756e7420000000000000000000600082015250565b60006131186017836130d7565b9150613123826130e2565b601782019050919050565b600061313982611fc3565b61314381856130d7565b9350613153818560208601611fdf565b80840191505092915050565b7f206973206d697373696e6720726f6c6520000000000000000000000000000000600082015250565b60006131956011836130d7565b91506131a08261315f565b601182019050919050565b60006131b68261310b565b91506131c2828561312e565b91506131cd82613188565b91506131d9828461312e565b91508190509392505050565b60006131f0826120d3565b91506131fb836120d3565b9250828202613209816120d3565b915082820484148315176132205761321f6126ea565b5b5092915050565b7f4e487b7100000000000000000000000000000000000000000000000000000000600052603260045260246000fd5b6000613261826120d3565b915060008203613274576132736126ea565b5b600182039050919050565b7f537472696e67733a20686578206c656e67746820696e73756666696369656e74600082015250565b60006132b5602083611fce565b91506132c08261327f565b602082019050919050565b600060208201905081810360008301526132e4816132a8565b905091905056fea264697066735822122076a79536a043269f5cb461481d9166b3887aeb94cdf15a4e39c5166c29c4c2ea64736f6c63430008110033",
  "linkReferences": {},
  "deployedLinkReferences": {}
}