{
  "_format": "hh-sol-artifact-1",
  "contractName": "GameManager",
  "sourceName": "contracts/implementations/GameManager.sol",
  "abi": [
    {
      "inputs": [],
      "name": "InadequateMATIC",
      "type": "error"
    },
    {
      "inputs": [],
      "name": "InadequateMBLOX",
      "type": "error"
    },
    {
      "inputs": [],
      "name": "InvalidDigitalKey",
      "type": "error"
    },
    {
      "inputs": [],
      "name": "InvalidSignature",
      "type": "error"
    },
    {
      "inputs": [],
      "name": "InvalidTokenID",
      "type": "error"
    },
    {
      "inputs": [],
      "name": "NoMETRToClaim",
      "type": "error"
    },
    {
      "inputs": [],
      "name": "NotPositiveValue",
      "type": "error"
    },
    {
      "inputs": [],
      "name": "ZeroAddress",
      "type": "error"
    },
    {
      "anonymous": false,
      "inputs": [
        {
          "indexed": false,
          "internalType": "address",
          "name": "to",
          "type": "address"
        },
        {
          "indexed": false,
          "internalType": "uint256",
          "name": "id",
          "type": "uint256"
        },
        {
          "indexed": false,
          "internalType": "uint256",
          "name": "amount",
          "type": "uint256"
        }
      ],
      "name": "BlocksPurchased",
      "type": "event"
    },
    {
      "anonymous": false,
      "inputs": [
        {
          "indexed": false,
          "internalType": "uint8",
          "name": "version",
          "type": "uint8"
        }
      ],
      "name": "Initialized",
      "type": "event"
    },
    {
      "anonymous": false,
      "inputs": [
        {
          "indexed": false,
          "internalType": "address",
          "name": "to",
          "type": "address"
        },
        {
          "indexed": false,
          "internalType": "uint256",
          "name": "amount",
          "type": "uint256"
        }
      ],
      "name": "MBLOXPurchased",
      "type": "event"
    },
    {
      "anonymous": false,
      "inputs": [
        {
          "indexed": false,
          "internalType": "address",
          "name": "to",
          "type": "address"
        },
        {
          "indexed": false,
          "internalType": "uint256",
          "name": "amount",
          "type": "uint256"
        }
      ],
      "name": "METRBalanceClaimed",
      "type": "event"
    },
    {
      "anonymous": false,
      "inputs": [
        {
          "indexed": false,
          "internalType": "uint256",
          "name": "amount",
          "type": "uint256"
        }
      ],
      "name": "PaymentDistributed",
      "type": "event"
    },
    {
      "anonymous": false,
      "inputs": [
        {
          "indexed": false,
          "internalType": "address",
          "name": "player",
          "type": "address"
        },
        {
          "indexed": false,
          "internalType": "uint256",
          "name": "id",
          "type": "uint256"
        },
        {
          "indexed": false,
          "internalType": "uint256",
          "name": "prevAmount",
          "type": "uint256"
        },
        {
          "indexed": false,
          "internalType": "uint256",
          "name": "newAmount",
          "type": "uint256"
        }
      ],
      "name": "UpdatedBlockBalance",
      "type": "event"
    },
    {
      "anonymous": false,
      "inputs": [
        {
          "indexed": false,
          "internalType": "address",
          "name": "to",
          "type": "address"
        },
        {
          "indexed": false,
          "internalType": "uint256",
          "name": "x",
          "type": "uint256"
        },
        {
          "indexed": false,
          "internalType": "uint256",
          "name": "y",
          "type": "uint256"
        }
      ],
      "name": "WorldPurchased",
      "type": "event"
    },
    {
      "inputs": [],
      "name": "_metrContract",
      "outputs": [
        {
          "internalType": "contract ERC20",
          "name": "",
          "type": "address"
        }
      ],
      "stateMutability": "view",
      "type": "function"
    },
    {
      "inputs": [
        {
          "internalType": "address",
          "name": "claimant",
          "type": "address"
        },
        {
          "internalType": "string",
          "name": "dateTime",
          "type": "string"
        },
        {
          "internalType": "bytes",
          "name": "signature",
          "type": "bytes"
        }
      ],
      "name": "claimMETRBalance",
      "outputs": [],
      "stateMutability": "nonpayable",
      "type": "function"
    },
    {
      "inputs": [
        {
          "internalType": "address",
          "name": "receiver",
          "type": "address"
        },
        {
          "internalType": "string",
          "name": "dateTime",
          "type": "string"
        },
        {
          "internalType": "bytes",
          "name": "signature",
          "type": "bytes"
        }
      ],
      "name": "convertMATICtoMBLOX",
      "outputs": [],
      "stateMutability": "payable",
      "type": "function"
    },
    {
      "inputs": [],
      "name": "getGridData",
      "outputs": [
        {
          "components": [
            {
              "internalType": "uint256",
              "name": "id",
              "type": "uint256"
            },
            {
              "internalType": "string",
              "name": "colour",
              "type": "string"
            },
            {
              "internalType": "uint256",
              "name": "x",
              "type": "uint256"
            },
            {
              "internalType": "uint256",
              "name": "y",
              "type": "uint256"
            }
          ],
          "internalType": "struct IGameManager.GridData[]",
          "name": "",
          "type": "tuple[]"
        }
      ],
      "stateMutability": "view",
      "type": "function"
    },
    {
      "inputs": [
        {
          "internalType": "address",
          "name": "player",
          "type": "address"
        }
      ],
      "name": "getPlayerColour",
      "outputs": [
        {
          "internalType": "string",
          "name": "",
          "type": "string"
        }
      ],
      "stateMutability": "view",
      "type": "function"
    },
    {
      "inputs": [
        {
          "internalType": "address",
          "name": "player",
          "type": "address"
        }
      ],
      "name": "getPlayerMETRBalance",
      "outputs": [
        {
          "internalType": "uint256",
          "name": "",
          "type": "uint256"
        }
      ],
      "stateMutability": "view",
      "type": "function"
    },
    {
      "inputs": [],
      "name": "getUsedColours",
      "outputs": [
        {
          "internalType": "string[]",
          "name": "",
          "type": "string[]"
        }
      ],
      "stateMutability": "view",
      "type": "function"
    },
    {
      "inputs": [
        {
          "internalType": "address",
          "name": "gameWallet",
          "type": "address"
        },
        {
          "internalType": "address",
          "name": "metrContract",
          "type": "address"
        },
        {
          "internalType": "address",
          "name": "mbloxAddress",
          "type": "address"
        },
        {
          "internalType": "address",
          "name": "metaBloxAddress",
          "type": "address"
        },
        {
          "internalType": "address",
          "name": "worldAddress",
          "type": "address"
        },
        {
          "internalType": "address",
          "name": "recipient",
          "type": "address"
        }
      ],
      "name": "initialize",
      "outputs": [],
      "stateMutability": "nonpayable",
      "type": "function"
    },
    {
      "inputs": [
        {
          "internalType": "uint256",
          "name": "id",
          "type": "uint256"
        },
        {
          "internalType": "uint256",
          "name": "amount",
          "type": "uint256"
        },
        {
          "internalType": "address",
          "name": "purchaser",
          "type": "address"
        },
        {
          "internalType": "string",
          "name": "dateTime",
          "type": "string"
        },
        {
          "internalType": "bytes",
          "name": "signature",
          "type": "bytes"
        }
      ],
      "name": "purchaseBlocks",
      "outputs": [],
      "stateMutability": "nonpayable",
      "type": "function"
    },
    {
      "inputs": [
        {
          "components": [
            {
              "components": [
                {
                  "internalType": "address",
                  "name": "owner",
                  "type": "address"
                },
                {
                  "components": [
                    {
                      "internalType": "uint256",
                      "name": "x",
                      "type": "uint256"
                    },
                    {
                      "internalType": "uint256",
                      "name": "y",
                      "type": "uint256"
                    }
                  ],
                  "internalType": "struct IUtilities.Coordinates",
                  "name": "coords",
                  "type": "tuple"
                }
              ],
              "internalType": "struct IUtilities.WorldGridData",
              "name": "worldGridData",
              "type": "tuple"
            },
            {
              "components": [
                {
                  "internalType": "uint256",
                  "name": "blockTotal",
                  "type": "uint256"
                },
                {
                  "internalType": "string",
                  "name": "worldLayout",
                  "type": "string"
                }
              ],
              "internalType": "struct IUtilities.WorldBlockDetails",
              "name": "worldBlockDetails",
              "type": "tuple"
            },
            {
              "internalType": "string",
              "name": "colour",
              "type": "string"
            },
            {
              "internalType": "uint256",
              "name": "id",
              "type": "uint256"
            },
            {
              "internalType": "string",
              "name": "tokenURI",
              "type": "string"
            }
          ],
          "internalType": "struct IUtilities.WorldMetadata",
          "name": "worldData",
          "type": "tuple"
        },
        {
          "internalType": "address",
          "name": "purchaser",
          "type": "address"
        },
        {
          "internalType": "string",
          "name": "dateTime",
          "type": "string"
        },
        {
          "internalType": "bytes",
          "name": "signature",
          "type": "bytes"
        }
      ],
      "name": "purchaseWorld",
      "outputs": [],
      "stateMutability": "nonpayable",
      "type": "function"
    },
    {
      "inputs": [
        {
          "internalType": "address",
          "name": "player",
          "type": "address"
        },
        {
          "internalType": "uint256",
          "name": "worldID",
          "type": "uint256"
        },
        {
          "components": [
            {
              "internalType": "uint256",
              "name": "blockTotal",
              "type": "uint256"
            },
            {
              "internalType": "string",
              "name": "worldLayout",
              "type": "string"
            }
          ],
          "internalType": "struct IUtilities.WorldBlockDetails",
          "name": "worldBlockDetails",
          "type": "tuple"
        },
        {
          "components": [
            {
              "internalType": "uint256[]",
              "name": "increaseIds",
              "type": "uint256[]"
            },
            {
              "internalType": "uint256[]",
              "name": "increases",
              "type": "uint256[]"
            },
            {
              "internalType": "uint256[]",
              "name": "decreaseIds",
              "type": "uint256[]"
            },
            {
              "internalType": "uint256[]",
              "name": "decreases",
              "type": "uint256[]"
            }
          ],
          "internalType": "struct IGameManager.BlockUpdates",
          "name": "blockUpdates",
          "type": "tuple"
        },
        {
          "internalType": "string",
          "name": "dateTime",
          "type": "string"
        },
        {
          "internalType": "bytes",
          "name": "signature",
          "type": "bytes"
        }
      ],
      "name": "saveWorldChanges",
      "outputs": [],
      "stateMutability": "nonpayable",
      "type": "function"
    }
  ],
  "bytecode": "0x608060405234801561001057600080fd5b5061399f806100206000396000f3fe60806040526004361061009c5760003560e01c80636e1f5024116100645780636e1f50241461017757806371ec9836146101a0578063892cd054146101cb5780639f68bbd4146101f4578063b564b7331461021f578063cc2a9a5b1461025c5761009c565b806304ffa128146100a15780630cbd6386146100ca57806340942b5f146100f35780635f32693e146101305780636393942e1461015b575b600080fd5b3480156100ad57600080fd5b506100c860048036038101906100c39190612000565b610285565b005b3480156100d657600080fd5b506100f160048036038101906100ec91906120d7565b6105b1565b005b3480156100ff57600080fd5b5061011a60048036038101906101159190612192565b610ad4565b604051610127919061223e565b60405180910390f35b34801561013c57600080fd5b50610145610ba8565b604051610152919061236c565b60405180910390f35b6101756004803603810190610170919061238e565b610c81565b005b34801561018357600080fd5b5061019e6004803603810190610199919061238e565b610ed9565b005b3480156101ac57600080fd5b506101b56111bb565b6040516101c2919061254d565b60405180910390f35b3480156101d757600080fd5b506101f260048036038101906101ed9190612795565b6112ca565b005b34801561020057600080fd5b506102096114e8565b60405161021691906128f1565b60405180910390f35b34801561022b57600080fd5b5061024660048036038101906102419190612192565b61150e565b604051610253919061291b565b60405180910390f35b34801561026857600080fd5b50610283600480360381019061027e9190612936565b61155a565b005b600073ffffffffffffffffffffffffffffffffffffffff168373ffffffffffffffffffffffffffffffffffffffff16036102eb576040517fd92e233d00000000000000000000000000000000000000000000000000000000815260040160405180910390fd5b6001841015610326576040517f2258a01b00000000000000000000000000000000000000000000000000000000815260040160405180910390fd5b60008585858560405160200161033f9493929190612a27565b604051602081830303815290604052905061035a8282611a1a565b600061036587611b4e565b9050600086826103759190612aa2565b9050600160009054906101000a900473ffffffffffffffffffffffffffffffffffffffff1673ffffffffffffffffffffffffffffffffffffffff166370a08231876040518263ffffffff1660e01b81526004016103d29190612ae4565b602060405180830381865afa1580156103ef573d6000803e3d6000fd5b505050506040513d601f19601f820116820180604052508101906104139190612b14565b81111561044c576040517f871cfff500000000000000000000000000000000000000000000000000000000815260040160405180910390fd5b600160009054906101000a900473ffffffffffffffffffffffffffffffffffffffff1673ffffffffffffffffffffffffffffffffffffffff1663ec14210b87836040518363ffffffff1660e01b81526004016104a9929190612b41565b600060405180830381600087803b1580156104c357600080fd5b505af11580156104d7573d6000803e3d6000fd5b50505050600260009054906101000a900473ffffffffffffffffffffffffffffffffffffffff1673ffffffffffffffffffffffffffffffffffffffff166301b79159878a8a6040518463ffffffff1660e01b815260040161053a93929190612b6a565b600060405180830381600087803b15801561055457600080fd5b505af1158015610568573d6000803e3d6000fd5b505050507f323fc4ccd660921fb956d269cd1d6f58b5e2e7d4e6f38cf4864d5b797e87126d86898960405161059f93929190612b6a565b60405180910390a15050505050505050565b600073ffffffffffffffffffffffffffffffffffffffff168373ffffffffffffffffffffffffffffffffffffffff1603610617576040517fd92e233d00000000000000000000000000000000000000000000000000000000815260040160405180910390fd5b68056bc75e2d63100000600160009054906101000a900473ffffffffffffffffffffffffffffffffffffffff1673ffffffffffffffffffffffffffffffffffffffff166370a08231856040518263ffffffff1660e01b815260040161067c9190612ae4565b602060405180830381865afa158015610699573d6000803e3d6000fd5b505050506040513d601f19601f820116820180604052508101906106bd9190612b14565b10156106f5576040517f871cfff500000000000000000000000000000000000000000000000000000000815260040160405180910390fd5b600084848460405160200161070c93929190612e38565b60405160208183030381529060405290506107278282611a1a565b600160009054906101000a900473ffffffffffffffffffffffffffffffffffffffff1673ffffffffffffffffffffffffffffffffffffffff1663ec14210b8568056bc75e2d631000006040518363ffffffff1660e01b815260040161078d929190612eb8565b600060405180830381600087803b1580156107a757600080fd5b505af11580156107bb573d6000803e3d6000fd5b50505050600360009054906101000a900473ffffffffffffffffffffffffffffffffffffffff1673ffffffffffffffffffffffffffffffffffffffff1663383ae75785876040518363ffffffff1660e01b815260040161081c929190612ee1565b600060405180830381600087803b15801561083657600080fd5b505af115801561084a573d6000803e3d6000fd5b5050505084806080019061085e9190612f20565b600660008773ffffffffffffffffffffffffffffffffffffffff1673ffffffffffffffffffffffffffffffffffffffff16815260200190815260200160002060000191826108ad929190613190565b5060058580608001906108c09190612f20565b909180600181540180825580915050600190039060005260206000200160009091929091929091929091925091826108f9929190613190565b506000600360009054906101000a900473ffffffffffffffffffffffffffffffffffffffff1673ffffffffffffffffffffffffffffffffffffffff166384c4bd4b6040518163ffffffff1660e01b8152600401602060405180830381865afa158015610969573d6000803e3d6000fd5b505050506040513d601f19601f8201168201806040525081019061098d9190612b14565b9050600060405180608001604052808381526020018880608001906109b29190612f20565b8080601f016020809104026020016040519081016040528093929190818152602001838380828437600081840152601f19601f82011690508083019250505050505050815260200188600001602001600001358152602001886000016020016020013581525090506007819080600181540180825580915050600190039060005260206000209060040201600090919091909150600082015181600001556020820151816001019081610a659190613260565b50604082015181600201556060820151816003015550507f5775bad83cd49623fb4aab6cc05030b5f675dc6f01a8eac4c289475ae82b66f88688600001602001600001358960000160200160200135604051610ac393929190612b6a565b60405180910390a150505050505050565b6060600660008373ffffffffffffffffffffffffffffffffffffffff1673ffffffffffffffffffffffffffffffffffffffff1681526020019081526020016000206000018054610b2390612fbd565b80601f0160208091040260200160405190810160405280929190818152602001828054610b4f90612fbd565b8015610b9c5780601f10610b7157610100808354040283529160200191610b9c565b820191906000526020600020905b815481529060010190602001808311610b7f57829003601f168201915b50505050509050919050565b60606005805480602002602001604051908101604052809291908181526020016000905b82821015610c78578382906000526020600020018054610beb90612fbd565b80601f0160208091040260200160405190810160405280929190818152602001828054610c1790612fbd565b8015610c645780601f10610c3957610100808354040283529160200191610c64565b820191906000526020600020905b815481529060010190602001808311610c4757829003601f168201915b505050505081526020019060010190610bcc565b50505050905090565b600073ffffffffffffffffffffffffffffffffffffffff168373ffffffffffffffffffffffffffffffffffffffff1603610ce7576040517fd92e233d00000000000000000000000000000000000000000000000000000000815260040160405180910390fd5b67016345785d8a0000341015610d29576040517f781a138f00000000000000000000000000000000000000000000000000000000815260040160405180910390fd5b60008383604051602001610d3e929190613332565b6040516020818303038152906040529050610d598282611a1a565b600160009054906101000a900473ffffffffffffffffffffffffffffffffffffffff1673ffffffffffffffffffffffffffffffffffffffff1663690faf5b85683635c9adc5dea000006040518363ffffffff1660e01b8152600401610dbf92919061339d565b600060405180830381600087803b158015610dd957600080fd5b505af1158015610ded573d6000803e3d6000fd5b50505050600460009054906101000a900473ffffffffffffffffffffffffffffffffffffffff1673ffffffffffffffffffffffffffffffffffffffff166108fc349081150290604051600060405180830381858888f19350505050158015610e59573d6000803e3d6000fd5b507fc1490e91b41ba50405d1c55f8d8d9da6384bb9d5bd5ecb7771430def2447593084683635c9adc5dea00000604051610e9492919061339d565b60405180910390a17f811447d6056ff558a12372ce4223abc2dca6c6c013973ac0f7530bbd25221f8034604051610ecb919061291b565b60405180910390a150505050565b600073ffffffffffffffffffffffffffffffffffffffff168373ffffffffffffffffffffffffffffffffffffffff1603610f3f576040517fd92e233d00000000000000000000000000000000000000000000000000000000815260040160405180910390fd5b6000600660008573ffffffffffffffffffffffffffffffffffffffff1673ffffffffffffffffffffffffffffffffffffffff16815260200190815260200160002060010154905060008060029054906101000a900473ffffffffffffffffffffffffffffffffffffffff1673ffffffffffffffffffffffffffffffffffffffff166370a08231866040518263ffffffff1660e01b8152600401610fe29190612ae4565b602060405180830381865afa158015610fff573d6000803e3d6000fd5b505050506040513d601f19601f820116820180604052508101906110239190612b14565b905080821061105e576040517fe7785ee500000000000000000000000000000000000000000000000000000000815260040160405180910390fd5b60008585604051602001611073929190613332565b604051602081830303815290604052905061108e8482611a1a565b81600660008873ffffffffffffffffffffffffffffffffffffffff1673ffffffffffffffffffffffffffffffffffffffff16815260200190815260200160002060010181905550600160009054906101000a900473ffffffffffffffffffffffffffffffffffffffff1673ffffffffffffffffffffffffffffffffffffffff1663690faf5b87858561112091906133c6565b6040518363ffffffff1660e01b815260040161113d929190612b41565b600060405180830381600087803b15801561115757600080fd5b505af115801561116b573d6000803e3d6000fd5b505050507f98043d11e858f9a20a24f1cffcb307537332437a9afc6a2083c94c4a00c97b2286848461119d91906133c6565b6040516111ab929190612b41565b60405180910390a1505050505050565b60606007805480602002602001604051908101604052809291908181526020016000905b828210156112c157838290600052602060002090600402016040518060800160405290816000820154815260200160018201805461121c90612fbd565b80601f016020809104026020016040519081016040528092919081815260200182805461124890612fbd565b80156112955780601f1061126a57610100808354040283529160200191611295565b820191906000526020600020905b81548152906001019060200180831161127857829003601f168201915b5050505050815260200160028201548152602001600382015481525050815260200190600101906111df565b50505050905090565b600086868686866040516020016112e595949392919061355e565b60405160208183030381529060405290506113008282611a1a565b600360009054906101000a900473ffffffffffffffffffffffffffffffffffffffff1673ffffffffffffffffffffffffffffffffffffffff166320800a2087876040518363ffffffff1660e01b815260040161135d9291906135c6565b600060405180830381600087803b15801561137757600080fd5b505af115801561138b573d6000803e3d6000fd5b505050506000846020015151111561143757600260009054906101000a900473ffffffffffffffffffffffffffffffffffffffff1673ffffffffffffffffffffffffffffffffffffffff166387730d0188866000015187602001516040518463ffffffff1660e01b815260040161140493929190613665565b600060405180830381600087803b15801561141e57600080fd5b505af1158015611432573d6000803e3d6000fd5b505050505b600084606001515111156114df57600260009054906101000a900473ffffffffffffffffffffffffffffffffffffffff1673ffffffffffffffffffffffffffffffffffffffff166334cda73488866040015187606001516040518463ffffffff1660e01b81526004016114ac93929190613665565b600060405180830381600087803b1580156114c657600080fd5b505af11580156114da573d6000803e3d6000fd5b505050505b50505050505050565b600060029054906101000a900473ffffffffffffffffffffffffffffffffffffffff1681565b6000600660008373ffffffffffffffffffffffffffffffffffffffff1673ffffffffffffffffffffffffffffffffffffffff168152602001908152602001600020600101549050919050565b60008060019054906101000a900460ff1615905080801561158b5750600160008054906101000a900460ff1660ff16105b806115b8575061159a30611c32565b1580156115b75750600160008054906101000a900460ff1660ff16145b5b6115f7576040517f08c379a00000000000000000000000000000000000000000000000000000000081526004016115ee9061371c565b60405180910390fd5b60016000806101000a81548160ff021916908360ff1602179055508015611634576001600060016101000a81548160ff0219169083151502179055505b600073ffffffffffffffffffffffffffffffffffffffff168673ffffffffffffffffffffffffffffffffffffffff160361169a576040517fd92e233d00000000000000000000000000000000000000000000000000000000815260040160405180910390fd5b600073ffffffffffffffffffffffffffffffffffffffff168573ffffffffffffffffffffffffffffffffffffffff1603611700576040517fd92e233d00000000000000000000000000000000000000000000000000000000815260040160405180910390fd5b600073ffffffffffffffffffffffffffffffffffffffff168473ffffffffffffffffffffffffffffffffffffffff1603611766576040517fd92e233d00000000000000000000000000000000000000000000000000000000815260040160405180910390fd5b600073ffffffffffffffffffffffffffffffffffffffff168373ffffffffffffffffffffffffffffffffffffffff16036117cc576040517fd92e233d00000000000000000000000000000000000000000000000000000000815260040160405180910390fd5b600073ffffffffffffffffffffffffffffffffffffffff168273ffffffffffffffffffffffffffffffffffffffff1603611832576040517fd92e233d00000000000000000000000000000000000000000000000000000000815260040160405180910390fd5b85600060026101000a81548173ffffffffffffffffffffffffffffffffffffffff021916908373ffffffffffffffffffffffffffffffffffffffff16021790555084600160006101000a81548173ffffffffffffffffffffffffffffffffffffffff021916908373ffffffffffffffffffffffffffffffffffffffff16021790555083600260006101000a81548173ffffffffffffffffffffffffffffffffffffffff021916908373ffffffffffffffffffffffffffffffffffffffff16021790555082600360006101000a81548173ffffffffffffffffffffffffffffffffffffffff021916908373ffffffffffffffffffffffffffffffffffffffff16021790555081600460006101000a81548173ffffffffffffffffffffffffffffffffffffffff021916908373ffffffffffffffffffffffffffffffffffffffff16021790555086600860006101000a81548173ffffffffffffffffffffffffffffffffffffffff021916908373ffffffffffffffffffffffffffffffffffffffff1602179055508015611a115760008060016101000a81548160ff0219169083151502179055507f7f26b83ff96e1f2b6a682f133852f6798a09c465da95921460cefb38474024986001604051611a089190613784565b60405180910390a15b50505050505050565b600982604051611a2a91906137db565b908152602001604051809103902060009054906101000a900460ff1615611a7d576040517f8baa579f00000000000000000000000000000000000000000000000000000000815260040160405180910390fd5b6000611a898284611c55565b9050600860009054906101000a900473ffffffffffffffffffffffffffffffffffffffff1673ffffffffffffffffffffffffffffffffffffffff168173ffffffffffffffffffffffffffffffffffffffff1614611b12576040517f8baa579f00000000000000000000000000000000000000000000000000000000815260040160405180910390fd5b6001600984604051611b2491906137db565b908152602001604051809103902060006101000a81548160ff021916908315150217905550505050565b600080600260009054906101000a900473ffffffffffffffffffffffffffffffffffffffff1673ffffffffffffffffffffffffffffffffffffffff1663bc31c1c1846040518263ffffffff1660e01b8152600401611bac919061291b565b602060405180830381865afa158015611bc9573d6000803e3d6000fd5b505050506040513d601f19601f82011682018060405250810190611bed9190612b14565b905060008103611c29576040517f6aa2a93700000000000000000000000000000000000000000000000000000000815260040160405180910390fd5b80915050919050565b6000808273ffffffffffffffffffffffffffffffffffffffff163b119050919050565b600080611c688480519060200120611cd9565b90506000806000611c7886611d09565b92509250925060018482858560405160008152602001604052604051611ca1949392919061381a565b6020604051602081039080840390855afa158015611cc3573d6000803e3d6000fd5b5050506020604051035194505050505092915050565b600081604051602001611cec91906138d7565b604051602081830303815290604052805190602001209050919050565b60008060006041845114611d52576040517f08c379a0000000000000000000000000000000000000000000000000000000008152600401611d4990613949565b60405180910390fd5b6020840151925060408401519150606084015160001a90509193909250565b6000604051905090565b600080fd5b600080fd5b6000819050919050565b611d9881611d85565b8114611da357600080fd5b50565b600081359050611db581611d8f565b92915050565b600073ffffffffffffffffffffffffffffffffffffffff82169050919050565b6000611de682611dbb565b9050919050565b611df681611ddb565b8114611e0157600080fd5b50565b600081359050611e1381611ded565b92915050565b600080fd5b600080fd5b6000601f19601f8301169050919050565b7f4e487b7100000000000000000000000000000000000000000000000000000000600052604160045260246000fd5b611e6c82611e23565b810181811067ffffffffffffffff82111715611e8b57611e8a611e34565b5b80604052505050565b6000611e9e611d71565b9050611eaa8282611e63565b919050565b600067ffffffffffffffff821115611eca57611ec9611e34565b5b611ed382611e23565b9050602081019050919050565b82818337600083830152505050565b6000611f02611efd84611eaf565b611e94565b905082815260208101848484011115611f1e57611f1d611e1e565b5b611f29848285611ee0565b509392505050565b600082601f830112611f4657611f45611e19565b5b8135611f56848260208601611eef565b91505092915050565b600067ffffffffffffffff821115611f7a57611f79611e34565b5b611f8382611e23565b9050602081019050919050565b6000611fa3611f9e84611f5f565b611e94565b905082815260208101848484011115611fbf57611fbe611e1e565b5b611fca848285611ee0565b509392505050565b600082601f830112611fe757611fe6611e19565b5b8135611ff7848260208601611f90565b91505092915050565b600080600080600060a0868803121561201c5761201b611d7b565b5b600061202a88828901611da6565b955050602061203b88828901611da6565b945050604061204c88828901611e04565b935050606086013567ffffffffffffffff81111561206d5761206c611d80565b5b61207988828901611f31565b925050608086013567ffffffffffffffff81111561209a57612099611d80565b5b6120a688828901611fd2565b9150509295509295909350565b600080fd5b600060e082840312156120ce576120cd6120b3565b5b81905092915050565b600080600080608085870312156120f1576120f0611d7b565b5b600085013567ffffffffffffffff81111561210f5761210e611d80565b5b61211b878288016120b8565b945050602061212c87828801611e04565b935050604085013567ffffffffffffffff81111561214d5761214c611d80565b5b61215987828801611f31565b925050606085013567ffffffffffffffff81111561217a57612179611d80565b5b61218687828801611fd2565b91505092959194509250565b6000602082840312156121a8576121a7611d7b565b5b60006121b684828501611e04565b91505092915050565b600081519050919050565b600082825260208201905092915050565b60005b838110156121f95780820151818401526020810190506121de565b60008484015250505050565b6000612210826121bf565b61221a81856121ca565b935061222a8185602086016121db565b61223381611e23565b840191505092915050565b600060208201905081810360008301526122588184612205565b905092915050565b600081519050919050565b600082825260208201905092915050565b6000819050602082019050919050565b600082825260208201905092915050565b60006122a8826121bf565b6122b2818561228c565b93506122c28185602086016121db565b6122cb81611e23565b840191505092915050565b60006122e2838361229d565b905092915050565b6000602082019050919050565b600061230282612260565b61230c818561226b565b93508360208202850161231e8561227c565b8060005b8581101561235a578484038952815161233b85826122d6565b9450612346836122ea565b925060208a01995050600181019050612322565b50829750879550505050505092915050565b6000602082019050818103600083015261238681846122f7565b905092915050565b6000806000606084860312156123a7576123a6611d7b565b5b60006123b586828701611e04565b935050602084013567ffffffffffffffff8111156123d6576123d5611d80565b5b6123e286828701611f31565b925050604084013567ffffffffffffffff81111561240357612402611d80565b5b61240f86828701611fd2565b9150509250925092565b600081519050919050565b600082825260208201905092915050565b6000819050602082019050919050565b61244e81611d85565b82525050565b600060808301600083015161246c6000860182612445565b5060208301518482036020860152612484828261229d565b91505060408301516124996040860182612445565b5060608301516124ac6060860182612445565b508091505092915050565b60006124c38383612454565b905092915050565b6000602082019050919050565b60006124e382612419565b6124ed8185612424565b9350836020820285016124ff85612435565b8060005b8581101561253b578484038952815161251c85826124b7565b9450612527836124cb565b925060208a01995050600181019050612503565b50829750879550505050505092915050565b6000602082019050818103600083015261256781846124d8565b905092915050565b600080fd5b600080fd5b60006040828403121561258f5761258e61256f565b5b6125996040611e94565b905060006125a984828501611da6565b600083015250602082013567ffffffffffffffff8111156125cd576125cc612574565b5b6125d984828501611f31565b60208301525092915050565b600067ffffffffffffffff821115612600576125ff611e34565b5b602082029050602081019050919050565b600080fd5b6000612629612624846125e5565b611e94565b9050808382526020820190506020840283018581111561264c5761264b612611565b5b835b8181101561267557806126618882611da6565b84526020840193505060208101905061264e565b5050509392505050565b600082601f83011261269457612693611e19565b5b81356126a4848260208601612616565b91505092915050565b6000608082840312156126c3576126c261256f565b5b6126cd6080611e94565b9050600082013567ffffffffffffffff8111156126ed576126ec612574565b5b6126f98482850161267f565b600083015250602082013567ffffffffffffffff81111561271d5761271c612574565b5b6127298482850161267f565b602083015250604082013567ffffffffffffffff81111561274d5761274c612574565b5b6127598482850161267f565b604083015250606082013567ffffffffffffffff81111561277d5761277c612574565b5b6127898482850161267f565b60608301525092915050565b60008060008060008060c087890312156127b2576127b1611d7b565b5b60006127c089828a01611e04565b96505060206127d189828a01611da6565b955050604087013567ffffffffffffffff8111156127f2576127f1611d80565b5b6127fe89828a01612579565b945050606087013567ffffffffffffffff81111561281f5761281e611d80565b5b61282b89828a016126ad565b935050608087013567ffffffffffffffff81111561284c5761284b611d80565b5b61285889828a01611f31565b92505060a087013567ffffffffffffffff81111561287957612878611d80565b5b61288589828a01611fd2565b9150509295509295509295565b6000819050919050565b60006128b76128b26128ad84611dbb565b612892565b611dbb565b9050919050565b60006128c98261289c565b9050919050565b60006128db826128be565b9050919050565b6128eb816128d0565b82525050565b600060208201905061290660008301846128e2565b92915050565b61291581611d85565b82525050565b6000602082019050612930600083018461290c565b92915050565b60008060008060008060c0878903121561295357612952611d7b565b5b600061296189828a01611e04565b965050602061297289828a01611e04565b955050604061298389828a01611e04565b945050606061299489828a01611e04565b93505060806129a589828a01611e04565b92505060a06129b689828a01611e04565b9150509295509295509295565b6129cc81611ddb565b82525050565b600081519050919050565b600082825260208201905092915050565b60006129f9826129d2565b612a0381856129dd565b9350612a138185602086016121db565b612a1c81611e23565b840191505092915050565b6000608082019050612a3c600083018761290c565b612a49602083018661290c565b612a5660408301856129c3565b8181036060830152612a6881846129ee565b905095945050505050565b7f4e487b7100000000000000000000000000000000000000000000000000000000600052601160045260246000fd5b6000612aad82611d85565b9150612ab883611d85565b9250828202612ac681611d85565b91508282048414831517612add57612adc612a73565b5b5092915050565b6000602082019050612af960008301846129c3565b92915050565b600081519050612b0e81611d8f565b92915050565b600060208284031215612b2a57612b29611d7b565b5b6000612b3884828501612aff565b91505092915050565b6000604082019050612b5660008301856129c3565b612b63602083018461290c565b9392505050565b6000606082019050612b7f60008301866129c3565b612b8c602083018561290c565b612b99604083018461290c565b949350505050565b600082905092915050565b6000612bbb6020840184611e04565b905092915050565b612bcc81611ddb565b82525050565b600082905092915050565b6000612bec6020840184611da6565b905092915050565b60408201612c056000830183612bdd565b612c126000850182612445565b50612c206020830183612bdd565b612c2d6020850182612445565b50505050565b60608201612c446000830183612bac565b612c516000850182612bc3565b50612c5f6020830183612bd2565b612c6c6020850182612bf4565b50505050565b600080fd5b600082356001604003833603038112612c9357612c92612c72565b5b82810191505092915050565b600080fd5b600080fd5b60008083356001602003843603038112612cc657612cc5612c72565b5b83810192508235915060208301925067ffffffffffffffff821115612cee57612ced612c9f565b5b600182023603831315612d0457612d03612ca4565b5b509250929050565b6000612d18838561228c565b9350612d25838584611ee0565b612d2e83611e23565b840190509392505050565b600060408301612d4c6000840184612bdd565b612d596000860182612445565b50612d676020840184612ca9565b8583036020870152612d7a838284612d0c565b925050508091505092915050565b600060e08301612d9b6000840184612ba1565b612da86000860182612c33565b50612db66060840184612c77565b8482036060860152612dc88282612d39565b915050612dd86080840184612ca9565b8583036080870152612deb838284612d0c565b92505050612dfc60a0840184612bdd565b612e0960a0860182612445565b50612e1760c0840184612ca9565b85830360c0870152612e2a838284612d0c565b925050508091505092915050565b60006060820190508181036000830152612e528186612d88565b9050612e6160208301856129c3565b8181036040830152612e7381846129ee565b9050949350505050565b6000819050919050565b6000612ea2612e9d612e9884612e7d565b612892565b611d85565b9050919050565b612eb281612e87565b82525050565b6000604082019050612ecd60008301856129c3565b612eda6020830184612ea9565b9392505050565b6000604082019050612ef660008301856129c3565b8181036020830152612f088184612d88565b90509392505050565b600080fd5b600080fd5b600080fd5b60008083356001602003843603038112612f3d57612f3c612f11565b5b80840192508235915067ffffffffffffffff821115612f5f57612f5e612f16565b5b602083019250600182023603831315612f7b57612f7a612f1b565b5b509250929050565b600082905092915050565b7f4e487b7100000000000000000000000000000000000000000000000000000000600052602260045260246000fd5b60006002820490506001821680612fd557607f821691505b602082108103612fe857612fe7612f8e565b5b50919050565b60008190508160005260206000209050919050565b60006020601f8301049050919050565b600082821b905092915050565b6000600883026130507fffffffffffffffffffffffffffffffffffffffffffffffffffffffffffffffff82613013565b61305a8683613013565b95508019841693508086168417925050509392505050565b600061308d61308861308384611d85565b612892565b611d85565b9050919050565b6000819050919050565b6130a783613072565b6130bb6130b382613094565b848454613020565b825550505050565b600090565b6130d06130c3565b6130db81848461309e565b505050565b5b818110156130ff576130f46000826130c8565b6001810190506130e1565b5050565b601f8211156131445761311581612fee565b61311e84613003565b8101602085101561312d578190505b61314161313985613003565b8301826130e0565b50505b505050565b600082821c905092915050565b600061316760001984600802613149565b1980831691505092915050565b60006131808383613156565b9150826002028217905092915050565b61319a8383612f83565b67ffffffffffffffff8111156131b3576131b2611e34565b5b6131bd8254612fbd565b6131c8828285613103565b6000601f8311600181146131f757600084156131e5578287013590505b6131ef8582613174565b865550613257565b601f19841661320586612fee565b60005b8281101561322d57848901358255600182019150602085019450602081019050613208565b8683101561324a5784890135613246601f891682613156565b8355505b6001600288020188555050505b50505050505050565b613269826121bf565b67ffffffffffffffff81111561328257613281611e34565b5b61328c8254612fbd565b613297828285613103565b600060209050601f8311600181146132ca57600084156132b8578287015190505b6132c28582613174565b86555061332a565b601f1984166132d886612fee565b60005b82811015613300578489015182556001820191506020850194506020810190506132db565b8683101561331d5784890151613319601f891682613156565b8355505b6001600288020188555050505b505050505050565b600060408201905061334760008301856129c3565b818103602083015261335981846129ee565b90509392505050565b6000819050919050565b600061338761338261337d84613362565b612892565b611d85565b9050919050565b6133978161336c565b82525050565b60006040820190506133b260008301856129c3565b6133bf602083018461338e565b9392505050565b60006133d182611d85565b91506133dc83611d85565b92508282039050818111156133f4576133f3612a73565b5b92915050565b60006040830160008301516134126000860182612445565b506020830151848203602086015261342a828261229d565b9150508091505092915050565b600081519050919050565b600082825260208201905092915050565b6000819050602082019050919050565b600061346f8383612445565b60208301905092915050565b6000602082019050919050565b600061349382613437565b61349d8185613442565b93506134a883613453565b8060005b838110156134d95781516134c08882613463565b97506134cb8361347b565b9250506001810190506134ac565b5085935050505092915050565b600060808301600083015184820360008601526135038282613488565b9150506020830151848203602086015261351d8282613488565b915050604083015184820360408601526135378282613488565b915050606083015184820360608601526135518282613488565b9150508091505092915050565b600060a08201905061357360008301886129c3565b613580602083018761290c565b818103604083015261359281866133fa565b905081810360608301526135a681856134e6565b905081810360808301526135ba81846129ee565b90509695505050505050565b60006040820190506135db600083018561290c565b81810360208301526135ed81846133fa565b90509392505050565b600082825260208201905092915050565b600061361282613437565b61361c81856135f6565b935061362783613453565b8060005b8381101561365857815161363f8882613463565b975061364a8361347b565b92505060018101905061362b565b5085935050505092915050565b600060608201905061367a60008301866129c3565b818103602083015261368c8185613607565b905081810360408301526136a08184613607565b9050949350505050565b7f496e697469616c697a61626c653a20636f6e747261637420697320616c72656160008201527f647920696e697469616c697a6564000000000000000000000000000000000000602082015250565b6000613706602e836121ca565b9150613711826136aa565b604082019050919050565b60006020820190508181036000830152613735816136f9565b9050919050565b6000819050919050565b600060ff82169050919050565b600061376e6137696137648461373c565b612892565b613746565b9050919050565b61377e81613753565b82525050565b60006020820190506137996000830184613775565b92915050565b600081905092915050565b60006137b5826129d2565b6137bf818561379f565b93506137cf8185602086016121db565b80840191505092915050565b60006137e782846137aa565b915081905092915050565b6000819050919050565b613805816137f2565b82525050565b61381481613746565b82525050565b600060808201905061382f60008301876137fc565b61383c602083018661380b565b61384960408301856137fc565b61385660608301846137fc565b95945050505050565b600081905092915050565b7f19457468657265756d205369676e6564204d6573736167653a0a333200000000600082015250565b60006138a0601c8361385f565b91506138ab8261386a565b601c82019050919050565b6000819050919050565b6138d16138cc826137f2565b6138b6565b82525050565b60006138e282613893565b91506138ee82846138c0565b60208201915081905092915050565b7f5369673a20496e76616c6964207369676e6174757265206c656e677468000000600082015250565b6000613933601d836121ca565b915061393e826138fd565b602082019050919050565b6000602082019050818103600083015261396281613926565b905091905056fea2646970667358221220ab737b8fd787db92d162a704c7ddb2048c0fe0be01d40f3d0c090a71c0ca71e864736f6c63430008110033",
  "linkReferences": {},
  "deployedLinkReferences": {}
}