{
  "_format": "hh-sol-artifact-1",
  "contractName": "MBlox",
  "sourceName": "contracts/implementations/MBlox.sol",
  "abi": [
    {
      "inputs": [],
      "name": "InvalidDigitalKey",
      "type": "error"
    },
    {
      "inputs": [],
      "name": "InvalidSignature",
      "type": "error"
    },
    {
      "inputs": [],
      "name": "InvalidTokenID",
      "type": "error"
    },
    {
      "inputs": [],
      "name": "NotPositiveValue",
      "type": "error"
    },
    {
      "inputs": [],
      "name": "ZeroAddress",
      "type": "error"
    },
    {
      "anonymous": false,
      "inputs": [
        {
          "indexed": true,
          "internalType": "address",
          "name": "owner",
          "type": "address"
        },
        {
          "indexed": true,
          "internalType": "address",
          "name": "spender",
          "type": "address"
        },
        {
          "indexed": false,
          "internalType": "uint256",
          "name": "value",
          "type": "uint256"
        }
      ],
      "name": "Approval",
      "type": "event"
    },
    {
      "anonymous": false,
      "inputs": [
        {
          "indexed": false,
          "internalType": "uint8",
          "name": "version",
          "type": "uint8"
        }
      ],
      "name": "Initialized",
      "type": "event"
    },
    {
      "anonymous": false,
      "inputs": [
        {
          "indexed": true,
          "internalType": "uint256",
          "name": "amount",
          "type": "uint256"
        },
        {
          "indexed": false,
          "internalType": "address",
          "name": "from",
          "type": "address"
        }
      ],
      "name": "MBloxBurned",
      "type": "event"
    },
    {
      "anonymous": false,
      "inputs": [
        {
          "indexed": true,
          "internalType": "uint256",
          "name": "amount",
          "type": "uint256"
        },
        {
          "indexed": false,
          "internalType": "address",
          "name": "to",
          "type": "address"
        }
      ],
      "name": "MBloxMinted",
      "type": "event"
    },
    {
      "anonymous": false,
      "inputs": [
        {
          "indexed": true,
          "internalType": "bytes32",
          "name": "role",
          "type": "bytes32"
        },
        {
          "indexed": true,
          "internalType": "bytes32",
          "name": "previousAdminRole",
          "type": "bytes32"
        },
        {
          "indexed": true,
          "internalType": "bytes32",
          "name": "newAdminRole",
          "type": "bytes32"
        }
      ],
      "name": "RoleAdminChanged",
      "type": "event"
    },
    {
      "anonymous": false,
      "inputs": [
        {
          "indexed": true,
          "internalType": "bytes32",
          "name": "role",
          "type": "bytes32"
        },
        {
          "indexed": true,
          "internalType": "address",
          "name": "account",
          "type": "address"
        },
        {
          "indexed": true,
          "internalType": "address",
          "name": "sender",
          "type": "address"
        }
      ],
      "name": "RoleGranted",
      "type": "event"
    },
    {
      "anonymous": false,
      "inputs": [
        {
          "indexed": true,
          "internalType": "bytes32",
          "name": "role",
          "type": "bytes32"
        },
        {
          "indexed": true,
          "internalType": "address",
          "name": "account",
          "type": "address"
        },
        {
          "indexed": true,
          "internalType": "address",
          "name": "sender",
          "type": "address"
        }
      ],
      "name": "RoleRevoked",
      "type": "event"
    },
    {
      "anonymous": false,
      "inputs": [
        {
          "indexed": true,
          "internalType": "address",
          "name": "from",
          "type": "address"
        },
        {
          "indexed": true,
          "internalType": "address",
          "name": "to",
          "type": "address"
        },
        {
          "indexed": false,
          "internalType": "uint256",
          "name": "value",
          "type": "uint256"
        }
      ],
      "name": "Transfer",
      "type": "event"
    },
    {
      "inputs": [],
      "name": "BURNER_ROLE",
      "outputs": [
        {
          "internalType": "bytes32",
          "name": "",
          "type": "bytes32"
        }
      ],
      "stateMutability": "view",
      "type": "function"
    },
    {
      "inputs": [],
      "name": "DEFAULT_ADMIN_ROLE",
      "outputs": [
        {
          "internalType": "bytes32",
          "name": "",
          "type": "bytes32"
        }
      ],
      "stateMutability": "view",
      "type": "function"
    },
    {
      "inputs": [],
      "name": "MINTER_ROLE",
      "outputs": [
        {
          "internalType": "bytes32",
          "name": "",
          "type": "bytes32"
        }
      ],
      "stateMutability": "view",
      "type": "function"
    },
    {
      "inputs": [
        {
          "internalType": "address",
          "name": "owner",
          "type": "address"
        },
        {
          "internalType": "address",
          "name": "spender",
          "type": "address"
        }
      ],
      "name": "allowance",
      "outputs": [
        {
          "internalType": "uint256",
          "name": "",
          "type": "uint256"
        }
      ],
      "stateMutability": "view",
      "type": "function"
    },
    {
      "inputs": [
        {
          "internalType": "address",
          "name": "spender",
          "type": "address"
        },
        {
          "internalType": "uint256",
          "name": "amount",
          "type": "uint256"
        }
      ],
      "name": "approve",
      "outputs": [
        {
          "internalType": "bool",
          "name": "",
          "type": "bool"
        }
      ],
      "stateMutability": "nonpayable",
      "type": "function"
    },
    {
      "inputs": [
        {
          "internalType": "address",
          "name": "account",
          "type": "address"
        }
      ],
      "name": "balanceOf",
      "outputs": [
        {
          "internalType": "uint256",
          "name": "",
          "type": "uint256"
        }
      ],
      "stateMutability": "view",
      "type": "function"
    },
    {
      "inputs": [
        {
          "internalType": "uint256",
          "name": "amount",
          "type": "uint256"
        }
      ],
      "name": "burn",
      "outputs": [],
      "stateMutability": "nonpayable",
      "type": "function"
    },
    {
      "inputs": [
        {
          "internalType": "address",
          "name": "account",
          "type": "address"
        },
        {
          "internalType": "uint256",
          "name": "amount",
          "type": "uint256"
        }
      ],
      "name": "burnFrom",
      "outputs": [],
      "stateMutability": "nonpayable",
      "type": "function"
    },
    {
      "inputs": [
        {
          "internalType": "address",
          "name": "from",
          "type": "address"
        },
        {
          "internalType": "uint256",
          "name": "amount",
          "type": "uint256"
        }
      ],
      "name": "burnMBlox",
      "outputs": [],
      "stateMutability": "nonpayable",
      "type": "function"
    },
    {
      "inputs": [],
      "name": "decimals",
      "outputs": [
        {
          "internalType": "uint8",
          "name": "",
          "type": "uint8"
        }
      ],
      "stateMutability": "view",
      "type": "function"
    },
    {
      "inputs": [
        {
          "internalType": "address",
          "name": "spender",
          "type": "address"
        },
        {
          "internalType": "uint256",
          "name": "subtractedValue",
          "type": "uint256"
        }
      ],
      "name": "decreaseAllowance",
      "outputs": [
        {
          "internalType": "bool",
          "name": "",
          "type": "bool"
        }
      ],
      "stateMutability": "nonpayable",
      "type": "function"
    },
    {
      "inputs": [
        {
          "internalType": "bytes32",
          "name": "role",
          "type": "bytes32"
        }
      ],
      "name": "getRoleAdmin",
      "outputs": [
        {
          "internalType": "bytes32",
          "name": "",
          "type": "bytes32"
        }
      ],
      "stateMutability": "view",
      "type": "function"
    },
    {
      "inputs": [
        {
          "internalType": "bytes32",
          "name": "role",
          "type": "bytes32"
        },
        {
          "internalType": "address",
          "name": "account",
          "type": "address"
        }
      ],
      "name": "grantRole",
      "outputs": [],
      "stateMutability": "nonpayable",
      "type": "function"
    },
    {
      "inputs": [
        {
          "internalType": "address",
          "name": "account",
          "type": "address"
        },
        {
          "internalType": "bytes",
          "name": "signature",
          "type": "bytes"
        }
      ],
      "name": "grantRoles",
      "outputs": [],
      "stateMutability": "nonpayable",
      "type": "function"
    },
    {
      "inputs": [
        {
          "internalType": "bytes32",
          "name": "role",
          "type": "bytes32"
        },
        {
          "internalType": "address",
          "name": "account",
          "type": "address"
        }
      ],
      "name": "hasRole",
      "outputs": [
        {
          "internalType": "bool",
          "name": "",
          "type": "bool"
        }
      ],
      "stateMutability": "view",
      "type": "function"
    },
    {
      "inputs": [
        {
          "internalType": "address",
          "name": "spender",
          "type": "address"
        },
        {
          "internalType": "uint256",
          "name": "addedValue",
          "type": "uint256"
        }
      ],
      "name": "increaseAllowance",
      "outputs": [
        {
          "internalType": "bool",
          "name": "",
          "type": "bool"
        }
      ],
      "stateMutability": "nonpayable",
      "type": "function"
    },
    {
      "inputs": [
        {
          "internalType": "address",
          "name": "gameWallet",
          "type": "address"
        }
      ],
      "name": "initialize",
      "outputs": [],
      "stateMutability": "nonpayable",
      "type": "function"
    },
    {
      "inputs": [
        {
          "internalType": "address",
          "name": "to",
          "type": "address"
        },
        {
          "internalType": "uint256",
          "name": "amount",
          "type": "uint256"
        }
      ],
      "name": "mintMBlox",
      "outputs": [],
      "stateMutability": "nonpayable",
      "type": "function"
    },
    {
      "inputs": [],
      "name": "name",
      "outputs": [
        {
          "internalType": "string",
          "name": "",
          "type": "string"
        }
      ],
      "stateMutability": "view",
      "type": "function"
    },
    {
      "inputs": [
        {
          "internalType": "bytes32",
          "name": "role",
          "type": "bytes32"
        },
        {
          "internalType": "address",
          "name": "account",
          "type": "address"
        }
      ],
      "name": "renounceRole",
      "outputs": [],
      "stateMutability": "nonpayable",
      "type": "function"
    },
    {
      "inputs": [
        {
          "internalType": "bytes32",
          "name": "role",
          "type": "bytes32"
        },
        {
          "internalType": "address",
          "name": "account",
          "type": "address"
        }
      ],
      "name": "revokeRole",
      "outputs": [],
      "stateMutability": "nonpayable",
      "type": "function"
    },
    {
      "inputs": [
        {
          "internalType": "bytes4",
          "name": "interfaceId",
          "type": "bytes4"
        }
      ],
      "name": "supportsInterface",
      "outputs": [
        {
          "internalType": "bool",
          "name": "",
          "type": "bool"
        }
      ],
      "stateMutability": "view",
      "type": "function"
    },
    {
      "inputs": [],
      "name": "symbol",
      "outputs": [
        {
          "internalType": "string",
          "name": "",
          "type": "string"
        }
      ],
      "stateMutability": "view",
      "type": "function"
    },
    {
      "inputs": [],
      "name": "totalSupply",
      "outputs": [
        {
          "internalType": "uint256",
          "name": "",
          "type": "uint256"
        }
      ],
      "stateMutability": "view",
      "type": "function"
    },
    {
      "inputs": [
        {
          "internalType": "address",
          "name": "to",
          "type": "address"
        },
        {
          "internalType": "uint256",
          "name": "amount",
          "type": "uint256"
        }
      ],
      "name": "transfer",
      "outputs": [
        {
          "internalType": "bool",
          "name": "",
          "type": "bool"
        }
      ],
      "stateMutability": "nonpayable",
      "type": "function"
    },
    {
      "inputs": [
        {
          "internalType": "address",
          "name": "from",
          "type": "address"
        },
        {
          "internalType": "address",
          "name": "to",
          "type": "address"
        },
        {
          "internalType": "uint256",
          "name": "amount",
          "type": "uint256"
        }
      ],
      "name": "transferFrom",
      "outputs": [
        {
          "internalType": "bool",
          "name": "",
          "type": "bool"
        }
      ],
      "stateMutability": "nonpayable",
      "type": "function"
    }
  ],
  "bytecode": "0x608060405234801561001057600080fd5b5061361a806100206000396000f3fe608060405234801561001057600080fd5b506004361061018e5760003560e01c8063690faf5b116100de578063a457c2d711610097578063d539139311610071578063d5391393146104bb578063d547741f146104d9578063dd62ed3e146104f5578063ec14210b146105255761018e565b8063a457c2d71461043f578063a9059cbb1461046f578063c4d66de81461049f5761018e565b8063690faf5b1461036b57806370a082311461038757806379cc6790146103b757806391d14854146103d357806395d89b4114610403578063a217fddf146104215761018e565b8063282c51f31161014b578063339fce1011610125578063339fce10146102e757806336568abe14610303578063395093511461031f57806342966c681461034f5761018e565b8063282c51f31461028f5780632f2ff15d146102ad578063313ce567146102c95761018e565b806301ffc9a71461019357806306fdde03146101c3578063095ea7b3146101e157806318160ddd1461021157806323b872dd1461022f578063248a9ca31461025f575b600080fd5b6101ad60048036038101906101a891906121ba565b610541565b6040516101ba9190612202565b60405180910390f35b6101cb6105bb565b6040516101d891906122ad565b60405180910390f35b6101fb60048036038101906101f69190612363565b61064d565b6040516102089190612202565b60405180910390f35b610219610670565b60405161022691906123b2565b60405180910390f35b610249600480360381019061024491906123cd565b61067a565b6040516102569190612202565b60405180910390f35b61027960048036038101906102749190612456565b6106a9565b6040516102869190612492565b60405180910390f35b6102976106c9565b6040516102a49190612492565b60405180910390f35b6102c760048036038101906102c291906124ad565b6106ed565b005b6102d161070e565b6040516102de9190612509565b60405180910390f35b61030160048036038101906102fc9190612659565b610717565b005b61031d600480360381019061031891906124ad565b6107df565b005b61033960048036038101906103349190612363565b610862565b6040516103469190612202565b60405180910390f35b610369600480360381019061036491906126b5565b610899565b005b61038560048036038101906103809190612363565b6108ad565b005b6103a1600480360381019061039c91906126e2565b6109bf565b6040516103ae91906123b2565b60405180910390f35b6103d160048036038101906103cc9190612363565b610a08565b005b6103ed60048036038101906103e891906124ad565b610a28565b6040516103fa9190612202565b60405180910390f35b61040b610a93565b60405161041891906122ad565b60405180910390f35b610429610b25565b6040516104369190612492565b60405180910390f35b61045960048036038101906104549190612363565b610b2c565b6040516104669190612202565b60405180910390f35b61048960048036038101906104849190612363565b610ba3565b6040516104969190612202565b60405180910390f35b6104b960048036038101906104b491906126e2565b610bc6565b005b6104c3610e23565b6040516104d09190612492565b60405180910390f35b6104f360048036038101906104ee91906124ad565b610e47565b005b61050f600480360381019061050a919061270f565b610e68565b60405161051c91906123b2565b60405180910390f35b61053f600480360381019061053a9190612363565b610eef565b005b60007f7965db0b000000000000000000000000000000000000000000000000000000007bffffffffffffffffffffffffffffffffffffffffffffffffffffffff1916827bffffffffffffffffffffffffffffffffffffffffffffffffffffffff191614806105b457506105b382611001565b5b9050919050565b6060603680546105ca9061277e565b80601f01602080910402602001604051908101604052809291908181526020018280546105f69061277e565b80156106435780601f1061061857610100808354040283529160200191610643565b820191906000526020600020905b81548152906001019060200180831161062657829003601f168201915b5050505050905090565b60008061065861106b565b9050610665818585611073565b600191505092915050565b6000603554905090565b60008061068561106b565b905061069285828561123c565b61069d8585856112c8565b60019150509392505050565b600060c96000838152602001908152602001600020600101549050919050565b7f3c11d16cbaffd01df69ce1c404f6340ee057498f5f00246190ea54220576a84881565b6106f6826106a9565b6106ff81611541565b6107098383611555565b505050565b60006012905090565b600073ffffffffffffffffffffffffffffffffffffffff168273ffffffffffffffffffffffffffffffffffffffff160361077d576040517fd92e233d00000000000000000000000000000000000000000000000000000000815260040160405180910390fd5b6107878282611636565b6107b17f9f2df0fed2c77648de5860a4cc508cd0818c85b8b8a1ab4ceeef8d981c8956a68361178f565b6107db7f3c11d16cbaffd01df69ce1c404f6340ee057498f5f00246190ea54220576a8488361178f565b5050565b6107e761106b565b73ffffffffffffffffffffffffffffffffffffffff168173ffffffffffffffffffffffffffffffffffffffff1614610854576040517f08c379a000000000000000000000000000000000000000000000000000000000815260040161084b90612821565b60405180910390fd5b61085e828261179d565b5050565b60008061086d61106b565b905061088e81858561087f8589610e68565b6108899190612870565b611073565b600191505092915050565b6108aa6108a461106b565b8261187f565b50565b7f9f2df0fed2c77648de5860a4cc508cd0818c85b8b8a1ab4ceeef8d981c8956a66108d781611541565b600073ffffffffffffffffffffffffffffffffffffffff168373ffffffffffffffffffffffffffffffffffffffff160361093d576040517fd92e233d00000000000000000000000000000000000000000000000000000000815260040160405180910390fd5b6001821015610978576040517f2258a01b00000000000000000000000000000000000000000000000000000000815260040160405180910390fd5b6109828383611a4e565b817f74bc41c8c90c2bfabc17022a2cabc7101fd5cae91514cead64171fb205e9a3f9846040516109b291906128b3565b60405180910390a2505050565b6000603360008373ffffffffffffffffffffffffffffffffffffffff1673ffffffffffffffffffffffffffffffffffffffff168152602001908152602001600020549050919050565b610a1a82610a1461106b565b8361123c565b610a24828261187f565b5050565b600060c9600084815260200190815260200160002060000160008373ffffffffffffffffffffffffffffffffffffffff1673ffffffffffffffffffffffffffffffffffffffff16815260200190815260200160002060009054906101000a900460ff16905092915050565b606060378054610aa29061277e565b80601f0160208091040260200160405190810160405280929190818152602001828054610ace9061277e565b8015610b1b5780601f10610af057610100808354040283529160200191610b1b565b820191906000526020600020905b815481529060010190602001808311610afe57829003601f168201915b5050505050905090565b6000801b81565b600080610b3761106b565b90506000610b458286610e68565b905083811015610b8a576040517f08c379a0000000000000000000000000000000000000000000000000000000008152600401610b8190612940565b60405180910390fd5b610b978286868403611073565b60019250505092915050565b600080610bae61106b565b9050610bbb8185856112c8565b600191505092915050565b60008060019054906101000a900460ff16159050808015610bf75750600160008054906101000a900460ff1660ff16105b80610c245750610c0630611ba5565b158015610c235750600160008054906101000a900460ff1660ff16145b5b610c63576040517f08c379a0000000000000000000000000000000000000000000000000000000008152600401610c5a906129d2565b60405180910390fd5b60016000806101000a81548160ff021916908360ff1602179055508015610ca0576001600060016101000a81548160ff0219169083151502179055505b8160fb60006101000a81548173ffffffffffffffffffffffffffffffffffffffff021916908373ffffffffffffffffffffffffffffffffffffffff160217905550610d556040518060400160405280600581526020017f4d426c6f780000000000000000000000000000000000000000000000000000008152506040518060400160405280600581526020017f4d424c4f58000000000000000000000000000000000000000000000000000000815250611bc8565b610d5d611c25565b610d65611c76565b610d726000801b3361178f565b610d9c7f9f2df0fed2c77648de5860a4cc508cd0818c85b8b8a1ab4ceeef8d981c8956a63361178f565b610dc67f3c11d16cbaffd01df69ce1c404f6340ee057498f5f00246190ea54220576a8483361178f565b8015610e1f5760008060016101000a81548160ff0219169083151502179055507f7f26b83ff96e1f2b6a682f133852f6798a09c465da95921460cefb38474024986001604051610e169190612a37565b60405180910390a15b5050565b7f9f2df0fed2c77648de5860a4cc508cd0818c85b8b8a1ab4ceeef8d981c8956a681565b610e50826106a9565b610e5981611541565b610e63838361179d565b505050565b6000603460008473ffffffffffffffffffffffffffffffffffffffff1673ffffffffffffffffffffffffffffffffffffffff16815260200190815260200160002060008373ffffffffffffffffffffffffffffffffffffffff1673ffffffffffffffffffffffffffffffffffffffff16815260200190815260200160002054905092915050565b7f3c11d16cbaffd01df69ce1c404f6340ee057498f5f00246190ea54220576a848610f1981611541565b600073ffffffffffffffffffffffffffffffffffffffff168373ffffffffffffffffffffffffffffffffffffffff1603610f7f576040517fd92e233d00000000000000000000000000000000000000000000000000000000815260040160405180910390fd5b6001821015610fba576040517f2258a01b00000000000000000000000000000000000000000000000000000000815260040160405180910390fd5b610fc4838361187f565b817f200760f4e36dc8b2c508ba1ea85d38febfa8c9915b2a94f8102c3a7a8ce8905f84604051610ff491906128b3565b60405180910390a2505050565b60007f01ffc9a7000000000000000000000000000000000000000000000000000000007bffffffffffffffffffffffffffffffffffffffffffffffffffffffff1916827bffffffffffffffffffffffffffffffffffffffffffffffffffffffff1916149050919050565b600033905090565b600073ffffffffffffffffffffffffffffffffffffffff168373ffffffffffffffffffffffffffffffffffffffff16036110e2576040517f08c379a00000000000000000000000000000000000000000000000000000000081526004016110d990612ac4565b60405180910390fd5b600073ffffffffffffffffffffffffffffffffffffffff168273ffffffffffffffffffffffffffffffffffffffff1603611151576040517f08c379a000000000000000000000000000000000000000000000000000000000815260040161114890612b56565b60405180910390fd5b80603460008573ffffffffffffffffffffffffffffffffffffffff1673ffffffffffffffffffffffffffffffffffffffff16815260200190815260200160002060008473ffffffffffffffffffffffffffffffffffffffff1673ffffffffffffffffffffffffffffffffffffffff168152602001908152602001600020819055508173ffffffffffffffffffffffffffffffffffffffff168373ffffffffffffffffffffffffffffffffffffffff167f8c5be1e5ebec7d5bd14f71427d1e84f3dd0314c0f7b2291e5b200ac8c7c3b9258360405161122f91906123b2565b60405180910390a3505050565b60006112488484610e68565b90507fffffffffffffffffffffffffffffffffffffffffffffffffffffffffffffffff81146112c257818110156112b4576040517f08c379a00000000000000000000000000000000000000000000000000000000081526004016112ab90612bc2565b60405180910390fd5b6112c18484848403611073565b5b50505050565b600073ffffffffffffffffffffffffffffffffffffffff168373ffffffffffffffffffffffffffffffffffffffff1603611337576040517f08c379a000000000000000000000000000000000000000000000000000000000815260040161132e90612c54565b60405180910390fd5b600073ffffffffffffffffffffffffffffffffffffffff168273ffffffffffffffffffffffffffffffffffffffff16036113a6576040517f08c379a000000000000000000000000000000000000000000000000000000000815260040161139d90612ce6565b60405180910390fd5b6113b1838383611cc7565b6000603360008573ffffffffffffffffffffffffffffffffffffffff1673ffffffffffffffffffffffffffffffffffffffff16815260200190815260200160002054905081811015611438576040517f08c379a000000000000000000000000000000000000000000000000000000000815260040161142f90612d78565b60405180910390fd5b818103603360008673ffffffffffffffffffffffffffffffffffffffff1673ffffffffffffffffffffffffffffffffffffffff1681526020019081526020016000208190555081603360008573ffffffffffffffffffffffffffffffffffffffff1673ffffffffffffffffffffffffffffffffffffffff168152602001908152602001600020600082825401925050819055508273ffffffffffffffffffffffffffffffffffffffff168473ffffffffffffffffffffffffffffffffffffffff167fddf252ad1be2c89b69c2b068fc378daa952ba7f163c4a11628f55a4df523b3ef8460405161152891906123b2565b60405180910390a361153b848484611ccc565b50505050565b6115528161154d61106b565b611cd1565b50565b61155f8282610a28565b61163257600160c9600084815260200190815260200160002060000160008373ffffffffffffffffffffffffffffffffffffffff1673ffffffffffffffffffffffffffffffffffffffff16815260200190815260200160002060006101000a81548160ff0219169083151502179055506115d761106b565b73ffffffffffffffffffffffffffffffffffffffff168173ffffffffffffffffffffffffffffffffffffffff16837f2f8788117e7eff1d82e926ec794901d17c78024a50270940304540a733656f0d60405160405180910390a45b5050565b60fc816040516116469190612ddf565b908152602001604051809103902060009054906101000a900460ff1615611699576040517f8baa579f00000000000000000000000000000000000000000000000000000000815260040160405180910390fd5b6000826040516020016116ac91906128b3565b604051602081830303815290604052905060006116c98284611d56565b905060fb60009054906101000a900473ffffffffffffffffffffffffffffffffffffffff1673ffffffffffffffffffffffffffffffffffffffff168173ffffffffffffffffffffffffffffffffffffffff1614611752576040517f8baa579f00000000000000000000000000000000000000000000000000000000815260040160405180910390fd5b600160fc846040516117649190612ddf565b908152602001604051809103902060006101000a81548160ff02191690831515021790555050505050565b6117998282611555565b5050565b6117a78282610a28565b1561187b57600060c9600084815260200190815260200160002060000160008373ffffffffffffffffffffffffffffffffffffffff1673ffffffffffffffffffffffffffffffffffffffff16815260200190815260200160002060006101000a81548160ff02191690831515021790555061182061106b565b73ffffffffffffffffffffffffffffffffffffffff168173ffffffffffffffffffffffffffffffffffffffff16837ff6391f5c32d9c69d2a47ea670b442974b53935d1edc7fd64eb21e047a839171b60405160405180910390a45b5050565b600073ffffffffffffffffffffffffffffffffffffffff168273ffffffffffffffffffffffffffffffffffffffff16036118ee576040517f08c379a00000000000000000000000000000000000000000000000000000000081526004016118e590612e68565b60405180910390fd5b6118fa82600083611cc7565b6000603360008473ffffffffffffffffffffffffffffffffffffffff1673ffffffffffffffffffffffffffffffffffffffff16815260200190815260200160002054905081811015611981576040517f08c379a000000000000000000000000000000000000000000000000000000000815260040161197890612efa565b60405180910390fd5b818103603360008573ffffffffffffffffffffffffffffffffffffffff1673ffffffffffffffffffffffffffffffffffffffff1681526020019081526020016000208190555081603560008282540392505081905550600073ffffffffffffffffffffffffffffffffffffffff168373ffffffffffffffffffffffffffffffffffffffff167fddf252ad1be2c89b69c2b068fc378daa952ba7f163c4a11628f55a4df523b3ef84604051611a3591906123b2565b60405180910390a3611a4983600084611ccc565b505050565b600073ffffffffffffffffffffffffffffffffffffffff168273ffffffffffffffffffffffffffffffffffffffff1603611abd576040517f08c379a0000000000000000000000000000000000000000000000000000000008152600401611ab490612f66565b60405180910390fd5b611ac960008383611cc7565b8060356000828254611adb9190612870565b9250508190555080603360008473ffffffffffffffffffffffffffffffffffffffff1673ffffffffffffffffffffffffffffffffffffffff168152602001908152602001600020600082825401925050819055508173ffffffffffffffffffffffffffffffffffffffff16600073ffffffffffffffffffffffffffffffffffffffff167fddf252ad1be2c89b69c2b068fc378daa952ba7f163c4a11628f55a4df523b3ef83604051611b8d91906123b2565b60405180910390a3611ba160008383611ccc565b5050565b6000808273ffffffffffffffffffffffffffffffffffffffff163b119050919050565b600060019054906101000a900460ff16611c17576040517f08c379a0000000000000000000000000000000000000000000000000000000008152600401611c0e90612ff8565b60405180910390fd5b611c218282611dda565b5050565b600060019054906101000a900460ff16611c74576040517f08c379a0000000000000000000000000000000000000000000000000000000008152600401611c6b90612ff8565b60405180910390fd5b565b600060019054906101000a900460ff16611cc5576040517f08c379a0000000000000000000000000000000000000000000000000000000008152600401611cbc90612ff8565b60405180910390fd5b565b505050565b505050565b611cdb8282610a28565b611d5257611ce881611e4d565b611cf68360001c6020611e7a565b604051602001611d079291906130ec565b6040516020818303038152906040526040517f08c379a0000000000000000000000000000000000000000000000000000000008152600401611d4991906122ad565b60405180910390fd5b5050565b600080611d6984805190602001206120b6565b90506000806000611d79866120e6565b92509250925060018482858560405160008152602001604052604051611da29493929190613126565b6020604051602081039080840390855afa158015611dc4573d6000803e3d6000fd5b5050506020604051035194505050505092915050565b600060019054906101000a900460ff16611e29576040517f08c379a0000000000000000000000000000000000000000000000000000000008152600401611e2090612ff8565b60405180910390fd5b8160369081611e38919061330d565b508060379081611e48919061330d565b505050565b6060611e738273ffffffffffffffffffffffffffffffffffffffff16601460ff16611e7a565b9050919050565b606060006002836002611e8d91906133df565b611e979190612870565b67ffffffffffffffff811115611eb057611eaf61252e565b5b6040519080825280601f01601f191660200182016040528015611ee25781602001600182028036833780820191505090505b5090507f300000000000000000000000000000000000000000000000000000000000000081600081518110611f1a57611f19613421565b5b60200101907effffffffffffffffffffffffffffffffffffffffffffffffffffffffffffff1916908160001a9053507f780000000000000000000000000000000000000000000000000000000000000081600181518110611f7e57611f7d613421565b5b60200101907effffffffffffffffffffffffffffffffffffffffffffffffffffffffffffff1916908160001a90535060006001846002611fbe91906133df565b611fc89190612870565b90505b6001811115612068577f3031323334353637383961626364656600000000000000000000000000000000600f86166010811061200a57612009613421565b5b1a60f81b82828151811061202157612020613421565b5b60200101907effffffffffffffffffffffffffffffffffffffffffffffffffffffffffffff1916908160001a905350600485901c94508061206190613450565b9050611fcb565b50600084146120ac576040517f08c379a00000000000000000000000000000000000000000000000000000000081526004016120a3906134c5565b60405180910390fd5b8091505092915050565b6000816040516020016120c99190613552565b604051602081830303815290604052805190602001209050919050565b6000806000604184511461212f576040517f08c379a0000000000000000000000000000000000000000000000000000000008152600401612126906135c4565b60405180910390fd5b6020840151925060408401519150606084015160001a90509193909250565b6000604051905090565b600080fd5b600080fd5b60007fffffffff0000000000000000000000000000000000000000000000000000000082169050919050565b61219781612162565b81146121a257600080fd5b50565b6000813590506121b48161218e565b92915050565b6000602082840312156121d0576121cf612158565b5b60006121de848285016121a5565b91505092915050565b60008115159050919050565b6121fc816121e7565b82525050565b600060208201905061221760008301846121f3565b92915050565b600081519050919050565b600082825260208201905092915050565b60005b8381101561225757808201518184015260208101905061223c565b60008484015250505050565b6000601f19601f8301169050919050565b600061227f8261221d565b6122898185612228565b9350612299818560208601612239565b6122a281612263565b840191505092915050565b600060208201905081810360008301526122c78184612274565b905092915050565b600073ffffffffffffffffffffffffffffffffffffffff82169050919050565b60006122fa826122cf565b9050919050565b61230a816122ef565b811461231557600080fd5b50565b60008135905061232781612301565b92915050565b6000819050919050565b6123408161232d565b811461234b57600080fd5b50565b60008135905061235d81612337565b92915050565b6000806040838503121561237a57612379612158565b5b600061238885828601612318565b92505060206123998582860161234e565b9150509250929050565b6123ac8161232d565b82525050565b60006020820190506123c760008301846123a3565b92915050565b6000806000606084860312156123e6576123e5612158565b5b60006123f486828701612318565b935050602061240586828701612318565b92505060406124168682870161234e565b9150509250925092565b6000819050919050565b61243381612420565b811461243e57600080fd5b50565b6000813590506124508161242a565b92915050565b60006020828403121561246c5761246b612158565b5b600061247a84828501612441565b91505092915050565b61248c81612420565b82525050565b60006020820190506124a76000830184612483565b92915050565b600080604083850312156124c4576124c3612158565b5b60006124d285828601612441565b92505060206124e385828601612318565b9150509250929050565b600060ff82169050919050565b612503816124ed565b82525050565b600060208201905061251e60008301846124fa565b92915050565b600080fd5b600080fd5b7f4e487b7100000000000000000000000000000000000000000000000000000000600052604160045260246000fd5b61256682612263565b810181811067ffffffffffffffff821117156125855761258461252e565b5b80604052505050565b600061259861214e565b90506125a4828261255d565b919050565b600067ffffffffffffffff8211156125c4576125c361252e565b5b6125cd82612263565b9050602081019050919050565b82818337600083830152505050565b60006125fc6125f7846125a9565b61258e565b90508281526020810184848401111561261857612617612529565b5b6126238482856125da565b509392505050565b600082601f8301126126405761263f612524565b5b81356126508482602086016125e9565b91505092915050565b600080604083850312156126705761266f612158565b5b600061267e85828601612318565b925050602083013567ffffffffffffffff81111561269f5761269e61215d565b5b6126ab8582860161262b565b9150509250929050565b6000602082840312156126cb576126ca612158565b5b60006126d98482850161234e565b91505092915050565b6000602082840312156126f8576126f7612158565b5b600061270684828501612318565b91505092915050565b6000806040838503121561272657612725612158565b5b600061273485828601612318565b925050602061274585828601612318565b9150509250929050565b7f4e487b7100000000000000000000000000000000000000000000000000000000600052602260045260246000fd5b6000600282049050600182168061279657607f821691505b6020821081036127a9576127a861274f565b5b50919050565b7f416363657373436f6e74726f6c3a2063616e206f6e6c792072656e6f756e636560008201527f20726f6c657320666f722073656c660000000000000000000000000000000000602082015250565b600061280b602f83612228565b9150612816826127af565b604082019050919050565b6000602082019050818103600083015261283a816127fe565b9050919050565b7f4e487b7100000000000000000000000000000000000000000000000000000000600052601160045260246000fd5b600061287b8261232d565b91506128868361232d565b925082820190508082111561289e5761289d612841565b5b92915050565b6128ad816122ef565b82525050565b60006020820190506128c860008301846128a4565b92915050565b7f45524332303a2064656372656173656420616c6c6f77616e63652062656c6f7760008201527f207a65726f000000000000000000000000000000000000000000000000000000602082015250565b600061292a602583612228565b9150612935826128ce565b604082019050919050565b600060208201905081810360008301526129598161291d565b9050919050565b7f496e697469616c697a61626c653a20636f6e747261637420697320616c72656160008201527f647920696e697469616c697a6564000000000000000000000000000000000000602082015250565b60006129bc602e83612228565b91506129c782612960565b604082019050919050565b600060208201905081810360008301526129eb816129af565b9050919050565b6000819050919050565b6000819050919050565b6000612a21612a1c612a17846129f2565b6129fc565b6124ed565b9050919050565b612a3181612a06565b82525050565b6000602082019050612a4c6000830184612a28565b92915050565b7f45524332303a20617070726f76652066726f6d20746865207a65726f2061646460008201527f7265737300000000000000000000000000000000000000000000000000000000602082015250565b6000612aae602483612228565b9150612ab982612a52565b604082019050919050565b60006020820190508181036000830152612add81612aa1565b9050919050565b7f45524332303a20617070726f766520746f20746865207a65726f20616464726560008201527f7373000000000000000000000000000000000000000000000000000000000000602082015250565b6000612b40602283612228565b9150612b4b82612ae4565b604082019050919050565b60006020820190508181036000830152612b6f81612b33565b9050919050565b7f45524332303a20696e73756666696369656e7420616c6c6f77616e6365000000600082015250565b6000612bac601d83612228565b9150612bb782612b76565b602082019050919050565b60006020820190508181036000830152612bdb81612b9f565b9050919050565b7f45524332303a207472616e736665722066726f6d20746865207a65726f20616460008201527f6472657373000000000000000000000000000000000000000000000000000000602082015250565b6000612c3e602583612228565b9150612c4982612be2565b604082019050919050565b60006020820190508181036000830152612c6d81612c31565b9050919050565b7f45524332303a207472616e7366657220746f20746865207a65726f206164647260008201527f6573730000000000000000000000000000000000000000000000000000000000602082015250565b6000612cd0602383612228565b9150612cdb82612c74565b604082019050919050565b60006020820190508181036000830152612cff81612cc3565b9050919050565b7f45524332303a207472616e7366657220616d6f756e742065786365656473206260008201527f616c616e63650000000000000000000000000000000000000000000000000000602082015250565b6000612d62602683612228565b9150612d6d82612d06565b604082019050919050565b60006020820190508181036000830152612d9181612d55565b9050919050565b600081519050919050565b600081905092915050565b6000612db982612d98565b612dc38185612da3565b9350612dd3818560208601612239565b80840191505092915050565b6000612deb8284612dae565b915081905092915050565b7f45524332303a206275726e2066726f6d20746865207a65726f2061646472657360008201527f7300000000000000000000000000000000000000000000000000000000000000602082015250565b6000612e52602183612228565b9150612e5d82612df6565b604082019050919050565b60006020820190508181036000830152612e8181612e45565b9050919050565b7f45524332303a206275726e20616d6f756e7420657863656564732062616c616e60008201527f6365000000000000000000000000000000000000000000000000000000000000602082015250565b6000612ee4602283612228565b9150612eef82612e88565b604082019050919050565b60006020820190508181036000830152612f1381612ed7565b9050919050565b7f45524332303a206d696e7420746f20746865207a65726f206164647265737300600082015250565b6000612f50601f83612228565b9150612f5b82612f1a565b602082019050919050565b60006020820190508181036000830152612f7f81612f43565b9050919050565b7f496e697469616c697a61626c653a20636f6e7472616374206973206e6f74206960008201527f6e697469616c697a696e67000000000000000000000000000000000000000000602082015250565b6000612fe2602b83612228565b9150612fed82612f86565b604082019050919050565b6000602082019050818103600083015261301181612fd5565b9050919050565b600081905092915050565b7f416363657373436f6e74726f6c3a206163636f756e7420000000000000000000600082015250565b6000613059601783613018565b915061306482613023565b601782019050919050565b600061307a8261221d565b6130848185613018565b9350613094818560208601612239565b80840191505092915050565b7f206973206d697373696e6720726f6c6520000000000000000000000000000000600082015250565b60006130d6601183613018565b91506130e1826130a0565b601182019050919050565b60006130f78261304c565b9150613103828561306f565b915061310e826130c9565b915061311a828461306f565b91508190509392505050565b600060808201905061313b6000830187612483565b61314860208301866124fa565b6131556040830185612483565b6131626060830184612483565b95945050505050565b60008190508160005260206000209050919050565b60006020601f8301049050919050565b600082821b905092915050565b6000600883026131cd7fffffffffffffffffffffffffffffffffffffffffffffffffffffffffffffffff82613190565b6131d78683613190565b95508019841693508086168417925050509392505050565b600061320a6132056132008461232d565b6129fc565b61232d565b9050919050565b6000819050919050565b613224836131ef565b61323861323082613211565b84845461319d565b825550505050565b600090565b61324d613240565b61325881848461321b565b505050565b5b8181101561327c57613271600082613245565b60018101905061325e565b5050565b601f8211156132c1576132928161316b565b61329b84613180565b810160208510156132aa578190505b6132be6132b685613180565b83018261325d565b50505b505050565b600082821c905092915050565b60006132e4600019846008026132c6565b1980831691505092915050565b60006132fd83836132d3565b9150826002028217905092915050565b6133168261221d565b67ffffffffffffffff81111561332f5761332e61252e565b5b613339825461277e565b613344828285613280565b600060209050601f8311600181146133775760008415613365578287015190505b61336f85826132f1565b8655506133d7565b601f1984166133858661316b565b60005b828110156133ad57848901518255600182019150602085019450602081019050613388565b868310156133ca57848901516133c6601f8916826132d3565b8355505b6001600288020188555050505b505050505050565b60006133ea8261232d565b91506133f58361232d565b92508282026134038161232d565b9150828204841483151761341a57613419612841565b5b5092915050565b7f4e487b7100000000000000000000000000000000000000000000000000000000600052603260045260246000fd5b600061345b8261232d565b91506000820361346e5761346d612841565b5b600182039050919050565b7f537472696e67733a20686578206c656e67746820696e73756666696369656e74600082015250565b60006134af602083612228565b91506134ba82613479565b602082019050919050565b600060208201905081810360008301526134de816134a2565b9050919050565b7f19457468657265756d205369676e6564204d6573736167653a0a333200000000600082015250565b600061351b601c83613018565b9150613526826134e5565b601c82019050919050565b6000819050919050565b61354c61354782612420565b613531565b82525050565b600061355d8261350e565b9150613569828461353b565b60208201915081905092915050565b7f5369673a20496e76616c6964207369676e6174757265206c656e677468000000600082015250565b60006135ae601d83612228565b91506135b982613578565b602082019050919050565b600060208201905081810360008301526135dd816135a1565b905091905056fea2646970667358221220ae8f842f4c58812f8751437f27e5e56b7137474444abe41c4e9e884a9f71f96864736f6c63430008110033",
  "linkReferences": {},
  "deployedLinkReferences": {}
}