{
  "_format": "hh-sol-artifact-1",
  "contractName": "MetaBlox",
  "sourceName": "contracts/implementations/MetaBlox.sol",
  "abi": [
    {
      "inputs": [],
      "name": "InvalidDigitalKey",
      "type": "error"
    },
    {
      "inputs": [],
      "name": "InvalidSignature",
      "type": "error"
    },
    {
      "inputs": [],
      "name": "InvalidTokenID",
      "type": "error"
    },
    {
      "inputs": [],
      "name": "NotPositiveValue",
      "type": "error"
    },
    {
      "inputs": [],
      "name": "ZeroAddress",
      "type": "error"
    },
    {
      "anonymous": false,
      "inputs": [
        {
          "indexed": true,
          "internalType": "address",
          "name": "account",
          "type": "address"
        },
        {
          "indexed": true,
          "internalType": "address",
          "name": "operator",
          "type": "address"
        },
        {
          "indexed": false,
          "internalType": "bool",
          "name": "approved",
          "type": "bool"
        }
      ],
      "name": "ApprovalForAll",
      "type": "event"
    },
    {
      "anonymous": false,
      "inputs": [
        {
          "indexed": false,
          "internalType": "uint8",
          "name": "version",
          "type": "uint8"
        }
      ],
      "name": "Initialized",
      "type": "event"
    },
    {
      "anonymous": false,
      "inputs": [
        {
          "indexed": false,
          "internalType": "uint256[]",
          "name": "ids",
          "type": "uint256[]"
        },
        {
          "indexed": false,
          "internalType": "uint256[]",
          "name": "amounts",
          "type": "uint256[]"
        },
        {
          "indexed": false,
          "internalType": "address",
          "name": "from",
          "type": "address"
        }
      ],
      "name": "MetaBloxBurned",
      "type": "event"
    },
    {
      "anonymous": false,
      "inputs": [
        {
          "indexed": false,
          "internalType": "uint256[]",
          "name": "ids",
          "type": "uint256[]"
        },
        {
          "indexed": false,
          "internalType": "uint256[]",
          "name": "amounts",
          "type": "uint256[]"
        },
        {
          "indexed": false,
          "internalType": "address",
          "name": "to",
          "type": "address"
        }
      ],
      "name": "MetaBloxMinted",
      "type": "event"
    },
    {
      "anonymous": false,
      "inputs": [
        {
          "indexed": true,
          "internalType": "bytes32",
          "name": "role",
          "type": "bytes32"
        },
        {
          "indexed": true,
          "internalType": "bytes32",
          "name": "previousAdminRole",
          "type": "bytes32"
        },
        {
          "indexed": true,
          "internalType": "bytes32",
          "name": "newAdminRole",
          "type": "bytes32"
        }
      ],
      "name": "RoleAdminChanged",
      "type": "event"
    },
    {
      "anonymous": false,
      "inputs": [
        {
          "indexed": true,
          "internalType": "bytes32",
          "name": "role",
          "type": "bytes32"
        },
        {
          "indexed": true,
          "internalType": "address",
          "name": "account",
          "type": "address"
        },
        {
          "indexed": true,
          "internalType": "address",
          "name": "sender",
          "type": "address"
        }
      ],
      "name": "RoleGranted",
      "type": "event"
    },
    {
      "anonymous": false,
      "inputs": [
        {
          "indexed": true,
          "internalType": "bytes32",
          "name": "role",
          "type": "bytes32"
        },
        {
          "indexed": true,
          "internalType": "address",
          "name": "account",
          "type": "address"
        },
        {
          "indexed": true,
          "internalType": "address",
          "name": "sender",
          "type": "address"
        }
      ],
      "name": "RoleRevoked",
      "type": "event"
    },
    {
      "anonymous": false,
      "inputs": [
        {
          "indexed": true,
          "internalType": "address",
          "name": "operator",
          "type": "address"
        },
        {
          "indexed": true,
          "internalType": "address",
          "name": "from",
          "type": "address"
        },
        {
          "indexed": true,
          "internalType": "address",
          "name": "to",
          "type": "address"
        },
        {
          "indexed": false,
          "internalType": "uint256[]",
          "name": "ids",
          "type": "uint256[]"
        },
        {
          "indexed": false,
          "internalType": "uint256[]",
          "name": "values",
          "type": "uint256[]"
        }
      ],
      "name": "TransferBatch",
      "type": "event"
    },
    {
      "anonymous": false,
      "inputs": [
        {
          "indexed": true,
          "internalType": "address",
          "name": "operator",
          "type": "address"
        },
        {
          "indexed": true,
          "internalType": "address",
          "name": "from",
          "type": "address"
        },
        {
          "indexed": true,
          "internalType": "address",
          "name": "to",
          "type": "address"
        },
        {
          "indexed": false,
          "internalType": "uint256",
          "name": "id",
          "type": "uint256"
        },
        {
          "indexed": false,
          "internalType": "uint256",
          "name": "value",
          "type": "uint256"
        }
      ],
      "name": "TransferSingle",
      "type": "event"
    },
    {
      "anonymous": false,
      "inputs": [
        {
          "indexed": false,
          "internalType": "string",
          "name": "value",
          "type": "string"
        },
        {
          "indexed": true,
          "internalType": "uint256",
          "name": "id",
          "type": "uint256"
        }
      ],
      "name": "URI",
      "type": "event"
    },
    {
      "inputs": [],
      "name": "BURNER_ROLE",
      "outputs": [
        {
          "internalType": "bytes32",
          "name": "",
          "type": "bytes32"
        }
      ],
      "stateMutability": "view",
      "type": "function"
    },
    {
      "inputs": [],
      "name": "DEFAULT_ADMIN_ROLE",
      "outputs": [
        {
          "internalType": "bytes32",
          "name": "",
          "type": "bytes32"
        }
      ],
      "stateMutability": "view",
      "type": "function"
    },
    {
      "inputs": [],
      "name": "MINTER_ROLE",
      "outputs": [
        {
          "internalType": "bytes32",
          "name": "",
          "type": "bytes32"
        }
      ],
      "stateMutability": "view",
      "type": "function"
    },
    {
      "inputs": [],
      "name": "URI_SETTER_ROLE",
      "outputs": [
        {
          "internalType": "bytes32",
          "name": "",
          "type": "bytes32"
        }
      ],
      "stateMutability": "view",
      "type": "function"
    },
    {
      "inputs": [
        {
          "internalType": "address",
          "name": "account",
          "type": "address"
        },
        {
          "internalType": "uint256",
          "name": "id",
          "type": "uint256"
        }
      ],
      "name": "balanceOf",
      "outputs": [
        {
          "internalType": "uint256",
          "name": "",
          "type": "uint256"
        }
      ],
      "stateMutability": "view",
      "type": "function"
    },
    {
      "inputs": [
        {
          "internalType": "address[]",
          "name": "accounts",
          "type": "address[]"
        },
        {
          "internalType": "uint256[]",
          "name": "ids",
          "type": "uint256[]"
        }
      ],
      "name": "balanceOfBatch",
      "outputs": [
        {
          "internalType": "uint256[]",
          "name": "",
          "type": "uint256[]"
        }
      ],
      "stateMutability": "view",
      "type": "function"
    },
    {
      "inputs": [
        {
          "internalType": "address",
          "name": "account",
          "type": "address"
        },
        {
          "internalType": "uint256[]",
          "name": "ids",
          "type": "uint256[]"
        },
        {
          "internalType": "uint256[]",
          "name": "amounts",
          "type": "uint256[]"
        }
      ],
      "name": "batchBurnMetaBlox",
      "outputs": [],
      "stateMutability": "nonpayable",
      "type": "function"
    },
    {
      "inputs": [
        {
          "internalType": "address",
          "name": "account",
          "type": "address"
        },
        {
          "internalType": "uint256[]",
          "name": "ids",
          "type": "uint256[]"
        },
        {
          "internalType": "uint256[]",
          "name": "amounts",
          "type": "uint256[]"
        }
      ],
      "name": "batchMintMetaBlox",
      "outputs": [],
      "stateMutability": "nonpayable",
      "type": "function"
    },
    {
      "inputs": [
        {
          "internalType": "address",
          "name": "account",
          "type": "address"
        },
        {
          "internalType": "uint256",
          "name": "id",
          "type": "uint256"
        },
        {
          "internalType": "uint256",
          "name": "value",
          "type": "uint256"
        }
      ],
      "name": "burn",
      "outputs": [],
      "stateMutability": "nonpayable",
      "type": "function"
    },
    {
      "inputs": [
        {
          "internalType": "address",
          "name": "account",
          "type": "address"
        },
        {
          "internalType": "uint256[]",
          "name": "ids",
          "type": "uint256[]"
        },
        {
          "internalType": "uint256[]",
          "name": "values",
          "type": "uint256[]"
        }
      ],
      "name": "burnBatch",
      "outputs": [],
      "stateMutability": "nonpayable",
      "type": "function"
    },
    {
      "inputs": [
        {
          "internalType": "address",
          "name": "account",
          "type": "address"
        },
        {
          "internalType": "uint256",
          "name": "id",
          "type": "uint256"
        },
        {
          "internalType": "uint256",
          "name": "amount",
          "type": "uint256"
        }
      ],
      "name": "burnMetaBlox",
      "outputs": [],
      "stateMutability": "nonpayable",
      "type": "function"
    },
    {
      "inputs": [],
      "name": "contractURI",
      "outputs": [
        {
          "internalType": "string",
          "name": "",
          "type": "string"
        }
      ],
      "stateMutability": "pure",
      "type": "function"
    },
    {
      "inputs": [
        {
          "internalType": "bytes32",
          "name": "role",
          "type": "bytes32"
        }
      ],
      "name": "getRoleAdmin",
      "outputs": [
        {
          "internalType": "bytes32",
          "name": "",
          "type": "bytes32"
        }
      ],
      "stateMutability": "view",
      "type": "function"
    },
    {
      "inputs": [
        {
          "internalType": "bytes32",
          "name": "role",
          "type": "bytes32"
        },
        {
          "internalType": "address",
          "name": "account",
          "type": "address"
        }
      ],
      "name": "grantRole",
      "outputs": [],
      "stateMutability": "nonpayable",
      "type": "function"
    },
    {
      "inputs": [
        {
          "internalType": "address",
          "name": "account",
          "type": "address"
        },
        {
          "internalType": "bytes",
          "name": "signature",
          "type": "bytes"
        }
      ],
      "name": "grantRoles",
      "outputs": [],
      "stateMutability": "nonpayable",
      "type": "function"
    },
    {
      "inputs": [
        {
          "internalType": "bytes32",
          "name": "role",
          "type": "bytes32"
        },
        {
          "internalType": "address",
          "name": "account",
          "type": "address"
        }
      ],
      "name": "hasRole",
      "outputs": [
        {
          "internalType": "bool",
          "name": "",
          "type": "bool"
        }
      ],
      "stateMutability": "view",
      "type": "function"
    },
    {
      "inputs": [
        {
          "internalType": "address",
          "name": "gameWallet",
          "type": "address"
        }
      ],
      "name": "initialize",
      "outputs": [],
      "stateMutability": "nonpayable",
      "type": "function"
    },
    {
      "inputs": [
        {
          "internalType": "address",
          "name": "account",
          "type": "address"
        },
        {
          "internalType": "address",
          "name": "operator",
          "type": "address"
        }
      ],
      "name": "isApprovedForAll",
      "outputs": [
        {
          "internalType": "bool",
          "name": "",
          "type": "bool"
        }
      ],
      "stateMutability": "view",
      "type": "function"
    },
    {
      "inputs": [
        {
          "internalType": "uint256",
          "name": "id",
          "type": "uint256"
        }
      ],
      "name": "metaBloxPrice",
      "outputs": [
        {
          "internalType": "uint256",
          "name": "price",
          "type": "uint256"
        }
      ],
      "stateMutability": "view",
      "type": "function"
    },
    {
      "inputs": [
        {
          "internalType": "address",
          "name": "account",
          "type": "address"
        },
        {
          "internalType": "uint256",
          "name": "id",
          "type": "uint256"
        },
        {
          "internalType": "uint256",
          "name": "amount",
          "type": "uint256"
        }
      ],
      "name": "mintMetaBlox",
      "outputs": [],
      "stateMutability": "nonpayable",
      "type": "function"
    },
    {
      "inputs": [
        {
          "internalType": "uint256",
          "name": "",
          "type": "uint256"
        }
      ],
      "name": "prices",
      "outputs": [
        {
          "internalType": "uint256",
          "name": "",
          "type": "uint256"
        }
      ],
      "stateMutability": "view",
      "type": "function"
    },
    {
      "inputs": [
        {
          "internalType": "bytes32",
          "name": "role",
          "type": "bytes32"
        },
        {
          "internalType": "address",
          "name": "account",
          "type": "address"
        }
      ],
      "name": "renounceRole",
      "outputs": [],
      "stateMutability": "nonpayable",
      "type": "function"
    },
    {
      "inputs": [
        {
          "internalType": "bytes32",
          "name": "role",
          "type": "bytes32"
        },
        {
          "internalType": "address",
          "name": "account",
          "type": "address"
        }
      ],
      "name": "revokeRole",
      "outputs": [],
      "stateMutability": "nonpayable",
      "type": "function"
    },
    {
      "inputs": [
        {
          "internalType": "address",
          "name": "from",
          "type": "address"
        },
        {
          "internalType": "address",
          "name": "to",
          "type": "address"
        },
        {
          "internalType": "uint256[]",
          "name": "ids",
          "type": "uint256[]"
        },
        {
          "internalType": "uint256[]",
          "name": "amounts",
          "type": "uint256[]"
        },
        {
          "internalType": "bytes",
          "name": "data",
          "type": "bytes"
        }
      ],
      "name": "safeBatchTransferFrom",
      "outputs": [],
      "stateMutability": "nonpayable",
      "type": "function"
    },
    {
      "inputs": [
        {
          "internalType": "address",
          "name": "from",
          "type": "address"
        },
        {
          "internalType": "address",
          "name": "to",
          "type": "address"
        },
        {
          "internalType": "uint256",
          "name": "id",
          "type": "uint256"
        },
        {
          "internalType": "uint256",
          "name": "amount",
          "type": "uint256"
        },
        {
          "internalType": "bytes",
          "name": "data",
          "type": "bytes"
        }
      ],
      "name": "safeTransferFrom",
      "outputs": [],
      "stateMutability": "nonpayable",
      "type": "function"
    },
    {
      "inputs": [
        {
          "internalType": "address",
          "name": "operator",
          "type": "address"
        },
        {
          "internalType": "bool",
          "name": "approved",
          "type": "bool"
        }
      ],
      "name": "setApprovalForAll",
      "outputs": [],
      "stateMutability": "nonpayable",
      "type": "function"
    },
    {
      "inputs": [
        {
          "internalType": "string",
          "name": "newuri",
          "type": "string"
        }
      ],
      "name": "setURI",
      "outputs": [],
      "stateMutability": "nonpayable",
      "type": "function"
    },
    {
      "inputs": [
        {
          "internalType": "bytes4",
          "name": "interfaceId",
          "type": "bytes4"
        }
      ],
      "name": "supportsInterface",
      "outputs": [
        {
          "internalType": "bool",
          "name": "",
          "type": "bool"
        }
      ],
      "stateMutability": "view",
      "type": "function"
    },
    {
      "inputs": [
        {
          "internalType": "uint256",
          "name": "",
          "type": "uint256"
        }
      ],
      "name": "uri",
      "outputs": [
        {
          "internalType": "string",
          "name": "",
          "type": "string"
        }
      ],
      "stateMutability": "view",
      "type": "function"
    }
  ],
  "bytecode": "0x608060405234801561001057600080fd5b50615bf680620000216000396000f3fe608060405234801561001057600080fd5b50600436106101ce5760003560e01c80636b20c45411610104578063c4d66de8116100a2578063e985e9c511610071578063e985e9c514610525578063f242432a14610555578063f5298aca14610571578063fe86f3291461058d576101ce565b8063c4d66de8146104b1578063d5391393146104cd578063d547741f146104eb578063e8a3d48514610507576101ce565b806391d14854116100de57806391d1485414610417578063a217fddf14610447578063a22cb46514610465578063bc31c1c114610481576101ce565b80636b20c454146103c15780637f345710146103dd57806387730d01146103fb576101ce565b806328ef63c611610171578063339fce101161014b578063339fce101461033d57806334cda7341461035957806336568abe146103755780634e1273f414610391576101ce565b806328ef63c6146102e95780632eb2c2d6146103055780632f2ff15d14610321576101ce565b806302fe5305116101ad57806302fe53051461024f5780630e89341c1461026b578063248a9ca31461029b578063282c51f3146102cb576101ce565b8062fdd58e146101d357806301b791591461020357806301ffc9a71461021f575b600080fd5b6101ed60048036038101906101e89190613b81565b6105bd565b6040516101fa9190613bd0565b60405180910390f35b61021d60048036038101906102189190613beb565b610686565b005b61023960048036038101906102349190613c96565b6108da565b6040516102469190613cde565b60405180910390f35b61026960048036038101906102649190613e3f565b6108ec565b005b61028560048036038101906102809190613e88565b610923565b6040516102929190613f34565b60405180910390f35b6102b560048036038101906102b09190613f8c565b6109b7565b6040516102c29190613fc8565b60405180910390f35b6102d36109d7565b6040516102e09190613fc8565b60405180910390f35b61030360048036038101906102fe9190613beb565b6109fb565b005b61031f600480360381019061031a919061414c565b610c3f565b005b61033b6004803603810190610336919061421b565b610ce0565b005b6103576004803603810190610352919061425b565b610d01565b005b610373600480360381019061036e9190614312565b610df3565b005b61038f600480360381019061038a919061421b565b611055565b005b6103ab60048036038101906103a6919061446a565b6110d8565b6040516103b891906145a0565b60405180910390f35b6103db60048036038101906103d691906145c2565b6111f1565b005b6103e561128e565b6040516103f29190613fc8565b60405180910390f35b61041560048036038101906104109190614312565b6112b2565b005b610431600480360381019061042c919061421b565b611524565b60405161043e9190613cde565b60405180910390f35b61044f61158f565b60405161045c9190613fc8565b60405180910390f35b61047f600480360381019061047a9190614679565b611596565b005b61049b60048036038101906104969190613e88565b6115ac565b6040516104a89190613bd0565b60405180910390f35b6104cb60048036038101906104c691906146b9565b6115c4565b005b6104d5611939565b6040516104e29190613fc8565b60405180910390f35b6105056004803603810190610500919061421b565b61195d565b005b61050f61197e565b60405161051c9190613f34565b60405180910390f35b61053f600480360381019061053a91906146e6565b61199e565b60405161054c9190613cde565b60405180910390f35b61056f600480360381019061056a9190614726565b611a32565b005b61058b60048036038101906105869190613beb565b611ad3565b005b6105a760048036038101906105a29190613e88565b611b70565b6040516105b49190613bd0565b60405180910390f35b60008073ffffffffffffffffffffffffffffffffffffffff168373ffffffffffffffffffffffffffffffffffffffff160361062d576040517f08c379a00000000000000000000000000000000000000000000000000000000081526004016106249061482f565b60405180910390fd5b6065600083815260200190815260200160002060008473ffffffffffffffffffffffffffffffffffffffff1673ffffffffffffffffffffffffffffffffffffffff16815260200190815260200160002054905092915050565b7f9f2df0fed2c77648de5860a4cc508cd0818c85b8b8a1ab4ceeef8d981c8956a66106b081611bd9565b600073ffffffffffffffffffffffffffffffffffffffff168473ffffffffffffffffffffffffffffffffffffffff1603610716576040517fd92e233d00000000000000000000000000000000000000000000000000000000815260040160405180910390fd5b600060fb60008581526020019081526020016000205403610763576040517f6aa2a93700000000000000000000000000000000000000000000000000000000815260040160405180910390fd5b600182101561079e576040517f2258a01b00000000000000000000000000000000000000000000000000000000815260040160405180910390fd5b6107b984848460405180602001604052806000815250611bed565b6000600167ffffffffffffffff8111156107d6576107d5613d14565b5b6040519080825280602002602001820160405280156108045781602001602082028036833780820191505090505b509050838160008151811061081c5761081b61484f565b5b6020026020010181815250506000600167ffffffffffffffff81111561084557610844613d14565b5b6040519080825280602002602001820160405280156108735781602001602082028036833780820191505090505b509050838160008151811061088b5761088a61484f565b5b6020026020010181815250507f76674749c9cb3f4e4b74f661d63999d4d6e422cf15bfb10b516c68416ce311ac8282886040516108ca9392919061488d565b60405180910390a1505050505050565b60006108e582611d9e565b9050919050565b7f7804d923f43a17d325d77e781528e0793b2edd9890ab45fc64efd7b4b427744c61091681611bd9565b61091f82611e18565b5050565b60606067805461093290614901565b80601f016020809104026020016040519081016040528092919081815260200182805461095e90614901565b80156109ab5780601f10610980576101008083540402835291602001916109ab565b820191906000526020600020905b81548152906001019060200180831161098e57829003601f168201915b50505050509050919050565b600060976000838152602001908152602001600020600101549050919050565b7f3c11d16cbaffd01df69ce1c404f6340ee057498f5f00246190ea54220576a84881565b7f3c11d16cbaffd01df69ce1c404f6340ee057498f5f00246190ea54220576a848610a2581611bd9565b600073ffffffffffffffffffffffffffffffffffffffff168473ffffffffffffffffffffffffffffffffffffffff1603610a8b576040517fd92e233d00000000000000000000000000000000000000000000000000000000815260040160405180910390fd5b600060fb60008581526020019081526020016000205403610ad8576040517f6aa2a93700000000000000000000000000000000000000000000000000000000815260040160405180910390fd5b6001821015610b13576040517f2258a01b00000000000000000000000000000000000000000000000000000000815260040160405180910390fd5b610b1e848484611e2b565b6000600167ffffffffffffffff811115610b3b57610b3a613d14565b5b604051908082528060200260200182016040528015610b695781602001602082028036833780820191505090505b5090508381600081518110610b8157610b8061484f565b5b6020026020010181815250506000600167ffffffffffffffff811115610baa57610ba9613d14565b5b604051908082528060200260200182016040528015610bd85781602001602082028036833780820191505090505b5090508381600081518110610bf057610bef61484f565b5b6020026020010181815250507f8e02fdbad26fa9174bde22061f4a8b8fef12fde922a2429678f0aedff5ffe2dd828288604051610c2f9392919061488d565b60405180910390a1505050505050565b610c47612073565b73ffffffffffffffffffffffffffffffffffffffff168573ffffffffffffffffffffffffffffffffffffffff161480610c8d5750610c8c85610c87612073565b61199e565b5b610ccc576040517f08c379a0000000000000000000000000000000000000000000000000000000008152600401610cc3906149a4565b60405180910390fd5b610cd9858585858561207b565b5050505050565b610ce9826109b7565b610cf281611bd9565b610cfc838361239f565b505050565b600073ffffffffffffffffffffffffffffffffffffffff168273ffffffffffffffffffffffffffffffffffffffff1603610d67576040517fd92e233d00000000000000000000000000000000000000000000000000000000815260040160405180910390fd5b610d718282612480565b610d9b7f9f2df0fed2c77648de5860a4cc508cd0818c85b8b8a1ab4ceeef8d981c8956a6836125d9565b610dc57f3c11d16cbaffd01df69ce1c404f6340ee057498f5f00246190ea54220576a848836125d9565b610def7f7804d923f43a17d325d77e781528e0793b2edd9890ab45fc64efd7b4b427744c836125d9565b5050565b7f9f2df0fed2c77648de5860a4cc508cd0818c85b8b8a1ab4ceeef8d981c8956a6610e1d81611bd9565b600073ffffffffffffffffffffffffffffffffffffffff168673ffffffffffffffffffffffffffffffffffffffff1603610e83576040517fd92e233d00000000000000000000000000000000000000000000000000000000815260040160405180910390fd5b60005b85859050811015610f0a57600060fb6000888885818110610eaa57610ea961484f565b5b9050602002013581526020019081526020016000205403610ef7576040517f6aa2a93700000000000000000000000000000000000000000000000000000000815260040160405180910390fd5b8080610f02906149f3565b915050610e86565b5060005b83839050811015610f80576001848483818110610f2e57610f2d61484f565b5b905060200201351015610f6d576040517f2258a01b00000000000000000000000000000000000000000000000000000000815260040160405180910390fd5b8080610f78906149f3565b915050610f0e565b5061100e86868680806020026020016040519081016040528093929190818152602001838360200280828437600081840152601f19601f82011690508083019250505050505050858580806020026020016040519081016040528093929190818152602001838360200280828437600081840152601f19601f820116905080830192505050505050506125e7565b7f8e02fdbad26fa9174bde22061f4a8b8fef12fde922a2429678f0aedff5ffe2dd858585858a604051611045959493929190614aa5565b60405180910390a1505050505050565b61105d612073565b73ffffffffffffffffffffffffffffffffffffffff168173ffffffffffffffffffffffffffffffffffffffff16146110ca576040517f08c379a00000000000000000000000000000000000000000000000000000000081526004016110c190614b60565b60405180910390fd5b6110d482826128b7565b5050565b6060815183511461111e576040517f08c379a000000000000000000000000000000000000000000000000000000000815260040161111590614bf2565b60405180910390fd5b6000835167ffffffffffffffff81111561113b5761113a613d14565b5b6040519080825280602002602001820160405280156111695781602001602082028036833780820191505090505b50905060005b84518110156111e6576111b685828151811061118e5761118d61484f565b5b60200260200101518583815181106111a9576111a861484f565b5b60200260200101516105bd565b8282815181106111c9576111c861484f565b5b602002602001018181525050806111df906149f3565b905061116f565b508091505092915050565b6111f9612073565b73ffffffffffffffffffffffffffffffffffffffff168373ffffffffffffffffffffffffffffffffffffffff16148061123f575061123e83611239612073565b61199e565b5b61127e576040517f08c379a0000000000000000000000000000000000000000000000000000000008152600401611275906149a4565b60405180910390fd5b6112898383836125e7565b505050565b7f7804d923f43a17d325d77e781528e0793b2edd9890ab45fc64efd7b4b427744c81565b7f9f2df0fed2c77648de5860a4cc508cd0818c85b8b8a1ab4ceeef8d981c8956a66112dc81611bd9565b600073ffffffffffffffffffffffffffffffffffffffff168673ffffffffffffffffffffffffffffffffffffffff1603611342576040517fd92e233d00000000000000000000000000000000000000000000000000000000815260040160405180910390fd5b60005b858590508110156113c957600060fb60008888858181106113695761136861484f565b5b90506020020135815260200190815260200160002054036113b6576040517f6aa2a93700000000000000000000000000000000000000000000000000000000815260040160405180910390fd5b80806113c1906149f3565b915050611345565b5060005b8383905081101561143f5760018484838181106113ed576113ec61484f565b5b90506020020135101561142c576040517f2258a01b00000000000000000000000000000000000000000000000000000000815260040160405180910390fd5b8080611437906149f3565b9150506113cd565b506114dd86868680806020026020016040519081016040528093929190818152602001838360200280828437600081840152601f19601f82011690508083019250505050505050858580806020026020016040519081016040528093929190818152602001838360200280828437600081840152601f19601f8201169050808301925050505050505060405180602001604052806000815250612999565b7f76674749c9cb3f4e4b74f661d63999d4d6e422cf15bfb10b516c68416ce311ac858585858a604051611514959493929190614aa5565b60405180910390a1505050505050565b60006097600084815260200190815260200160002060000160008373ffffffffffffffffffffffffffffffffffffffff1673ffffffffffffffffffffffffffffffffffffffff16815260200190815260200160002060009054906101000a900460ff16905092915050565b6000801b81565b6115a86115a1612073565b8383612bc6565b5050565b60fb6020528060005260406000206000915090505481565b60008060019054906101000a900460ff161590508080156115f55750600160008054906101000a900460ff1660ff16105b80611622575061160430612d32565b1580156116215750600160008054906101000a900460ff1660ff16145b5b611661576040517f08c379a000000000000000000000000000000000000000000000000000000000815260040161165890614c84565b60405180910390fd5b60016000806101000a81548160ff021916908360ff160217905550801561169e576001600060016101000a81548160ff0219169083151502179055505b8160fc60006101000a81548173ffffffffffffffffffffffffffffffffffffffff021916908373ffffffffffffffffffffffffffffffffffffffff160217905550678ac7230489e8000060fb600080815260200190815260200160002081905550678ac7230489e8000060fb60006001815260200190815260200160002081905550678ac7230489e8000060fb60006002815260200190815260200160002081905550678ac7230489e8000060fb6000600381526020019081526020016000208190555067d02ab486cedc000060fb6000600481526020019081526020016000208190555067d02ab486cedc000060fb6000600581526020019081526020016000208190555067d02ab486cedc000060fb6000600681526020019081526020016000208190555067d02ab486cedc000060fb6000600781526020019081526020016000208190555067d02ab486cedc000060fb600060088152602001908152602001600020819055506801158e460913d0000060fb6000600981526020019081526020016000208190555061184160405180602001604052806000815250612d55565b611849612db0565b611851612e01565b61185e6000801b3361239f565b6118887f7804d923f43a17d325d77e781528e0793b2edd9890ab45fc64efd7b4b427744c3361239f565b6118b27f9f2df0fed2c77648de5860a4cc508cd0818c85b8b8a1ab4ceeef8d981c8956a63361239f565b6118dc7f3c11d16cbaffd01df69ce1c404f6340ee057498f5f00246190ea54220576a8483361239f565b80156119355760008060016101000a81548160ff0219169083151502179055507f7f26b83ff96e1f2b6a682f133852f6798a09c465da95921460cefb3847402498600160405161192c9190614cf6565b60405180910390a15b5050565b7f9f2df0fed2c77648de5860a4cc508cd0818c85b8b8a1ab4ceeef8d981c8956a681565b611966826109b7565b61196f81611bd9565b61197983836128b7565b505050565b6060604051806060016040528060358152602001615b8c60359139905090565b6000606660008473ffffffffffffffffffffffffffffffffffffffff1673ffffffffffffffffffffffffffffffffffffffff16815260200190815260200160002060008373ffffffffffffffffffffffffffffffffffffffff1673ffffffffffffffffffffffffffffffffffffffff16815260200190815260200160002060009054906101000a900460ff16905092915050565b611a3a612073565b73ffffffffffffffffffffffffffffffffffffffff168573ffffffffffffffffffffffffffffffffffffffff161480611a805750611a7f85611a7a612073565b61199e565b5b611abf576040517f08c379a0000000000000000000000000000000000000000000000000000000008152600401611ab6906149a4565b60405180910390fd5b611acc8585858585612e52565b5050505050565b611adb612073565b73ffffffffffffffffffffffffffffffffffffffff168373ffffffffffffffffffffffffffffffffffffffff161480611b215750611b2083611b1b612073565b61199e565b5b611b60576040517f08c379a0000000000000000000000000000000000000000000000000000000008152600401611b57906149a4565b60405180910390fd5b611b6b838383611e2b565b505050565b60008060fb60008481526020019081526020016000205403611bbe576040517f6aa2a93700000000000000000000000000000000000000000000000000000000815260040160405180910390fd5b60fb6000838152602001908152602001600020549050919050565b611bea81611be5612073565b6130f0565b50565b600073ffffffffffffffffffffffffffffffffffffffff168473ffffffffffffffffffffffffffffffffffffffff1603611c5c576040517f08c379a0000000000000000000000000000000000000000000000000000000008152600401611c5390614d83565b60405180910390fd5b6000611c66612073565b90506000611c7385613175565b90506000611c8085613175565b9050611c91836000898585896131ef565b846065600088815260200190815260200160002060008973ffffffffffffffffffffffffffffffffffffffff1673ffffffffffffffffffffffffffffffffffffffff1681526020019081526020016000206000828254611cf19190614da3565b925050819055508673ffffffffffffffffffffffffffffffffffffffff16600073ffffffffffffffffffffffffffffffffffffffff168473ffffffffffffffffffffffffffffffffffffffff167fc3d58168c5ae7397731d063d5bbf3d657854427343f4c083240f7aacaa2d0f628989604051611d6f929190614dd7565b60405180910390a4611d86836000898585896131f7565b611d95836000898989896131ff565b50505050505050565b60007f7965db0b000000000000000000000000000000000000000000000000000000007bffffffffffffffffffffffffffffffffffffffffffffffffffffffff1916827bffffffffffffffffffffffffffffffffffffffffffffffffffffffff19161480611e115750611e10826133d6565b5b9050919050565b8060679081611e279190614fa2565b5050565b600073ffffffffffffffffffffffffffffffffffffffff168373ffffffffffffffffffffffffffffffffffffffff1603611e9a576040517f08c379a0000000000000000000000000000000000000000000000000000000008152600401611e91906150e6565b60405180910390fd5b6000611ea4612073565b90506000611eb184613175565b90506000611ebe84613175565b9050611ede838760008585604051806020016040528060008152506131ef565b60006065600087815260200190815260200160002060008873ffffffffffffffffffffffffffffffffffffffff1673ffffffffffffffffffffffffffffffffffffffff16815260200190815260200160002054905084811015611f76576040517f08c379a0000000000000000000000000000000000000000000000000000000008152600401611f6d90615178565b60405180910390fd5b8481036065600088815260200190815260200160002060008973ffffffffffffffffffffffffffffffffffffffff1673ffffffffffffffffffffffffffffffffffffffff16815260200190815260200160002081905550600073ffffffffffffffffffffffffffffffffffffffff168773ffffffffffffffffffffffffffffffffffffffff168573ffffffffffffffffffffffffffffffffffffffff167fc3d58168c5ae7397731d063d5bbf3d657854427343f4c083240f7aacaa2d0f628989604051612044929190614dd7565b60405180910390a461206a848860008686604051806020016040528060008152506131f7565b50505050505050565b600033905090565b81518351146120bf576040517f08c379a00000000000000000000000000000000000000000000000000000000081526004016120b69061520a565b60405180910390fd5b600073ffffffffffffffffffffffffffffffffffffffff168473ffffffffffffffffffffffffffffffffffffffff160361212e576040517f08c379a00000000000000000000000000000000000000000000000000000000081526004016121259061529c565b60405180910390fd5b6000612138612073565b90506121488187878787876131ef565b60005b84518110156122fc5760008582815181106121695761216861484f565b5b6020026020010151905060008583815181106121885761218761484f565b5b6020026020010151905060006065600084815260200190815260200160002060008b73ffffffffffffffffffffffffffffffffffffffff1673ffffffffffffffffffffffffffffffffffffffff1681526020019081526020016000205490508181101561222a576040517f08c379a00000000000000000000000000000000000000000000000000000000081526004016122219061532e565b60405180910390fd5b8181036065600085815260200190815260200160002060008c73ffffffffffffffffffffffffffffffffffffffff1673ffffffffffffffffffffffffffffffffffffffff16815260200190815260200160002081905550816065600085815260200190815260200160002060008b73ffffffffffffffffffffffffffffffffffffffff1673ffffffffffffffffffffffffffffffffffffffff16815260200190815260200160002060008282546122e19190614da3565b92505081905550505050806122f5906149f3565b905061214b565b508473ffffffffffffffffffffffffffffffffffffffff168673ffffffffffffffffffffffffffffffffffffffff168273ffffffffffffffffffffffffffffffffffffffff167f4a39dc06d4c0dbc64b70af90fd698a233a518aa5d07e595d983b8c0526c8f7fb878760405161237392919061534e565b60405180910390a46123898187878787876131f7565b6123978187878787876134b8565b505050505050565b6123a98282611524565b61247c5760016097600084815260200190815260200160002060000160008373ffffffffffffffffffffffffffffffffffffffff1673ffffffffffffffffffffffffffffffffffffffff16815260200190815260200160002060006101000a81548160ff021916908315150217905550612421612073565b73ffffffffffffffffffffffffffffffffffffffff168173ffffffffffffffffffffffffffffffffffffffff16837f2f8788117e7eff1d82e926ec794901d17c78024a50270940304540a733656f0d60405160405180910390a45b5050565b60fd8160405161249091906153cc565b908152602001604051809103902060009054906101000a900460ff16156124e3576040517f8baa579f00000000000000000000000000000000000000000000000000000000815260040160405180910390fd5b6000826040516020016124f691906153e3565b60405160208183030381529060405290506000612513828461368f565b905060fc60009054906101000a900473ffffffffffffffffffffffffffffffffffffffff1673ffffffffffffffffffffffffffffffffffffffff168173ffffffffffffffffffffffffffffffffffffffff161461259c576040517f8baa579f00000000000000000000000000000000000000000000000000000000815260040160405180910390fd5b600160fd846040516125ae91906153cc565b908152602001604051809103902060006101000a81548160ff02191690831515021790555050505050565b6125e3828261239f565b5050565b600073ffffffffffffffffffffffffffffffffffffffff168373ffffffffffffffffffffffffffffffffffffffff1603612656576040517f08c379a000000000000000000000000000000000000000000000000000000000815260040161264d906150e6565b60405180910390fd5b805182511461269a576040517f08c379a00000000000000000000000000000000000000000000000000000000081526004016126919061520a565b60405180910390fd5b60006126a4612073565b90506126c4818560008686604051806020016040528060008152506131ef565b60005b83518110156128135760008482815181106126e5576126e461484f565b5b6020026020010151905060008483815181106127045761270361484f565b5b6020026020010151905060006065600084815260200190815260200160002060008973ffffffffffffffffffffffffffffffffffffffff1673ffffffffffffffffffffffffffffffffffffffff168152602001908152602001600020549050818110156127a6576040517f08c379a000000000000000000000000000000000000000000000000000000000815260040161279d90615178565b60405180910390fd5b8181036065600085815260200190815260200160002060008a73ffffffffffffffffffffffffffffffffffffffff1673ffffffffffffffffffffffffffffffffffffffff16815260200190815260200160002081905550505050808061280b906149f3565b9150506126c7565b50600073ffffffffffffffffffffffffffffffffffffffff168473ffffffffffffffffffffffffffffffffffffffff168273ffffffffffffffffffffffffffffffffffffffff167f4a39dc06d4c0dbc64b70af90fd698a233a518aa5d07e595d983b8c0526c8f7fb868660405161288b92919061534e565b60405180910390a46128b1818560008686604051806020016040528060008152506131f7565b50505050565b6128c18282611524565b156129955760006097600084815260200190815260200160002060000160008373ffffffffffffffffffffffffffffffffffffffff1673ffffffffffffffffffffffffffffffffffffffff16815260200190815260200160002060006101000a81548160ff02191690831515021790555061293a612073565b73ffffffffffffffffffffffffffffffffffffffff168173ffffffffffffffffffffffffffffffffffffffff16837ff6391f5c32d9c69d2a47ea670b442974b53935d1edc7fd64eb21e047a839171b60405160405180910390a45b5050565b600073ffffffffffffffffffffffffffffffffffffffff168473ffffffffffffffffffffffffffffffffffffffff1603612a08576040517f08c379a00000000000000000000000000000000000000000000000000000000081526004016129ff90614d83565b60405180910390fd5b8151835114612a4c576040517f08c379a0000000000000000000000000000000000000000000000000000000008152600401612a439061520a565b60405180910390fd5b6000612a56612073565b9050612a67816000878787876131ef565b60005b8451811015612b2157838181518110612a8657612a8561484f565b5b602002602001015160656000878481518110612aa557612aa461484f565b5b6020026020010151815260200190815260200160002060008873ffffffffffffffffffffffffffffffffffffffff1673ffffffffffffffffffffffffffffffffffffffff1681526020019081526020016000206000828254612b079190614da3565b925050819055508080612b19906149f3565b915050612a6a565b508473ffffffffffffffffffffffffffffffffffffffff16600073ffffffffffffffffffffffffffffffffffffffff168273ffffffffffffffffffffffffffffffffffffffff167f4a39dc06d4c0dbc64b70af90fd698a233a518aa5d07e595d983b8c0526c8f7fb8787604051612b9992919061534e565b60405180910390a4612bb0816000878787876131f7565b612bbf816000878787876134b8565b5050505050565b8173ffffffffffffffffffffffffffffffffffffffff168373ffffffffffffffffffffffffffffffffffffffff1603612c34576040517f08c379a0000000000000000000000000000000000000000000000000000000008152600401612c2b90615470565b60405180910390fd5b80606660008573ffffffffffffffffffffffffffffffffffffffff1673ffffffffffffffffffffffffffffffffffffffff16815260200190815260200160002060008473ffffffffffffffffffffffffffffffffffffffff1673ffffffffffffffffffffffffffffffffffffffff16815260200190815260200160002060006101000a81548160ff0219169083151502179055508173ffffffffffffffffffffffffffffffffffffffff168373ffffffffffffffffffffffffffffffffffffffff167f17307eab39ab6107e8899845ad3d59bd9653f200f220920489ca2b5937696c3183604051612d259190613cde565b60405180910390a3505050565b6000808273ffffffffffffffffffffffffffffffffffffffff163b119050919050565b600060019054906101000a900460ff16612da4576040517f08c379a0000000000000000000000000000000000000000000000000000000008152600401612d9b90615502565b60405180910390fd5b612dad81613713565b50565b600060019054906101000a900460ff16612dff576040517f08c379a0000000000000000000000000000000000000000000000000000000008152600401612df690615502565b60405180910390fd5b565b600060019054906101000a900460ff16612e50576040517f08c379a0000000000000000000000000000000000000000000000000000000008152600401612e4790615502565b60405180910390fd5b565b600073ffffffffffffffffffffffffffffffffffffffff168473ffffffffffffffffffffffffffffffffffffffff1603612ec1576040517f08c379a0000000000000000000000000000000000000000000000000000000008152600401612eb89061529c565b60405180910390fd5b6000612ecb612073565b90506000612ed885613175565b90506000612ee585613175565b9050612ef58389898585896131ef565b60006065600088815260200190815260200160002060008a73ffffffffffffffffffffffffffffffffffffffff1673ffffffffffffffffffffffffffffffffffffffff16815260200190815260200160002054905085811015612f8d576040517f08c379a0000000000000000000000000000000000000000000000000000000008152600401612f849061532e565b60405180910390fd5b8581036065600089815260200190815260200160002060008b73ffffffffffffffffffffffffffffffffffffffff1673ffffffffffffffffffffffffffffffffffffffff16815260200190815260200160002081905550856065600089815260200190815260200160002060008a73ffffffffffffffffffffffffffffffffffffffff1673ffffffffffffffffffffffffffffffffffffffff16815260200190815260200160002060008282546130449190614da3565b925050819055508773ffffffffffffffffffffffffffffffffffffffff168973ffffffffffffffffffffffffffffffffffffffff168573ffffffffffffffffffffffffffffffffffffffff167fc3d58168c5ae7397731d063d5bbf3d657854427343f4c083240f7aacaa2d0f628a8a6040516130c1929190614dd7565b60405180910390a46130d7848a8a86868a6131f7565b6130e5848a8a8a8a8a6131ff565b505050505050505050565b6130fa8282611524565b613171576131078161376e565b6131158360001c602061379b565b6040516020016131269291906155f6565b6040516020818303038152906040526040517f08c379a00000000000000000000000000000000000000000000000000000000081526004016131689190613f34565b60405180910390fd5b5050565b60606000600167ffffffffffffffff81111561319457613193613d14565b5b6040519080825280602002602001820160405280156131c25781602001602082028036833780820191505090505b50905082816000815181106131da576131d961484f565b5b60200260200101818152505080915050919050565b505050505050565b505050505050565b61321e8473ffffffffffffffffffffffffffffffffffffffff16612d32565b156133ce578373ffffffffffffffffffffffffffffffffffffffff1663f23a6e6187878686866040518663ffffffff1660e01b815260040161326495949392919061567a565b6020604051808303816000875af19250505080156132a057506040513d601f19601f8201168201806040525081019061329d91906156e9565b60015b613345576132ac615723565b806308c379a00361330857506132c0615745565b806132cb575061330a565b806040517f08c379a00000000000000000000000000000000000000000000000000000000081526004016132ff9190613f34565b60405180910390fd5b505b6040517f08c379a000000000000000000000000000000000000000000000000000000000815260040161333c90615847565b60405180910390fd5b63f23a6e6160e01b7bffffffffffffffffffffffffffffffffffffffffffffffffffffffff1916817bffffffffffffffffffffffffffffffffffffffffffffffffffffffff1916146133cc576040517f08c379a00000000000000000000000000000000000000000000000000000000081526004016133c3906158d9565b60405180910390fd5b505b505050505050565b60007fd9b67a26000000000000000000000000000000000000000000000000000000007bffffffffffffffffffffffffffffffffffffffffffffffffffffffff1916827bffffffffffffffffffffffffffffffffffffffffffffffffffffffff191614806134a157507f0e89341c000000000000000000000000000000000000000000000000000000007bffffffffffffffffffffffffffffffffffffffffffffffffffffffff1916827bffffffffffffffffffffffffffffffffffffffffffffffffffffffff1916145b806134b157506134b0826139d7565b5b9050919050565b6134d78473ffffffffffffffffffffffffffffffffffffffff16612d32565b15613687578373ffffffffffffffffffffffffffffffffffffffff1663bc197c8187878686866040518663ffffffff1660e01b815260040161351d9594939291906158f9565b6020604051808303816000875af192505050801561355957506040513d601f19601f8201168201806040525081019061355691906156e9565b60015b6135fe57613565615723565b806308c379a0036135c15750613579615745565b8061358457506135c3565b806040517f08c379a00000000000000000000000000000000000000000000000000000000081526004016135b89190613f34565b60405180910390fd5b505b6040517f08c379a00000000000000000000000000000000000000000000000000000000081526004016135f590615847565b60405180910390fd5b63bc197c8160e01b7bffffffffffffffffffffffffffffffffffffffffffffffffffffffff1916817bffffffffffffffffffffffffffffffffffffffffffffffffffffffff191614613685576040517f08c379a000000000000000000000000000000000000000000000000000000000815260040161367c906158d9565b60405180910390fd5b505b505050505050565b6000806136a28480519060200120613a41565b905060008060006136b286613a71565b925092509250600184828585604051600081526020016040526040516136db9493929190615970565b6020604051602081039080840390855afa1580156136fd573d6000803e3d6000fd5b5050506020604051035194505050505092915050565b600060019054906101000a900460ff16613762576040517f08c379a000000000000000000000000000000000000000000000000000000000815260040161375990615502565b60405180910390fd5b61376b81611e18565b50565b60606137948273ffffffffffffffffffffffffffffffffffffffff16601460ff1661379b565b9050919050565b6060600060028360026137ae91906159b5565b6137b89190614da3565b67ffffffffffffffff8111156137d1576137d0613d14565b5b6040519080825280601f01601f1916602001820160405280156138035781602001600182028036833780820191505090505b5090507f30000000000000000000000000000000000000000000000000000000000000008160008151811061383b5761383a61484f565b5b60200101907effffffffffffffffffffffffffffffffffffffffffffffffffffffffffffff1916908160001a9053507f78000000000000000000000000000000000000000000000000000000000000008160018151811061389f5761389e61484f565b5b60200101907effffffffffffffffffffffffffffffffffffffffffffffffffffffffffffff1916908160001a905350600060018460026138df91906159b5565b6138e99190614da3565b90505b6001811115613989577f3031323334353637383961626364656600000000000000000000000000000000600f86166010811061392b5761392a61484f565b5b1a60f81b8282815181106139425761394161484f565b5b60200101907effffffffffffffffffffffffffffffffffffffffffffffffffffffffffffff1916908160001a905350600485901c945080613982906159f7565b90506138ec565b50600084146139cd576040517f08c379a00000000000000000000000000000000000000000000000000000000081526004016139c490615a6c565b60405180910390fd5b8091505092915050565b60007f01ffc9a7000000000000000000000000000000000000000000000000000000007bffffffffffffffffffffffffffffffffffffffffffffffffffffffff1916827bffffffffffffffffffffffffffffffffffffffffffffffffffffffff1916149050919050565b600081604051602001613a549190615af9565b604051602081830303815290604052805190602001209050919050565b60008060006041845114613aba576040517f08c379a0000000000000000000000000000000000000000000000000000000008152600401613ab190615b6b565b60405180910390fd5b6020840151925060408401519150606084015160001a90509193909250565b6000604051905090565b600080fd5b600080fd5b600073ffffffffffffffffffffffffffffffffffffffff82169050919050565b6000613b1882613aed565b9050919050565b613b2881613b0d565b8114613b3357600080fd5b50565b600081359050613b4581613b1f565b92915050565b6000819050919050565b613b5e81613b4b565b8114613b6957600080fd5b50565b600081359050613b7b81613b55565b92915050565b60008060408385031215613b9857613b97613ae3565b5b6000613ba685828601613b36565b9250506020613bb785828601613b6c565b9150509250929050565b613bca81613b4b565b82525050565b6000602082019050613be56000830184613bc1565b92915050565b600080600060608486031215613c0457613c03613ae3565b5b6000613c1286828701613b36565b9350506020613c2386828701613b6c565b9250506040613c3486828701613b6c565b9150509250925092565b60007fffffffff0000000000000000000000000000000000000000000000000000000082169050919050565b613c7381613c3e565b8114613c7e57600080fd5b50565b600081359050613c9081613c6a565b92915050565b600060208284031215613cac57613cab613ae3565b5b6000613cba84828501613c81565b91505092915050565b60008115159050919050565b613cd881613cc3565b82525050565b6000602082019050613cf36000830184613ccf565b92915050565b600080fd5b600080fd5b6000601f19601f8301169050919050565b7f4e487b7100000000000000000000000000000000000000000000000000000000600052604160045260246000fd5b613d4c82613d03565b810181811067ffffffffffffffff82111715613d6b57613d6a613d14565b5b80604052505050565b6000613d7e613ad9565b9050613d8a8282613d43565b919050565b600067ffffffffffffffff821115613daa57613da9613d14565b5b613db382613d03565b9050602081019050919050565b82818337600083830152505050565b6000613de2613ddd84613d8f565b613d74565b905082815260208101848484011115613dfe57613dfd613cfe565b5b613e09848285613dc0565b509392505050565b600082601f830112613e2657613e25613cf9565b5b8135613e36848260208601613dcf565b91505092915050565b600060208284031215613e5557613e54613ae3565b5b600082013567ffffffffffffffff811115613e7357613e72613ae8565b5b613e7f84828501613e11565b91505092915050565b600060208284031215613e9e57613e9d613ae3565b5b6000613eac84828501613b6c565b91505092915050565b600081519050919050565b600082825260208201905092915050565b60005b83811015613eef578082015181840152602081019050613ed4565b60008484015250505050565b6000613f0682613eb5565b613f108185613ec0565b9350613f20818560208601613ed1565b613f2981613d03565b840191505092915050565b60006020820190508181036000830152613f4e8184613efb565b905092915050565b6000819050919050565b613f6981613f56565b8114613f7457600080fd5b50565b600081359050613f8681613f60565b92915050565b600060208284031215613fa257613fa1613ae3565b5b6000613fb084828501613f77565b91505092915050565b613fc281613f56565b82525050565b6000602082019050613fdd6000830184613fb9565b92915050565b600067ffffffffffffffff821115613ffe57613ffd613d14565b5b602082029050602081019050919050565b600080fd5b600061402761402284613fe3565b613d74565b9050808382526020820190506020840283018581111561404a5761404961400f565b5b835b81811015614073578061405f8882613b6c565b84526020840193505060208101905061404c565b5050509392505050565b600082601f83011261409257614091613cf9565b5b81356140a2848260208601614014565b91505092915050565b600067ffffffffffffffff8211156140c6576140c5613d14565b5b6140cf82613d03565b9050602081019050919050565b60006140ef6140ea846140ab565b613d74565b90508281526020810184848401111561410b5761410a613cfe565b5b614116848285613dc0565b509392505050565b600082601f83011261413357614132613cf9565b5b81356141438482602086016140dc565b91505092915050565b600080600080600060a0868803121561416857614167613ae3565b5b600061417688828901613b36565b955050602061418788828901613b36565b945050604086013567ffffffffffffffff8111156141a8576141a7613ae8565b5b6141b48882890161407d565b935050606086013567ffffffffffffffff8111156141d5576141d4613ae8565b5b6141e18882890161407d565b925050608086013567ffffffffffffffff81111561420257614201613ae8565b5b61420e8882890161411e565b9150509295509295909350565b6000806040838503121561423257614231613ae3565b5b600061424085828601613f77565b925050602061425185828601613b36565b9150509250929050565b6000806040838503121561427257614271613ae3565b5b600061428085828601613b36565b925050602083013567ffffffffffffffff8111156142a1576142a0613ae8565b5b6142ad8582860161411e565b9150509250929050565b600080fd5b60008083601f8401126142d2576142d1613cf9565b5b8235905067ffffffffffffffff8111156142ef576142ee6142b7565b5b60208301915083602082028301111561430b5761430a61400f565b5b9250929050565b60008060008060006060868803121561432e5761432d613ae3565b5b600061433c88828901613b36565b955050602086013567ffffffffffffffff81111561435d5761435c613ae8565b5b614369888289016142bc565b9450945050604086013567ffffffffffffffff81111561438c5761438b613ae8565b5b614398888289016142bc565b92509250509295509295909350565b600067ffffffffffffffff8211156143c2576143c1613d14565b5b602082029050602081019050919050565b60006143e66143e1846143a7565b613d74565b905080838252602082019050602084028301858111156144095761440861400f565b5b835b81811015614432578061441e8882613b36565b84526020840193505060208101905061440b565b5050509392505050565b600082601f83011261445157614450613cf9565b5b81356144618482602086016143d3565b91505092915050565b6000806040838503121561448157614480613ae3565b5b600083013567ffffffffffffffff81111561449f5761449e613ae8565b5b6144ab8582860161443c565b925050602083013567ffffffffffffffff8111156144cc576144cb613ae8565b5b6144d88582860161407d565b9150509250929050565b600081519050919050565b600082825260208201905092915050565b6000819050602082019050919050565b61451781613b4b565b82525050565b6000614529838361450e565b60208301905092915050565b6000602082019050919050565b600061454d826144e2565b61455781856144ed565b9350614562836144fe565b8060005b8381101561459357815161457a888261451d565b975061458583614535565b925050600181019050614566565b5085935050505092915050565b600060208201905081810360008301526145ba8184614542565b905092915050565b6000806000606084860312156145db576145da613ae3565b5b60006145e986828701613b36565b935050602084013567ffffffffffffffff81111561460a57614609613ae8565b5b6146168682870161407d565b925050604084013567ffffffffffffffff81111561463757614636613ae8565b5b6146438682870161407d565b9150509250925092565b61465681613cc3565b811461466157600080fd5b50565b6000813590506146738161464d565b92915050565b600080604083850312156146905761468f613ae3565b5b600061469e85828601613b36565b92505060206146af85828601614664565b9150509250929050565b6000602082840312156146cf576146ce613ae3565b5b60006146dd84828501613b36565b91505092915050565b600080604083850312156146fd576146fc613ae3565b5b600061470b85828601613b36565b925050602061471c85828601613b36565b9150509250929050565b600080600080600060a0868803121561474257614741613ae3565b5b600061475088828901613b36565b955050602061476188828901613b36565b945050604061477288828901613b6c565b935050606061478388828901613b6c565b925050608086013567ffffffffffffffff8111156147a4576147a3613ae8565b5b6147b08882890161411e565b9150509295509295909350565b7f455243313135353a2061646472657373207a65726f206973206e6f742061207660008201527f616c6964206f776e657200000000000000000000000000000000000000000000602082015250565b6000614819602a83613ec0565b9150614824826147bd565b604082019050919050565b600060208201905081810360008301526148488161480c565b9050919050565b7f4e487b7100000000000000000000000000000000000000000000000000000000600052603260045260246000fd5b61488781613b0d565b82525050565b600060608201905081810360008301526148a78186614542565b905081810360208301526148bb8185614542565b90506148ca604083018461487e565b949350505050565b7f4e487b7100000000000000000000000000000000000000000000000000000000600052602260045260246000fd5b6000600282049050600182168061491957607f821691505b60208210810361492c5761492b6148d2565b5b50919050565b7f455243313135353a2063616c6c6572206973206e6f7420746f6b656e206f776e60008201527f6572206f7220617070726f766564000000000000000000000000000000000000602082015250565b600061498e602e83613ec0565b915061499982614932565b604082019050919050565b600060208201905081810360008301526149bd81614981565b9050919050565b7f4e487b7100000000000000000000000000000000000000000000000000000000600052601160045260246000fd5b60006149fe82613b4b565b91507fffffffffffffffffffffffffffffffffffffffffffffffffffffffffffffffff8203614a3057614a2f6149c4565b5b600182019050919050565b600080fd5b82818337505050565b6000614a5583856144ed565b93507f07ffffffffffffffffffffffffffffffffffffffffffffffffffffffffffffff831115614a8857614a87614a3b565b5b602083029250614a99838584614a40565b82840190509392505050565b60006060820190508181036000830152614ac0818789614a49565b90508181036020830152614ad5818587614a49565b9050614ae4604083018461487e565b9695505050505050565b7f416363657373436f6e74726f6c3a2063616e206f6e6c792072656e6f756e636560008201527f20726f6c657320666f722073656c660000000000000000000000000000000000602082015250565b6000614b4a602f83613ec0565b9150614b5582614aee565b604082019050919050565b60006020820190508181036000830152614b7981614b3d565b9050919050565b7f455243313135353a206163636f756e747320616e6420696473206c656e67746860008201527f206d69736d617463680000000000000000000000000000000000000000000000602082015250565b6000614bdc602983613ec0565b9150614be782614b80565b604082019050919050565b60006020820190508181036000830152614c0b81614bcf565b9050919050565b7f496e697469616c697a61626c653a20636f6e747261637420697320616c72656160008201527f647920696e697469616c697a6564000000000000000000000000000000000000602082015250565b6000614c6e602e83613ec0565b9150614c7982614c12565b604082019050919050565b60006020820190508181036000830152614c9d81614c61565b9050919050565b6000819050919050565b600060ff82169050919050565b6000819050919050565b6000614ce0614cdb614cd684614ca4565b614cbb565b614cae565b9050919050565b614cf081614cc5565b82525050565b6000602082019050614d0b6000830184614ce7565b92915050565b7f455243313135353a206d696e7420746f20746865207a65726f2061646472657360008201527f7300000000000000000000000000000000000000000000000000000000000000602082015250565b6000614d6d602183613ec0565b9150614d7882614d11565b604082019050919050565b60006020820190508181036000830152614d9c81614d60565b9050919050565b6000614dae82613b4b565b9150614db983613b4b565b9250828201905080821115614dd157614dd06149c4565b5b92915050565b6000604082019050614dec6000830185613bc1565b614df96020830184613bc1565b9392505050565b60008190508160005260206000209050919050565b60006020601f8301049050919050565b600082821b905092915050565b600060088302614e627fffffffffffffffffffffffffffffffffffffffffffffffffffffffffffffffff82614e25565b614e6c8683614e25565b95508019841693508086168417925050509392505050565b6000614e9f614e9a614e9584613b4b565b614cbb565b613b4b565b9050919050565b6000819050919050565b614eb983614e84565b614ecd614ec582614ea6565b848454614e32565b825550505050565b600090565b614ee2614ed5565b614eed818484614eb0565b505050565b5b81811015614f1157614f06600082614eda565b600181019050614ef3565b5050565b601f821115614f5657614f2781614e00565b614f3084614e15565b81016020851015614f3f578190505b614f53614f4b85614e15565b830182614ef2565b50505b505050565b600082821c905092915050565b6000614f7960001984600802614f5b565b1980831691505092915050565b6000614f928383614f68565b9150826002028217905092915050565b614fab82613eb5565b67ffffffffffffffff811115614fc457614fc3613d14565b5b614fce8254614901565b614fd9828285614f15565b600060209050601f83116001811461500c5760008415614ffa578287015190505b6150048582614f86565b86555061506c565b601f19841661501a86614e00565b60005b828110156150425784890151825560018201915060208501945060208101905061501d565b8683101561505f578489015161505b601f891682614f68565b8355505b6001600288020188555050505b505050505050565b7f455243313135353a206275726e2066726f6d20746865207a65726f206164647260008201527f6573730000000000000000000000000000000000000000000000000000000000602082015250565b60006150d0602383613ec0565b91506150db82615074565b604082019050919050565b600060208201905081810360008301526150ff816150c3565b9050919050565b7f455243313135353a206275726e20616d6f756e7420657863656564732062616c60008201527f616e636500000000000000000000000000000000000000000000000000000000602082015250565b6000615162602483613ec0565b915061516d82615106565b604082019050919050565b6000602082019050818103600083015261519181615155565b9050919050565b7f455243313135353a2069647320616e6420616d6f756e7473206c656e6774682060008201527f6d69736d61746368000000000000000000000000000000000000000000000000602082015250565b60006151f4602883613ec0565b91506151ff82615198565b604082019050919050565b60006020820190508181036000830152615223816151e7565b9050919050565b7f455243313135353a207472616e7366657220746f20746865207a65726f20616460008201527f6472657373000000000000000000000000000000000000000000000000000000602082015250565b6000615286602583613ec0565b91506152918261522a565b604082019050919050565b600060208201905081810360008301526152b581615279565b9050919050565b7f455243313135353a20696e73756666696369656e742062616c616e636520666f60008201527f72207472616e7366657200000000000000000000000000000000000000000000602082015250565b6000615318602a83613ec0565b9150615323826152bc565b604082019050919050565b600060208201905081810360008301526153478161530b565b9050919050565b600060408201905081810360008301526153688185614542565b9050818103602083015261537c8184614542565b90509392505050565b600081519050919050565b600081905092915050565b60006153a682615385565b6153b08185615390565b93506153c0818560208601613ed1565b80840191505092915050565b60006153d8828461539b565b915081905092915050565b60006020820190506153f8600083018461487e565b92915050565b7f455243313135353a2073657474696e6720617070726f76616c2073746174757360008201527f20666f722073656c660000000000000000000000000000000000000000000000602082015250565b600061545a602983613ec0565b9150615465826153fe565b604082019050919050565b600060208201905081810360008301526154898161544d565b9050919050565b7f496e697469616c697a61626c653a20636f6e7472616374206973206e6f74206960008201527f6e697469616c697a696e67000000000000000000000000000000000000000000602082015250565b60006154ec602b83613ec0565b91506154f782615490565b604082019050919050565b6000602082019050818103600083015261551b816154df565b9050919050565b600081905092915050565b7f416363657373436f6e74726f6c3a206163636f756e7420000000000000000000600082015250565b6000615563601783615522565b915061556e8261552d565b601782019050919050565b600061558482613eb5565b61558e8185615522565b935061559e818560208601613ed1565b80840191505092915050565b7f206973206d697373696e6720726f6c6520000000000000000000000000000000600082015250565b60006155e0601183615522565b91506155eb826155aa565b601182019050919050565b600061560182615556565b915061560d8285615579565b9150615618826155d3565b91506156248284615579565b91508190509392505050565b600082825260208201905092915050565b600061564c82615385565b6156568185615630565b9350615666818560208601613ed1565b61566f81613d03565b840191505092915050565b600060a08201905061568f600083018861487e565b61569c602083018761487e565b6156a96040830186613bc1565b6156b66060830185613bc1565b81810360808301526156c88184615641565b90509695505050505050565b6000815190506156e381613c6a565b92915050565b6000602082840312156156ff576156fe613ae3565b5b600061570d848285016156d4565b91505092915050565b60008160e01c9050919050565b600060033d11156157425760046000803e61573f600051615716565b90505b90565b600060443d106157d257615757613ad9565b60043d036004823e80513d602482011167ffffffffffffffff8211171561577f5750506157d2565b808201805167ffffffffffffffff81111561579d57505050506157d2565b80602083010160043d0385018111156157ba5750505050506157d2565b6157c982602001850186613d43565b82955050505050505b90565b7f455243313135353a207472616e7366657220746f206e6f6e2d4552433131353560008201527f526563656976657220696d706c656d656e746572000000000000000000000000602082015250565b6000615831603483613ec0565b915061583c826157d5565b604082019050919050565b6000602082019050818103600083015261586081615824565b9050919050565b7f455243313135353a204552433131353552656365697665722072656a6563746560008201527f6420746f6b656e73000000000000000000000000000000000000000000000000602082015250565b60006158c3602883613ec0565b91506158ce82615867565b604082019050919050565b600060208201905081810360008301526158f2816158b6565b9050919050565b600060a08201905061590e600083018861487e565b61591b602083018761487e565b818103604083015261592d8186614542565b905081810360608301526159418185614542565b905081810360808301526159558184615641565b90509695505050505050565b61596a81614cae565b82525050565b60006080820190506159856000830187613fb9565b6159926020830186615961565b61599f6040830185613fb9565b6159ac6060830184613fb9565b95945050505050565b60006159c082613b4b565b91506159cb83613b4b565b92508282026159d981613b4b565b915082820484148315176159f0576159ef6149c4565b5b5092915050565b6000615a0282613b4b565b915060008203615a1557615a146149c4565b5b600182039050919050565b7f537472696e67733a20686578206c656e67746820696e73756666696369656e74600082015250565b6000615a56602083613ec0565b9150615a6182615a20565b602082019050919050565b60006020820190508181036000830152615a8581615a49565b9050919050565b7f19457468657265756d205369676e6564204d6573736167653a0a333200000000600082015250565b6000615ac2601c83615522565b9150615acd82615a8c565b601c82019050919050565b6000819050919050565b615af3615aee82613f56565b615ad8565b82525050565b6000615b0482615ab5565b9150615b108284615ae2565b60208201915081905092915050565b7f5369673a20496e76616c6964207369676e6174757265206c656e677468000000600082015250565b6000615b55601d83613ec0565b9150615b6082615b1f565b602082019050919050565b60006020820190508181036000830152615b8481615b48565b905091905056fe697066733a2f2f516d51355167706d50677264654d45446b583132636d68546a737148505839384b39644b506767466433745a4b54a2646970667358221220206253f27f113bc51ac30fda592e4a20526946828ede5f0ee1ba565309148cbd64736f6c63430008110033",
  "linkReferences": {},
  "deployedLinkReferences": {}
}