{
  "_format": "hh-sol-artifact-1",
  "contractName": "World",
  "sourceName": "contracts/implementations/World.sol",
  "abi": [
    {
      "inputs": [],
      "name": "AlreadyOnGrid",
      "type": "error"
    },
    {
      "inputs": [],
      "name": "InvalidDigitalKey",
      "type": "error"
    },
    {
      "inputs": [],
      "name": "InvalidSignature",
      "type": "error"
    },
    {
      "inputs": [],
      "name": "InvalidTokenID",
      "type": "error"
    },
    {
      "inputs": [],
      "name": "NotPositiveValue",
      "type": "error"
    },
    {
      "inputs": [],
      "name": "ZeroAddress",
      "type": "error"
    },
    {
      "anonymous": false,
      "inputs": [
        {
          "indexed": true,
          "internalType": "address",
          "name": "owner",
          "type": "address"
        },
        {
          "indexed": true,
          "internalType": "address",
          "name": "approved",
          "type": "address"
        },
        {
          "indexed": true,
          "internalType": "uint256",
          "name": "tokenId",
          "type": "uint256"
        }
      ],
      "name": "Approval",
      "type": "event"
    },
    {
      "anonymous": false,
      "inputs": [
        {
          "indexed": true,
          "internalType": "address",
          "name": "owner",
          "type": "address"
        },
        {
          "indexed": true,
          "internalType": "address",
          "name": "operator",
          "type": "address"
        },
        {
          "indexed": false,
          "internalType": "bool",
          "name": "approved",
          "type": "bool"
        }
      ],
      "name": "ApprovalForAll",
      "type": "event"
    },
    {
      "anonymous": false,
      "inputs": [
        {
          "indexed": false,
          "internalType": "uint8",
          "name": "version",
          "type": "uint8"
        }
      ],
      "name": "Initialized",
      "type": "event"
    },
    {
      "anonymous": false,
      "inputs": [
        {
          "indexed": true,
          "internalType": "bytes32",
          "name": "role",
          "type": "bytes32"
        },
        {
          "indexed": true,
          "internalType": "bytes32",
          "name": "previousAdminRole",
          "type": "bytes32"
        },
        {
          "indexed": true,
          "internalType": "bytes32",
          "name": "newAdminRole",
          "type": "bytes32"
        }
      ],
      "name": "RoleAdminChanged",
      "type": "event"
    },
    {
      "anonymous": false,
      "inputs": [
        {
          "indexed": true,
          "internalType": "bytes32",
          "name": "role",
          "type": "bytes32"
        },
        {
          "indexed": true,
          "internalType": "address",
          "name": "account",
          "type": "address"
        },
        {
          "indexed": true,
          "internalType": "address",
          "name": "sender",
          "type": "address"
        }
      ],
      "name": "RoleGranted",
      "type": "event"
    },
    {
      "anonymous": false,
      "inputs": [
        {
          "indexed": true,
          "internalType": "bytes32",
          "name": "role",
          "type": "bytes32"
        },
        {
          "indexed": true,
          "internalType": "address",
          "name": "account",
          "type": "address"
        },
        {
          "indexed": true,
          "internalType": "address",
          "name": "sender",
          "type": "address"
        }
      ],
      "name": "RoleRevoked",
      "type": "event"
    },
    {
      "anonymous": false,
      "inputs": [
        {
          "indexed": true,
          "internalType": "address",
          "name": "from",
          "type": "address"
        },
        {
          "indexed": true,
          "internalType": "address",
          "name": "to",
          "type": "address"
        },
        {
          "indexed": true,
          "internalType": "uint256",
          "name": "tokenId",
          "type": "uint256"
        }
      ],
      "name": "Transfer",
      "type": "event"
    },
    {
      "anonymous": false,
      "inputs": [
        {
          "indexed": false,
          "internalType": "uint256",
          "name": "id",
          "type": "uint256"
        }
      ],
      "name": "WorldBurned",
      "type": "event"
    },
    {
      "anonymous": false,
      "inputs": [
        {
          "indexed": false,
          "internalType": "address",
          "name": "to",
          "type": "address"
        },
        {
          "indexed": false,
          "internalType": "uint256",
          "name": "x",
          "type": "uint256"
        },
        {
          "indexed": false,
          "internalType": "uint256",
          "name": "y",
          "type": "uint256"
        },
        {
          "indexed": false,
          "internalType": "uint256",
          "name": "id",
          "type": "uint256"
        }
      ],
      "name": "WorldMinted",
      "type": "event"
    },
    {
      "anonymous": false,
      "inputs": [
        {
          "indexed": false,
          "internalType": "uint256",
          "name": "id",
          "type": "uint256"
        }
      ],
      "name": "WorldUpdated",
      "type": "event"
    },
    {
      "inputs": [],
      "name": "BURNER_ROLE",
      "outputs": [
        {
          "internalType": "bytes32",
          "name": "",
          "type": "bytes32"
        }
      ],
      "stateMutability": "view",
      "type": "function"
    },
    {
      "inputs": [],
      "name": "DEFAULT_ADMIN_ROLE",
      "outputs": [
        {
          "internalType": "bytes32",
          "name": "",
          "type": "bytes32"
        }
      ],
      "stateMutability": "view",
      "type": "function"
    },
    {
      "inputs": [],
      "name": "MINTER_ROLE",
      "outputs": [
        {
          "internalType": "bytes32",
          "name": "",
          "type": "bytes32"
        }
      ],
      "stateMutability": "view",
      "type": "function"
    },
    {
      "inputs": [],
      "name": "UPDATER_ROLE",
      "outputs": [
        {
          "internalType": "bytes32",
          "name": "",
          "type": "bytes32"
        }
      ],
      "stateMutability": "view",
      "type": "function"
    },
    {
      "inputs": [],
      "name": "_tokenIdCounter",
      "outputs": [
        {
          "internalType": "uint256",
          "name": "_value",
          "type": "uint256"
        }
      ],
      "stateMutability": "view",
      "type": "function"
    },
    {
      "inputs": [
        {
          "internalType": "address",
          "name": "to",
          "type": "address"
        },
        {
          "internalType": "uint256",
          "name": "tokenId",
          "type": "uint256"
        }
      ],
      "name": "approve",
      "outputs": [],
      "stateMutability": "nonpayable",
      "type": "function"
    },
    {
      "inputs": [
        {
          "internalType": "address",
          "name": "owner",
          "type": "address"
        }
      ],
      "name": "balanceOf",
      "outputs": [
        {
          "internalType": "uint256",
          "name": "",
          "type": "uint256"
        }
      ],
      "stateMutability": "view",
      "type": "function"
    },
    {
      "inputs": [
        {
          "internalType": "uint256",
          "name": "tokenId",
          "type": "uint256"
        }
      ],
      "name": "burn",
      "outputs": [],
      "stateMutability": "nonpayable",
      "type": "function"
    },
    {
      "inputs": [
        {
          "internalType": "uint256",
          "name": "tokenId",
          "type": "uint256"
        }
      ],
      "name": "burnWorld",
      "outputs": [],
      "stateMutability": "nonpayable",
      "type": "function"
    },
    {
      "inputs": [],
      "name": "contractURI",
      "outputs": [
        {
          "internalType": "string",
          "name": "",
          "type": "string"
        }
      ],
      "stateMutability": "pure",
      "type": "function"
    },
    {
      "inputs": [
        {
          "internalType": "uint256",
          "name": "tokenId",
          "type": "uint256"
        }
      ],
      "name": "getApproved",
      "outputs": [
        {
          "internalType": "address",
          "name": "",
          "type": "address"
        }
      ],
      "stateMutability": "view",
      "type": "function"
    },
    {
      "inputs": [
        {
          "internalType": "bytes32",
          "name": "role",
          "type": "bytes32"
        }
      ],
      "name": "getRoleAdmin",
      "outputs": [
        {
          "internalType": "bytes32",
          "name": "",
          "type": "bytes32"
        }
      ],
      "stateMutability": "view",
      "type": "function"
    },
    {
      "inputs": [
        {
          "internalType": "bytes32",
          "name": "role",
          "type": "bytes32"
        },
        {
          "internalType": "address",
          "name": "account",
          "type": "address"
        }
      ],
      "name": "grantRole",
      "outputs": [],
      "stateMutability": "nonpayable",
      "type": "function"
    },
    {
      "inputs": [
        {
          "internalType": "address",
          "name": "account",
          "type": "address"
        },
        {
          "internalType": "bytes",
          "name": "signature",
          "type": "bytes"
        }
      ],
      "name": "grantRoles",
      "outputs": [],
      "stateMutability": "nonpayable",
      "type": "function"
    },
    {
      "inputs": [
        {
          "internalType": "bytes32",
          "name": "role",
          "type": "bytes32"
        },
        {
          "internalType": "address",
          "name": "account",
          "type": "address"
        }
      ],
      "name": "hasRole",
      "outputs": [
        {
          "internalType": "bool",
          "name": "",
          "type": "bool"
        }
      ],
      "stateMutability": "view",
      "type": "function"
    },
    {
      "inputs": [
        {
          "internalType": "address",
          "name": "gameWallet",
          "type": "address"
        }
      ],
      "name": "initialize",
      "outputs": [],
      "stateMutability": "nonpayable",
      "type": "function"
    },
    {
      "inputs": [
        {
          "internalType": "address",
          "name": "owner",
          "type": "address"
        },
        {
          "internalType": "address",
          "name": "operator",
          "type": "address"
        }
      ],
      "name": "isApprovedForAll",
      "outputs": [
        {
          "internalType": "bool",
          "name": "",
          "type": "bool"
        }
      ],
      "stateMutability": "view",
      "type": "function"
    },
    {
      "inputs": [
        {
          "internalType": "address",
          "name": "to",
          "type": "address"
        },
        {
          "components": [
            {
              "components": [
                {
                  "internalType": "address",
                  "name": "owner",
                  "type": "address"
                },
                {
                  "components": [
                    {
                      "internalType": "uint256",
                      "name": "x",
                      "type": "uint256"
                    },
                    {
                      "internalType": "uint256",
                      "name": "y",
                      "type": "uint256"
                    }
                  ],
                  "internalType": "struct IUtilities.Coordinates",
                  "name": "coords",
                  "type": "tuple"
                }
              ],
              "internalType": "struct IUtilities.WorldGridData",
              "name": "worldGridData",
              "type": "tuple"
            },
            {
              "components": [
                {
                  "internalType": "uint256",
                  "name": "blockTotal",
                  "type": "uint256"
                },
                {
                  "internalType": "string",
                  "name": "worldLayout",
                  "type": "string"
                }
              ],
              "internalType": "struct IUtilities.WorldBlockDetails",
              "name": "worldBlockDetails",
              "type": "tuple"
            },
            {
              "internalType": "string",
              "name": "colour",
              "type": "string"
            },
            {
              "internalType": "uint256",
              "name": "id",
              "type": "uint256"
            },
            {
              "internalType": "string",
              "name": "tokenURI",
              "type": "string"
            }
          ],
          "internalType": "struct IUtilities.WorldMetadata",
          "name": "worldData",
          "type": "tuple"
        }
      ],
      "name": "mintWorld",
      "outputs": [],
      "stateMutability": "nonpayable",
      "type": "function"
    },
    {
      "inputs": [],
      "name": "name",
      "outputs": [
        {
          "internalType": "string",
          "name": "",
          "type": "string"
        }
      ],
      "stateMutability": "view",
      "type": "function"
    },
    {
      "inputs": [
        {
          "internalType": "uint256",
          "name": "tokenId",
          "type": "uint256"
        }
      ],
      "name": "ownerOf",
      "outputs": [
        {
          "internalType": "address",
          "name": "",
          "type": "address"
        }
      ],
      "stateMutability": "view",
      "type": "function"
    },
    {
      "inputs": [
        {
          "internalType": "bytes32",
          "name": "role",
          "type": "bytes32"
        },
        {
          "internalType": "address",
          "name": "account",
          "type": "address"
        }
      ],
      "name": "renounceRole",
      "outputs": [],
      "stateMutability": "nonpayable",
      "type": "function"
    },
    {
      "inputs": [
        {
          "internalType": "bytes32",
          "name": "role",
          "type": "bytes32"
        },
        {
          "internalType": "address",
          "name": "account",
          "type": "address"
        }
      ],
      "name": "revokeRole",
      "outputs": [],
      "stateMutability": "nonpayable",
      "type": "function"
    },
    {
      "inputs": [
        {
          "internalType": "address",
          "name": "from",
          "type": "address"
        },
        {
          "internalType": "address",
          "name": "to",
          "type": "address"
        },
        {
          "internalType": "uint256",
          "name": "tokenId",
          "type": "uint256"
        }
      ],
      "name": "safeTransferFrom",
      "outputs": [],
      "stateMutability": "nonpayable",
      "type": "function"
    },
    {
      "inputs": [
        {
          "internalType": "address",
          "name": "from",
          "type": "address"
        },
        {
          "internalType": "address",
          "name": "to",
          "type": "address"
        },
        {
          "internalType": "uint256",
          "name": "tokenId",
          "type": "uint256"
        },
        {
          "internalType": "bytes",
          "name": "data",
          "type": "bytes"
        }
      ],
      "name": "safeTransferFrom",
      "outputs": [],
      "stateMutability": "nonpayable",
      "type": "function"
    },
    {
      "inputs": [
        {
          "internalType": "address",
          "name": "operator",
          "type": "address"
        },
        {
          "internalType": "bool",
          "name": "approved",
          "type": "bool"
        }
      ],
      "name": "setApprovalForAll",
      "outputs": [],
      "stateMutability": "nonpayable",
      "type": "function"
    },
    {
      "inputs": [
        {
          "internalType": "bytes4",
          "name": "interfaceId",
          "type": "bytes4"
        }
      ],
      "name": "supportsInterface",
      "outputs": [
        {
          "internalType": "bool",
          "name": "",
          "type": "bool"
        }
      ],
      "stateMutability": "view",
      "type": "function"
    },
    {
      "inputs": [],
      "name": "symbol",
      "outputs": [
        {
          "internalType": "string",
          "name": "",
          "type": "string"
        }
      ],
      "stateMutability": "view",
      "type": "function"
    },
    {
      "inputs": [
        {
          "internalType": "uint256",
          "name": "tokenId",
          "type": "uint256"
        }
      ],
      "name": "tokenURI",
      "outputs": [
        {
          "internalType": "string",
          "name": "",
          "type": "string"
        }
      ],
      "stateMutability": "view",
      "type": "function"
    },
    {
      "inputs": [
        {
          "internalType": "address",
          "name": "from",
          "type": "address"
        },
        {
          "internalType": "address",
          "name": "to",
          "type": "address"
        },
        {
          "internalType": "uint256",
          "name": "tokenId",
          "type": "uint256"
        }
      ],
      "name": "transferFrom",
      "outputs": [],
      "stateMutability": "nonpayable",
      "type": "function"
    },
    {
      "inputs": [
        {
          "internalType": "uint256",
          "name": "tokenId",
          "type": "uint256"
        },
        {
          "components": [
            {
              "internalType": "uint256",
              "name": "blockTotal",
              "type": "uint256"
            },
            {
              "internalType": "string",
              "name": "worldLayout",
              "type": "string"
            }
          ],
          "internalType": "struct IUtilities.WorldBlockDetails",
          "name": "worldBlockDetails",
          "type": "tuple"
        }
      ],
      "name": "updateWorld",
      "outputs": [],
      "stateMutability": "nonpayable",
      "type": "function"
    },
    {
      "inputs": [
        {
          "internalType": "uint256",
          "name": "",
          "type": "uint256"
        }
      ],
      "name": "worlds",
      "outputs": [
        {
          "components": [
            {
              "internalType": "address",
              "name": "owner",
              "type": "address"
            },
            {
              "components": [
                {
                  "internalType": "uint256",
                  "name": "x",
                  "type": "uint256"
                },
                {
                  "internalType": "uint256",
                  "name": "y",
                  "type": "uint256"
                }
              ],
              "internalType": "struct IUtilities.Coordinates",
              "name": "coords",
              "type": "tuple"
            }
          ],
          "internalType": "struct IUtilities.WorldGridData",
          "name": "worldGridData",
          "type": "tuple"
        },
        {
          "components": [
            {
              "internalType": "uint256",
              "name": "blockTotal",
              "type": "uint256"
            },
            {
              "internalType": "string",
              "name": "worldLayout",
              "type": "string"
            }
          ],
          "internalType": "struct IUtilities.WorldBlockDetails",
          "name": "worldBlockDetails",
          "type": "tuple"
        },
        {
          "internalType": "string",
          "name": "colour",
          "type": "string"
        },
        {
          "internalType": "uint256",
          "name": "id",
          "type": "uint256"
        },
        {
          "internalType": "string",
          "name": "tokenURI",
          "type": "string"
        }
      ],
      "stateMutability": "view",
      "type": "function"
    }
  ],
  "bytecode": "0x608060405234801561001057600080fd5b5061549a806100206000396000f3fe608060405234801561001057600080fd5b50600436106101e55760003560e01c806347e633801161010f578063a22cb465116100a2578063d539139311610071578063d53913931461058e578063d547741f146105ac578063e8a3d485146105c8578063e985e9c5146105e6576101e5565b8063a22cb4651461050a578063b88d4fde14610526578063c4d66de814610542578063c87b56dd1461055e576101e5565b806391d14854116100de57806391d148541461048257806395d89b41146104b2578063a0bf54dd146104d0578063a217fddf146104ec576101e5565b806347e63380146103e65780636352211e1461040457806370a082311461043457806384c4bd4b14610464576101e5565b8063282c51f311610187578063383ae75711610156578063383ae7571461035e5780633a1956ce1461037a57806342842e0e146103ae57806342966c68146103ca576101e5565b8063282c51f3146102ec5780632f2ff15d1461030a578063339fce101461032657806336568abe14610342576101e5565b8063095ea7b3116101c3578063095ea7b31461026857806320800a201461028457806323b872dd146102a0578063248a9ca3146102bc576101e5565b806301ffc9a7146101ea57806306fdde031461021a578063081812fc14610238575b600080fd5b61020460048036038101906101ff9190613747565b610616565b604051610211919061378f565b60405180910390f35b610222610628565b60405161022f919061383a565b60405180910390f35b610252600480360381019061024d9190613892565b6106ba565b60405161025f9190613900565b60405180910390f35b610282600480360381019061027d9190613947565b610700565b005b61029e60048036038101906102999190613b32565b610817565b005b6102ba60048036038101906102b59190613b8e565b6108f7565b005b6102d660048036038101906102d19190613c17565b610957565b6040516102e39190613c53565b60405180910390f35b6102f4610977565b6040516103019190613c53565b60405180910390f35b610324600480360381019061031f9190613c6e565b61099b565b005b610340600480360381019061033b9190613d4f565b6109bc565b005b61035c60048036038101906103579190613c6e565b610aae565b005b61037860048036038101906103739190613f2b565b610b31565b005b610394600480360381019061038f9190613892565b610e80565b6040516103a5959493929190614099565b60405180910390f35b6103c860048036038101906103c39190613b8e565b6110f5565b005b6103e460048036038101906103df9190613892565b611115565b005b6103ee611171565b6040516103fb9190613c53565b60405180910390f35b61041e60048036038101906104199190613892565b611195565b60405161042b9190613900565b60405180910390f35b61044e60048036038101906104499190614101565b61121b565b60405161045b919061412e565b60405180910390f35b61046c6112d2565b604051610479919061412e565b60405180910390f35b61049c60048036038101906104979190613c6e565b6112df565b6040516104a9919061378f565b60405180910390f35b6104ba61134a565b6040516104c7919061383a565b60405180910390f35b6104ea60048036038101906104e59190613892565b6113dc565b005b6104f4611413565b6040516105019190613c53565b60405180910390f35b610524600480360381019061051f9190614175565b61141a565b005b610540600480360381019061053b91906141b5565b611430565b005b61055c60048036038101906105579190614101565b611492565b005b61057860048036038101906105739190613892565b611722565b604051610585919061383a565b60405180910390f35b610596611734565b6040516105a39190613c53565b60405180910390f35b6105c660048036038101906105c19190613c6e565b611758565b005b6105d0611779565b6040516105dd919061383a565b60405180910390f35b61060060048036038101906105fb9190614238565b611799565b60405161060d919061378f565b60405180910390f35b60006106218261182d565b9050919050565b606060658054610637906142a7565b80601f0160208091040260200160405190810160405280929190818152602001828054610663906142a7565b80156106b05780601f10610685576101008083540402835291602001916106b0565b820191906000526020600020905b81548152906001019060200180831161069357829003601f168201915b5050505050905090565b60006106c5826118a7565b6069600083815260200190815260200160002060009054906101000a900473ffffffffffffffffffffffffffffffffffffffff169050919050565b600061070b82611195565b90508073ffffffffffffffffffffffffffffffffffffffff168373ffffffffffffffffffffffffffffffffffffffff160361077b576040517f08c379a00000000000000000000000000000000000000000000000000000000081526004016107729061434a565b60405180910390fd5b8073ffffffffffffffffffffffffffffffffffffffff1661079a6118f2565b73ffffffffffffffffffffffffffffffffffffffff1614806107c957506107c8816107c36118f2565b611799565b5b610808576040517f08c379a00000000000000000000000000000000000000000000000000000000081526004016107ff906143dc565b60405180910390fd5b61081283836118fa565b505050565b7f73e573f9566d61418a34d5de3ff49360f9c51fec37f7486551670290f6285dab610841816119b3565b61084a836119c7565b610880576040517f6aa2a93700000000000000000000000000000000000000000000000000000000815260040160405180910390fd5b8161012d60008581526020019081526020016000206003016000820151816000015560208201518160010190816108b791906145a8565b509050507f0ffee877d4bec4783459533ceddde8785dcd14454a9ebe37f1b3b8792509c36b836040516108ea919061412e565b60405180910390a1505050565b6109086109026118f2565b82611a08565b610947576040517f08c379a000000000000000000000000000000000000000000000000000000000815260040161093e906146ec565b60405180910390fd5b610952838383611a9d565b505050565b600060fb6000838152602001908152602001600020600101549050919050565b7f3c11d16cbaffd01df69ce1c404f6340ee057498f5f00246190ea54220576a84881565b6109a482610957565b6109ad816119b3565b6109b78383611d96565b505050565b600073ffffffffffffffffffffffffffffffffffffffff168273ffffffffffffffffffffffffffffffffffffffff1603610a22576040517fd92e233d00000000000000000000000000000000000000000000000000000000815260040160405180910390fd5b610a2c8282611e77565b610a567f9f2df0fed2c77648de5860a4cc508cd0818c85b8b8a1ab4ceeef8d981c8956a683611fd3565b610a807f3c11d16cbaffd01df69ce1c404f6340ee057498f5f00246190ea54220576a84883611fd3565b610aaa7f73e573f9566d61418a34d5de3ff49360f9c51fec37f7486551670290f6285dab83611fd3565b5050565b610ab66118f2565b73ffffffffffffffffffffffffffffffffffffffff168173ffffffffffffffffffffffffffffffffffffffff1614610b23576040517f08c379a0000000000000000000000000000000000000000000000000000000008152600401610b1a9061477e565b60405180910390fd5b610b2d8282611fe1565b5050565b7f9f2df0fed2c77648de5860a4cc508cd0818c85b8b8a1ab4ceeef8d981c8956a6610b5b816119b3565b600073ffffffffffffffffffffffffffffffffffffffff168373ffffffffffffffffffffffffffffffffffffffff1603610bc1576040517fd92e233d00000000000000000000000000000000000000000000000000000000815260040160405180910390fd5b600073ffffffffffffffffffffffffffffffffffffffff1682600001516000015173ffffffffffffffffffffffffffffffffffffffff1603610c2f576040517fd92e233d00000000000000000000000000000000000000000000000000000000815260040160405180910390fd5b60006001610c3e61012e6120c3565b610c4891906147cd565b90506000836000015160200151905060005b82811015610cfc57816000015161012d600083815260200190815260200160002060000160010160000154148015610cb25750816020015161012d600083815260200190815260200160002060000160010160010154145b15610ce9576040517fb788ab5d00000000000000000000000000000000000000000000000000000000815260040160405180910390fd5b8080610cf490614801565b915050610c5a565b506000610d0a61012e6120c3565b9050808560600181815250508461012d600083815260200190815260200160002060008201518160000160008201518160000160006101000a81548173ffffffffffffffffffffffffffffffffffffffff021916908373ffffffffffffffffffffffffffffffffffffffff160217905550602082015181600101600082015181600001556020820151816001015550505050602082015181600301600082015181600001556020820151816001019081610dc491906145a8565b5050506040820151816005019081610ddc91906145a8565b50606082015181600601556080820151816007019081610dfc91906145a8565b50905050610e0a86826120d1565b610e188186608001516120ef565b610e2361012e61215c565b7f77a9fa074a81ef54402ea149eba301c14e2c6deb763bfbc11918b4f1d78ce3c486866000015160200151600001518760000151602001516020015184604051610e709493929190614849565b60405180910390a1505050505050565b61012d602052806000526040600020600091509050806000016040518060400160405290816000820160009054906101000a900473ffffffffffffffffffffffffffffffffffffffff1673ffffffffffffffffffffffffffffffffffffffff1673ffffffffffffffffffffffffffffffffffffffff168152602001600182016040518060400160405290816000820154815260200160018201548152505081525050908060030160405180604001604052908160008201548152602001600182018054610f4c906142a7565b80601f0160208091040260200160405190810160405280929190818152602001828054610f78906142a7565b8015610fc55780601f10610f9a57610100808354040283529160200191610fc5565b820191906000526020600020905b815481529060010190602001808311610fa857829003601f168201915b50505050508152505090806005018054610fde906142a7565b80601f016020809104026020016040519081016040528092919081815260200182805461100a906142a7565b80156110575780601f1061102c57610100808354040283529160200191611057565b820191906000526020600020905b81548152906001019060200180831161103a57829003601f168201915b505050505090806006015490806007018054611072906142a7565b80601f016020809104026020016040519081016040528092919081815260200182805461109e906142a7565b80156110eb5780601f106110c0576101008083540402835291602001916110eb565b820191906000526020600020905b8154815290600101906020018083116110ce57829003601f168201915b5050505050905085565b61111083838360405180602001604052806000815250611430565b505050565b6111266111206118f2565b82611a08565b611165576040517f08c379a000000000000000000000000000000000000000000000000000000000815260040161115c906146ec565b60405180910390fd5b61116e81612172565b50565b7f73e573f9566d61418a34d5de3ff49360f9c51fec37f7486551670290f6285dab81565b6000806111a183612263565b9050600073ffffffffffffffffffffffffffffffffffffffff168173ffffffffffffffffffffffffffffffffffffffff1603611212576040517f08c379a0000000000000000000000000000000000000000000000000000000008152600401611209906148da565b60405180910390fd5b80915050919050565b60008073ffffffffffffffffffffffffffffffffffffffff168273ffffffffffffffffffffffffffffffffffffffff160361128b576040517f08c379a00000000000000000000000000000000000000000000000000000000081526004016112829061496c565b60405180910390fd5b606860008373ffffffffffffffffffffffffffffffffffffffff1673ffffffffffffffffffffffffffffffffffffffff168152602001908152602001600020549050919050565b61012e8060000154905081565b600060fb600084815260200190815260200160002060000160008373ffffffffffffffffffffffffffffffffffffffff1673ffffffffffffffffffffffffffffffffffffffff16815260200190815260200160002060009054906101000a900460ff16905092915050565b606060668054611359906142a7565b80601f0160208091040260200160405190810160405280929190818152602001828054611385906142a7565b80156113d25780601f106113a7576101008083540402835291602001916113d2565b820191906000526020600020905b8154815290600101906020018083116113b557829003601f168201915b5050505050905090565b7f3c11d16cbaffd01df69ce1c404f6340ee057498f5f00246190ea54220576a848611406816119b3565b61140f82612172565b5050565b6000801b81565b61142c6114256118f2565b83836122a0565b5050565b61144161143b6118f2565b83611a08565b611480576040517f08c379a0000000000000000000000000000000000000000000000000000000008152600401611477906146ec565b60405180910390fd5b61148c8484848461240c565b50505050565b60008060019054906101000a900460ff161590508080156114c35750600160008054906101000a900460ff1660ff16105b806114f057506114d230612468565b1580156114ef5750600160008054906101000a900460ff1660ff16145b5b61152f576040517f08c379a0000000000000000000000000000000000000000000000000000000008152600401611526906149fe565b60405180910390fd5b60016000806101000a81548160ff021916908360ff160217905550801561156c576001600060016101000a81548160ff0219169083151502179055505b8161012f60006101000a81548173ffffffffffffffffffffffffffffffffffffffff021916908373ffffffffffffffffffffffffffffffffffffffff1602179055506116226040518060400160405280600a81526020017f576f726c64546f6b656e000000000000000000000000000000000000000000008152506040518060400160405280600481526020017f57524c440000000000000000000000000000000000000000000000000000000081525061248b565b61162a6124e8565b611632612539565b61163a61258a565b6116476000801b33611d96565b6116717f73e573f9566d61418a34d5de3ff49360f9c51fec37f7486551670290f6285dab33611d96565b61169b7f9f2df0fed2c77648de5860a4cc508cd0818c85b8b8a1ab4ceeef8d981c8956a633611d96565b6116c57f3c11d16cbaffd01df69ce1c404f6340ee057498f5f00246190ea54220576a84833611d96565b801561171e5760008060016101000a81548160ff0219169083151502179055507f7f26b83ff96e1f2b6a682f133852f6798a09c465da95921460cefb384740249860016040516117159190614a66565b60405180910390a15b5050565b606061172d826125db565b9050919050565b7f9f2df0fed2c77648de5860a4cc508cd0818c85b8b8a1ab4ceeef8d981c8956a681565b61176182610957565b61176a816119b3565b6117748383611fe1565b505050565b606060405180606001604052806035815260200161543060359139905090565b6000606a60008473ffffffffffffffffffffffffffffffffffffffff1673ffffffffffffffffffffffffffffffffffffffff16815260200190815260200160002060008373ffffffffffffffffffffffffffffffffffffffff1673ffffffffffffffffffffffffffffffffffffffff16815260200190815260200160002060009054906101000a900460ff16905092915050565b60007f7965db0b000000000000000000000000000000000000000000000000000000007bffffffffffffffffffffffffffffffffffffffffffffffffffffffff1916827bffffffffffffffffffffffffffffffffffffffffffffffffffffffff191614806118a0575061189f826126ed565b5b9050919050565b6118b0816119c7565b6118ef576040517f08c379a00000000000000000000000000000000000000000000000000000000081526004016118e6906148da565b60405180910390fd5b50565b600033905090565b816069600083815260200190815260200160002060006101000a81548173ffffffffffffffffffffffffffffffffffffffff021916908373ffffffffffffffffffffffffffffffffffffffff160217905550808273ffffffffffffffffffffffffffffffffffffffff1661196d83611195565b73ffffffffffffffffffffffffffffffffffffffff167f8c5be1e5ebec7d5bd14f71427d1e84f3dd0314c0f7b2291e5b200ac8c7c3b92560405160405180910390a45050565b6119c4816119bf6118f2565b6127cf565b50565b60008073ffffffffffffffffffffffffffffffffffffffff166119e983612263565b73ffffffffffffffffffffffffffffffffffffffff1614159050919050565b600080611a1483611195565b90508073ffffffffffffffffffffffffffffffffffffffff168473ffffffffffffffffffffffffffffffffffffffff161480611a565750611a558185611799565b5b80611a9457508373ffffffffffffffffffffffffffffffffffffffff16611a7c846106ba565b73ffffffffffffffffffffffffffffffffffffffff16145b91505092915050565b8273ffffffffffffffffffffffffffffffffffffffff16611abd82611195565b73ffffffffffffffffffffffffffffffffffffffff1614611b13576040517f08c379a0000000000000000000000000000000000000000000000000000000008152600401611b0a90614af3565b60405180910390fd5b600073ffffffffffffffffffffffffffffffffffffffff168273ffffffffffffffffffffffffffffffffffffffff1603611b82576040517f08c379a0000000000000000000000000000000000000000000000000000000008152600401611b7990614b85565b60405180910390fd5b611b8f8383836001612854565b8273ffffffffffffffffffffffffffffffffffffffff16611baf82611195565b73ffffffffffffffffffffffffffffffffffffffff1614611c05576040517f08c379a0000000000000000000000000000000000000000000000000000000008152600401611bfc90614af3565b60405180910390fd5b6069600082815260200190815260200160002060006101000a81549073ffffffffffffffffffffffffffffffffffffffff02191690556001606860008573ffffffffffffffffffffffffffffffffffffffff1673ffffffffffffffffffffffffffffffffffffffff168152602001908152602001600020600082825403925050819055506001606860008473ffffffffffffffffffffffffffffffffffffffff1673ffffffffffffffffffffffffffffffffffffffff16815260200190815260200160002060008282540192505081905550816067600083815260200190815260200160002060006101000a81548173ffffffffffffffffffffffffffffffffffffffff021916908373ffffffffffffffffffffffffffffffffffffffff160217905550808273ffffffffffffffffffffffffffffffffffffffff168473ffffffffffffffffffffffffffffffffffffffff167fddf252ad1be2c89b69c2b068fc378daa952ba7f163c4a11628f55a4df523b3ef60405160405180910390a4611d91838383600161297a565b505050565b611da082826112df565b611e7357600160fb600084815260200190815260200160002060000160008373ffffffffffffffffffffffffffffffffffffffff1673ffffffffffffffffffffffffffffffffffffffff16815260200190815260200160002060006101000a81548160ff021916908315150217905550611e186118f2565b73ffffffffffffffffffffffffffffffffffffffff168173ffffffffffffffffffffffffffffffffffffffff16837f2f8788117e7eff1d82e926ec794901d17c78024a50270940304540a733656f0d60405160405180910390a45b5050565b61013081604051611e889190614bec565b908152602001604051809103902060009054906101000a900460ff1615611edb576040517f8baa579f00000000000000000000000000000000000000000000000000000000815260040160405180910390fd5b600082604051602001611eee9190613900565b60405160208183030381529060405290506000611f0b8284612980565b905061012f60009054906101000a900473ffffffffffffffffffffffffffffffffffffffff1673ffffffffffffffffffffffffffffffffffffffff168173ffffffffffffffffffffffffffffffffffffffff1614611f95576040517f8baa579f00000000000000000000000000000000000000000000000000000000815260040160405180910390fd5b600161013084604051611fa89190614bec565b908152602001604051809103902060006101000a81548160ff02191690831515021790555050505050565b611fdd8282611d96565b5050565b611feb82826112df565b156120bf57600060fb600084815260200190815260200160002060000160008373ffffffffffffffffffffffffffffffffffffffff1673ffffffffffffffffffffffffffffffffffffffff16815260200190815260200160002060006101000a81548160ff0219169083151502179055506120646118f2565b73ffffffffffffffffffffffffffffffffffffffff168173ffffffffffffffffffffffffffffffffffffffff16837ff6391f5c32d9c69d2a47ea670b442974b53935d1edc7fd64eb21e047a839171b60405160405180910390a45b5050565b600081600001549050919050565b6120eb828260405180602001604052806000815250612a04565b5050565b6120f8826119c7565b612137576040517f08c379a000000000000000000000000000000000000000000000000000000000815260040161212e90614c75565b60405180910390fd5b8060976000848152602001908152602001600020908161215791906145a8565b505050565b6001816000016000828254019250508190555050565b61217b81612a5f565b61012d60008281526020019081526020016000206000808201600080820160006101000a81549073ffffffffffffffffffffffffffffffffffffffff021916905560018201600080820160009055600182016000905550505050600382016000808201600090556001820160006121f2919061367e565b5050600582016000612204919061367e565b600682016000905560078201600061221c919061367e565b505061222961012e612ab2565b7fceaf265041d1646f244177f01b22e9874887da3da65b1f7d6e35174b118b3c3781604051612258919061412e565b60405180910390a150565b60006067600083815260200190815260200160002060009054906101000a900473ffffffffffffffffffffffffffffffffffffffff169050919050565b8173ffffffffffffffffffffffffffffffffffffffff168373ffffffffffffffffffffffffffffffffffffffff160361230e576040517f08c379a000000000000000000000000000000000000000000000000000000000815260040161230590614ce1565b60405180910390fd5b80606a60008573ffffffffffffffffffffffffffffffffffffffff1673ffffffffffffffffffffffffffffffffffffffff16815260200190815260200160002060008473ffffffffffffffffffffffffffffffffffffffff1673ffffffffffffffffffffffffffffffffffffffff16815260200190815260200160002060006101000a81548160ff0219169083151502179055508173ffffffffffffffffffffffffffffffffffffffff168373ffffffffffffffffffffffffffffffffffffffff167f17307eab39ab6107e8899845ad3d59bd9653f200f220920489ca2b5937696c31836040516123ff919061378f565b60405180910390a3505050565b612417848484611a9d565b61242384848484612b0e565b612462576040517f08c379a000000000000000000000000000000000000000000000000000000000815260040161245990614d73565b60405180910390fd5b50505050565b6000808273ffffffffffffffffffffffffffffffffffffffff163b119050919050565b600060019054906101000a900460ff166124da576040517f08c379a00000000000000000000000000000000000000000000000000000000081526004016124d190614e05565b60405180910390fd5b6124e48282612c95565b5050565b600060019054906101000a900460ff16612537576040517f08c379a000000000000000000000000000000000000000000000000000000000815260040161252e90614e05565b60405180910390fd5b565b600060019054906101000a900460ff16612588576040517f08c379a000000000000000000000000000000000000000000000000000000000815260040161257f90614e05565b60405180910390fd5b565b600060019054906101000a900460ff166125d9576040517f08c379a00000000000000000000000000000000000000000000000000000000081526004016125d090614e05565b60405180910390fd5b565b60606125e6826118a7565b6000609760008481526020019081526020016000208054612606906142a7565b80601f0160208091040260200160405190810160405280929190818152602001828054612632906142a7565b801561267f5780601f106126545761010080835404028352916020019161267f565b820191906000526020600020905b81548152906001019060200180831161266257829003601f168201915b505050505090506000612690612d08565b905060008151036126a55781925050506126e8565b6000825111156126da5780826040516020016126c2929190614e61565b604051602081830303815290604052925050506126e8565b6126e384612d1f565b925050505b919050565b60007f80ac58cd000000000000000000000000000000000000000000000000000000007bffffffffffffffffffffffffffffffffffffffffffffffffffffffff1916827bffffffffffffffffffffffffffffffffffffffffffffffffffffffff191614806127b857507f5b5e139f000000000000000000000000000000000000000000000000000000007bffffffffffffffffffffffffffffffffffffffffffffffffffffffff1916827bffffffffffffffffffffffffffffffffffffffffffffffffffffffff1916145b806127c857506127c782612d87565b5b9050919050565b6127d982826112df565b612850576127e681612df1565b6127f48360001c6020612e1e565b604051602001612805929190614f1d565b6040516020818303038152906040526040517f08c379a0000000000000000000000000000000000000000000000000000000008152600401612847919061383a565b60405180910390fd5b5050565b600181111561297457600073ffffffffffffffffffffffffffffffffffffffff168473ffffffffffffffffffffffffffffffffffffffff16146128e85780606860008673ffffffffffffffffffffffffffffffffffffffff1673ffffffffffffffffffffffffffffffffffffffff16815260200190815260200160002060008282546128e09190614f57565b925050819055505b600073ffffffffffffffffffffffffffffffffffffffff168373ffffffffffffffffffffffffffffffffffffffff16146129735780606860008573ffffffffffffffffffffffffffffffffffffffff1673ffffffffffffffffffffffffffffffffffffffff168152602001908152602001600020600082825461296b91906147cd565b925050819055505b5b50505050565b50505050565b600080612993848051906020012061305a565b905060008060006129a38661308a565b925092509250600184828585604051600081526020016040526040516129cc9493929190614f9a565b6020604051602081039080840390855afa1580156129ee573d6000803e3d6000fd5b5050506020604051035194505050505092915050565b612a0e83836130f2565b612a1b6000848484612b0e565b612a5a576040517f08c379a0000000000000000000000000000000000000000000000000000000008152600401612a5190614d73565b60405180910390fd5b505050565b612a688161330f565b6000609760008381526020019081526020016000208054612a88906142a7565b905014612aaf57609760008281526020019081526020016000206000612aae919061367e565b5b50565b60008160000154905060008111612afe576040517f08c379a0000000000000000000000000000000000000000000000000000000008152600401612af59061502b565b60405180910390fd5b6001810382600001819055505050565b6000612b2f8473ffffffffffffffffffffffffffffffffffffffff16612468565b15612c88578373ffffffffffffffffffffffffffffffffffffffff1663150b7a02612b586118f2565b8786866040518563ffffffff1660e01b8152600401612b7a9493929190615095565b6020604051808303816000875af1925050508015612bb657506040513d601f19601f82011682018060405250810190612bb391906150f6565b60015b612c38573d8060008114612be6576040519150601f19603f3d011682016040523d82523d6000602084013e612beb565b606091505b506000815103612c30576040517f08c379a0000000000000000000000000000000000000000000000000000000008152600401612c2790614d73565b60405180910390fd5b805181602001fd5b63150b7a0260e01b7bffffffffffffffffffffffffffffffffffffffffffffffffffffffff1916817bffffffffffffffffffffffffffffffffffffffffffffffffffffffff191614915050612c8d565b600190505b949350505050565b600060019054906101000a900460ff16612ce4576040517f08c379a0000000000000000000000000000000000000000000000000000000008152600401612cdb90614e05565b60405180910390fd5b8160659081612cf391906145a8565b508060669081612d0391906145a8565b505050565b606060405180602001604052806000815250905090565b6060612d2a826118a7565b6000612d34612d08565b90506000815111612d545760405180602001604052806000815250612d7f565b80612d5e8461345d565b604051602001612d6f929190614e61565b6040516020818303038152906040525b915050919050565b60007f01ffc9a7000000000000000000000000000000000000000000000000000000007bffffffffffffffffffffffffffffffffffffffffffffffffffffffff1916827bffffffffffffffffffffffffffffffffffffffffffffffffffffffff1916149050919050565b6060612e178273ffffffffffffffffffffffffffffffffffffffff16601460ff16612e1e565b9050919050565b606060006002836002612e319190615123565b612e3b91906147cd565b67ffffffffffffffff811115612e5457612e5361398c565b5b6040519080825280601f01601f191660200182016040528015612e865781602001600182028036833780820191505090505b5090507f300000000000000000000000000000000000000000000000000000000000000081600081518110612ebe57612ebd615165565b5b60200101907effffffffffffffffffffffffffffffffffffffffffffffffffffffffffffff1916908160001a9053507f780000000000000000000000000000000000000000000000000000000000000081600181518110612f2257612f21615165565b5b60200101907effffffffffffffffffffffffffffffffffffffffffffffffffffffffffffff1916908160001a90535060006001846002612f629190615123565b612f6c91906147cd565b90505b600181111561300c577f3031323334353637383961626364656600000000000000000000000000000000600f861660108110612fae57612fad615165565b5b1a60f81b828281518110612fc557612fc4615165565b5b60200101907effffffffffffffffffffffffffffffffffffffffffffffffffffffffffffff1916908160001a905350600485901c94508061300590615194565b9050612f6f565b5060008414613050576040517f08c379a000000000000000000000000000000000000000000000000000000000815260040161304790615209565b60405180910390fd5b8091505092915050565b60008160405160200161306d9190615296565b604051602081830303815290604052805190602001209050919050565b600080600060418451146130d3576040517f08c379a00000000000000000000000000000000000000000000000000000000081526004016130ca90615308565b60405180910390fd5b6020840151925060408401519150606084015160001a90509193909250565b600073ffffffffffffffffffffffffffffffffffffffff168273ffffffffffffffffffffffffffffffffffffffff1603613161576040517f08c379a000000000000000000000000000000000000000000000000000000000815260040161315890615374565b60405180910390fd5b61316a816119c7565b156131aa576040517f08c379a00000000000000000000000000000000000000000000000000000000081526004016131a1906153e0565b60405180910390fd5b6131b8600083836001612854565b6131c1816119c7565b15613201576040517f08c379a00000000000000000000000000000000000000000000000000000000081526004016131f8906153e0565b60405180910390fd5b6001606860008473ffffffffffffffffffffffffffffffffffffffff1673ffffffffffffffffffffffffffffffffffffffff16815260200190815260200160002060008282540192505081905550816067600083815260200190815260200160002060006101000a81548173ffffffffffffffffffffffffffffffffffffffff021916908373ffffffffffffffffffffffffffffffffffffffff160217905550808273ffffffffffffffffffffffffffffffffffffffff16600073ffffffffffffffffffffffffffffffffffffffff167fddf252ad1be2c89b69c2b068fc378daa952ba7f163c4a11628f55a4df523b3ef60405160405180910390a461330b60008383600161297a565b5050565b600061331a82611195565b905061332a816000846001612854565b61333382611195565b90506069600083815260200190815260200160002060006101000a81549073ffffffffffffffffffffffffffffffffffffffff02191690556001606860008373ffffffffffffffffffffffffffffffffffffffff1673ffffffffffffffffffffffffffffffffffffffff168152602001908152602001600020600082825403925050819055506067600083815260200190815260200160002060006101000a81549073ffffffffffffffffffffffffffffffffffffffff021916905581600073ffffffffffffffffffffffffffffffffffffffff168273ffffffffffffffffffffffffffffffffffffffff167fddf252ad1be2c89b69c2b068fc378daa952ba7f163c4a11628f55a4df523b3ef60405160405180910390a461345981600084600161297a565b5050565b60606000600161346c8461352b565b01905060008167ffffffffffffffff81111561348b5761348a61398c565b5b6040519080825280601f01601f1916602001820160405280156134bd5781602001600182028036833780820191505090505b509050600082602001820190505b600115613520578080600190039150507f3031323334353637383961626364656600000000000000000000000000000000600a86061a8153600a858161351457613513615400565b5b049450600085036134cb575b819350505050919050565b600080600090507a184f03e93ff9f4daa797ed6e38ed64bf6a1f0100000000000000008310613589577a184f03e93ff9f4daa797ed6e38ed64bf6a1f010000000000000000838161357f5761357e615400565b5b0492506040810190505b6d04ee2d6d415b85acef810000000083106135c6576d04ee2d6d415b85acef810000000083816135bc576135bb615400565b5b0492506020810190505b662386f26fc1000083106135f557662386f26fc1000083816135eb576135ea615400565b5b0492506010810190505b6305f5e100831061361e576305f5e100838161361457613613615400565b5b0492506008810190505b612710831061364357612710838161363957613638615400565b5b0492506004810190505b60648310613666576064838161365c5761365b615400565b5b0492506002810190505b600a8310613675576001810190505b80915050919050565b50805461368a906142a7565b6000825580601f1061369c57506136bb565b601f0160209004906000526020600020908101906136ba91906136be565b5b50565b5b808211156136d75760008160009055506001016136bf565b5090565b6000604051905090565b600080fd5b600080fd5b60007fffffffff0000000000000000000000000000000000000000000000000000000082169050919050565b613724816136ef565b811461372f57600080fd5b50565b6000813590506137418161371b565b92915050565b60006020828403121561375d5761375c6136e5565b5b600061376b84828501613732565b91505092915050565b60008115159050919050565b61378981613774565b82525050565b60006020820190506137a46000830184613780565b92915050565b600081519050919050565b600082825260208201905092915050565b60005b838110156137e45780820151818401526020810190506137c9565b60008484015250505050565b6000601f19601f8301169050919050565b600061380c826137aa565b61381681856137b5565b93506138268185602086016137c6565b61382f816137f0565b840191505092915050565b600060208201905081810360008301526138548184613801565b905092915050565b6000819050919050565b61386f8161385c565b811461387a57600080fd5b50565b60008135905061388c81613866565b92915050565b6000602082840312156138a8576138a76136e5565b5b60006138b68482850161387d565b91505092915050565b600073ffffffffffffffffffffffffffffffffffffffff82169050919050565b60006138ea826138bf565b9050919050565b6138fa816138df565b82525050565b600060208201905061391560008301846138f1565b92915050565b613924816138df565b811461392f57600080fd5b50565b6000813590506139418161391b565b92915050565b6000806040838503121561395e5761395d6136e5565b5b600061396c85828601613932565b925050602061397d8582860161387d565b9150509250929050565b600080fd5b7f4e487b7100000000000000000000000000000000000000000000000000000000600052604160045260246000fd5b6139c4826137f0565b810181811067ffffffffffffffff821117156139e3576139e261398c565b5b80604052505050565b60006139f66136db565b9050613a0282826139bb565b919050565b600080fd5b600080fd5b600080fd5b600067ffffffffffffffff821115613a3157613a3061398c565b5b613a3a826137f0565b9050602081019050919050565b82818337600083830152505050565b6000613a69613a6484613a16565b6139ec565b905082815260208101848484011115613a8557613a84613a11565b5b613a90848285613a47565b509392505050565b600082601f830112613aad57613aac613a0c565b5b8135613abd848260208601613a56565b91505092915050565b600060408284031215613adc57613adb613987565b5b613ae660406139ec565b90506000613af68482850161387d565b600083015250602082013567ffffffffffffffff811115613b1a57613b19613a07565b5b613b2684828501613a98565b60208301525092915050565b60008060408385031215613b4957613b486136e5565b5b6000613b578582860161387d565b925050602083013567ffffffffffffffff811115613b7857613b776136ea565b5b613b8485828601613ac6565b9150509250929050565b600080600060608486031215613ba757613ba66136e5565b5b6000613bb586828701613932565b9350506020613bc686828701613932565b9250506040613bd78682870161387d565b9150509250925092565b6000819050919050565b613bf481613be1565b8114613bff57600080fd5b50565b600081359050613c1181613beb565b92915050565b600060208284031215613c2d57613c2c6136e5565b5b6000613c3b84828501613c02565b91505092915050565b613c4d81613be1565b82525050565b6000602082019050613c686000830184613c44565b92915050565b60008060408385031215613c8557613c846136e5565b5b6000613c9385828601613c02565b9250506020613ca485828601613932565b9150509250929050565b600067ffffffffffffffff821115613cc957613cc861398c565b5b613cd2826137f0565b9050602081019050919050565b6000613cf2613ced84613cae565b6139ec565b905082815260208101848484011115613d0e57613d0d613a11565b5b613d19848285613a47565b509392505050565b600082601f830112613d3657613d35613a0c565b5b8135613d46848260208601613cdf565b91505092915050565b60008060408385031215613d6657613d656136e5565b5b6000613d7485828601613932565b925050602083013567ffffffffffffffff811115613d9557613d946136ea565b5b613da185828601613d21565b9150509250929050565b600060408284031215613dc157613dc0613987565b5b613dcb60406139ec565b90506000613ddb8482850161387d565b6000830152506020613def8482850161387d565b60208301525092915050565b600060608284031215613e1157613e10613987565b5b613e1b60406139ec565b90506000613e2b84828501613932565b6000830152506020613e3f84828501613dab565b60208301525092915050565b600060e08284031215613e6157613e60613987565b5b613e6b60a06139ec565b90506000613e7b84828501613dfb565b600083015250606082013567ffffffffffffffff811115613e9f57613e9e613a07565b5b613eab84828501613ac6565b602083015250608082013567ffffffffffffffff811115613ecf57613ece613a07565b5b613edb84828501613a98565b60408301525060a0613eef8482850161387d565b60608301525060c082013567ffffffffffffffff811115613f1357613f12613a07565b5b613f1f84828501613a98565b60808301525092915050565b60008060408385031215613f4257613f416136e5565b5b6000613f5085828601613932565b925050602083013567ffffffffffffffff811115613f7157613f706136ea565b5b613f7d85828601613e4b565b9150509250929050565b613f90816138df565b82525050565b613f9f8161385c565b82525050565b604082016000820151613fbb6000850182613f96565b506020820151613fce6020850182613f96565b50505050565b606082016000820151613fea6000850182613f87565b506020820151613ffd6020850182613fa5565b50505050565b600082825260208201905092915050565b600061401f826137aa565b6140298185614003565b93506140398185602086016137c6565b614042816137f0565b840191505092915050565b60006040830160008301516140656000860182613f96565b506020830151848203602086015261407d8282614014565b9150508091505092915050565b6140938161385c565b82525050565b600060e0820190506140ae6000830188613fd4565b81810360608301526140c0818761404d565b905081810360808301526140d48186613801565b90506140e360a083018561408a565b81810360c08301526140f58184613801565b90509695505050505050565b600060208284031215614117576141166136e5565b5b600061412584828501613932565b91505092915050565b6000602082019050614143600083018461408a565b92915050565b61415281613774565b811461415d57600080fd5b50565b60008135905061416f81614149565b92915050565b6000806040838503121561418c5761418b6136e5565b5b600061419a85828601613932565b92505060206141ab85828601614160565b9150509250929050565b600080600080608085870312156141cf576141ce6136e5565b5b60006141dd87828801613932565b94505060206141ee87828801613932565b93505060406141ff8782880161387d565b925050606085013567ffffffffffffffff8111156142205761421f6136ea565b5b61422c87828801613d21565b91505092959194509250565b6000806040838503121561424f5761424e6136e5565b5b600061425d85828601613932565b925050602061426e85828601613932565b9150509250929050565b7f4e487b7100000000000000000000000000000000000000000000000000000000600052602260045260246000fd5b600060028204905060018216806142bf57607f821691505b6020821081036142d2576142d1614278565b5b50919050565b7f4552433732313a20617070726f76616c20746f2063757272656e74206f776e6560008201527f7200000000000000000000000000000000000000000000000000000000000000602082015250565b60006143346021836137b5565b915061433f826142d8565b604082019050919050565b6000602082019050818103600083015261436381614327565b9050919050565b7f4552433732313a20617070726f76652063616c6c6572206973206e6f7420746f60008201527f6b656e206f776e6572206f7220617070726f76656420666f7220616c6c000000602082015250565b60006143c6603d836137b5565b91506143d18261436a565b604082019050919050565b600060208201905081810360008301526143f5816143b9565b9050919050565b60008190508160005260206000209050919050565b60006020601f8301049050919050565b600082821b905092915050565b60006008830261445e7fffffffffffffffffffffffffffffffffffffffffffffffffffffffffffffffff82614421565b6144688683614421565b95508019841693508086168417925050509392505050565b6000819050919050565b60006144a56144a061449b8461385c565b614480565b61385c565b9050919050565b6000819050919050565b6144bf8361448a565b6144d36144cb826144ac565b84845461442e565b825550505050565b600090565b6144e86144db565b6144f38184846144b6565b505050565b5b818110156145175761450c6000826144e0565b6001810190506144f9565b5050565b601f82111561455c5761452d816143fc565b61453684614411565b81016020851015614545578190505b61455961455185614411565b8301826144f8565b50505b505050565b600082821c905092915050565b600061457f60001984600802614561565b1980831691505092915050565b6000614598838361456e565b9150826002028217905092915050565b6145b1826137aa565b67ffffffffffffffff8111156145ca576145c961398c565b5b6145d482546142a7565b6145df82828561451b565b600060209050601f8311600181146146125760008415614600578287015190505b61460a858261458c565b865550614672565b601f198416614620866143fc565b60005b8281101561464857848901518255600182019150602085019450602081019050614623565b868310156146655784890151614661601f89168261456e565b8355505b6001600288020188555050505b505050505050565b7f4552433732313a2063616c6c6572206973206e6f7420746f6b656e206f776e6560008201527f72206f7220617070726f76656400000000000000000000000000000000000000602082015250565b60006146d6602d836137b5565b91506146e18261467a565b604082019050919050565b60006020820190508181036000830152614705816146c9565b9050919050565b7f416363657373436f6e74726f6c3a2063616e206f6e6c792072656e6f756e636560008201527f20726f6c657320666f722073656c660000000000000000000000000000000000602082015250565b6000614768602f836137b5565b91506147738261470c565b604082019050919050565b600060208201905081810360008301526147978161475b565b9050919050565b7f4e487b7100000000000000000000000000000000000000000000000000000000600052601160045260246000fd5b60006147d88261385c565b91506147e38361385c565b92508282019050808211156147fb576147fa61479e565b5b92915050565b600061480c8261385c565b91507fffffffffffffffffffffffffffffffffffffffffffffffffffffffffffffffff820361483e5761483d61479e565b5b600182019050919050565b600060808201905061485e60008301876138f1565b61486b602083018661408a565b614878604083018561408a565b614885606083018461408a565b95945050505050565b7f4552433732313a20696e76616c696420746f6b656e2049440000000000000000600082015250565b60006148c46018836137b5565b91506148cf8261488e565b602082019050919050565b600060208201905081810360008301526148f3816148b7565b9050919050565b7f4552433732313a2061646472657373207a65726f206973206e6f74206120766160008201527f6c6964206f776e65720000000000000000000000000000000000000000000000602082015250565b60006149566029836137b5565b9150614961826148fa565b604082019050919050565b6000602082019050818103600083015261498581614949565b9050919050565b7f496e697469616c697a61626c653a20636f6e747261637420697320616c72656160008201527f647920696e697469616c697a6564000000000000000000000000000000000000602082015250565b60006149e8602e836137b5565b91506149f38261498c565b604082019050919050565b60006020820190508181036000830152614a17816149db565b9050919050565b6000819050919050565b600060ff82169050919050565b6000614a50614a4b614a4684614a1e565b614480565b614a28565b9050919050565b614a6081614a35565b82525050565b6000602082019050614a7b6000830184614a57565b92915050565b7f4552433732313a207472616e736665722066726f6d20696e636f72726563742060008201527f6f776e6572000000000000000000000000000000000000000000000000000000602082015250565b6000614add6025836137b5565b9150614ae882614a81565b604082019050919050565b60006020820190508181036000830152614b0c81614ad0565b9050919050565b7f4552433732313a207472616e7366657220746f20746865207a65726f2061646460008201527f7265737300000000000000000000000000000000000000000000000000000000602082015250565b6000614b6f6024836137b5565b9150614b7a82614b13565b604082019050919050565b60006020820190508181036000830152614b9e81614b62565b9050919050565b600081519050919050565b600081905092915050565b6000614bc682614ba5565b614bd08185614bb0565b9350614be08185602086016137c6565b80840191505092915050565b6000614bf88284614bbb565b915081905092915050565b7f45524337323155524953746f726167653a2055524920736574206f66206e6f6e60008201527f6578697374656e7420746f6b656e000000000000000000000000000000000000602082015250565b6000614c5f602e836137b5565b9150614c6a82614c03565b604082019050919050565b60006020820190508181036000830152614c8e81614c52565b9050919050565b7f4552433732313a20617070726f766520746f2063616c6c657200000000000000600082015250565b6000614ccb6019836137b5565b9150614cd682614c95565b602082019050919050565b60006020820190508181036000830152614cfa81614cbe565b9050919050565b7f4552433732313a207472616e7366657220746f206e6f6e20455243373231526560008201527f63656976657220696d706c656d656e7465720000000000000000000000000000602082015250565b6000614d5d6032836137b5565b9150614d6882614d01565b604082019050919050565b60006020820190508181036000830152614d8c81614d50565b9050919050565b7f496e697469616c697a61626c653a20636f6e7472616374206973206e6f74206960008201527f6e697469616c697a696e67000000000000000000000000000000000000000000602082015250565b6000614def602b836137b5565b9150614dfa82614d93565b604082019050919050565b60006020820190508181036000830152614e1e81614de2565b9050919050565b600081905092915050565b6000614e3b826137aa565b614e458185614e25565b9350614e558185602086016137c6565b80840191505092915050565b6000614e6d8285614e30565b9150614e798284614e30565b91508190509392505050565b7f416363657373436f6e74726f6c3a206163636f756e7420000000000000000000600082015250565b6000614ebb601783614e25565b9150614ec682614e85565b601782019050919050565b7f206973206d697373696e6720726f6c6520000000000000000000000000000000600082015250565b6000614f07601183614e25565b9150614f1282614ed1565b601182019050919050565b6000614f2882614eae565b9150614f348285614e30565b9150614f3f82614efa565b9150614f4b8284614e30565b91508190509392505050565b6000614f628261385c565b9150614f6d8361385c565b9250828203905081811115614f8557614f8461479e565b5b92915050565b614f9481614a28565b82525050565b6000608082019050614faf6000830187613c44565b614fbc6020830186614f8b565b614fc96040830185613c44565b614fd66060830184613c44565b95945050505050565b7f436f756e7465723a2064656372656d656e74206f766572666c6f770000000000600082015250565b6000615015601b836137b5565b915061502082614fdf565b602082019050919050565b6000602082019050818103600083015261504481615008565b9050919050565b600082825260208201905092915050565b600061506782614ba5565b615071818561504b565b93506150818185602086016137c6565b61508a816137f0565b840191505092915050565b60006080820190506150aa60008301876138f1565b6150b760208301866138f1565b6150c4604083018561408a565b81810360608301526150d6818461505c565b905095945050505050565b6000815190506150f08161371b565b92915050565b60006020828403121561510c5761510b6136e5565b5b600061511a848285016150e1565b91505092915050565b600061512e8261385c565b91506151398361385c565b92508282026151478161385c565b9150828204841483151761515e5761515d61479e565b5b5092915050565b7f4e487b7100000000000000000000000000000000000000000000000000000000600052603260045260246000fd5b600061519f8261385c565b9150600082036151b2576151b161479e565b5b600182039050919050565b7f537472696e67733a20686578206c656e67746820696e73756666696369656e74600082015250565b60006151f36020836137b5565b91506151fe826151bd565b602082019050919050565b60006020820190508181036000830152615222816151e6565b9050919050565b7f19457468657265756d205369676e6564204d6573736167653a0a333200000000600082015250565b600061525f601c83614e25565b915061526a82615229565b601c82019050919050565b6000819050919050565b61529061528b82613be1565b615275565b82525050565b60006152a182615252565b91506152ad828461527f565b60208201915081905092915050565b7f5369673a20496e76616c6964207369676e6174757265206c656e677468000000600082015250565b60006152f2601d836137b5565b91506152fd826152bc565b602082019050919050565b60006020820190508181036000830152615321816152e5565b9050919050565b7f4552433732313a206d696e7420746f20746865207a65726f2061646472657373600082015250565b600061535e6020836137b5565b915061536982615328565b602082019050919050565b6000602082019050818103600083015261538d81615351565b9050919050565b7f4552433732313a20746f6b656e20616c7265616479206d696e74656400000000600082015250565b60006153ca601c836137b5565b91506153d582615394565b602082019050919050565b600060208201905081810360008301526153f9816153bd565b9050919050565b7f4e487b7100000000000000000000000000000000000000000000000000000000600052601260045260246000fdfe697066733a2f2f516d59316e664b32794e5769507a433232787258656b7a676d6e32727033707a7078714e3942376e7872646a7839a2646970667358221220dd7e88154b7163c83e0d2f0fa409a61eddcb2d1b9a3c969fca5fb9a2a2df278c64736f6c63430008110033",
  "linkReferences": {},
  "deployedLinkReferences": {}
}